:020000040800F2
:1000000000500020CD0800087D0700088507000883
:1000100087070008890700088B0700080000000018
:100020000000000000000000000000008D07000834
:100030008F070008000000009107000893070008E0
:100040001509000815090008150900081509000818
:100050001509000815090008150900081509000808
:1000600015090008150900081509000815090008F8
:1000700015090008150900081509000815090008E8
:1000800015090008150900081509000815090008D8
:1000900015090008150900081509000815090008C8
:1000A00015090008150900081509000815090008B8
:1000B00015090008150900081509000815090008A8
:1000C0001509000815090008150900081509000898
:1000D0001509000815090008150900081509000888
:1000E000150900081509000815090008000000009E
:1000F0000000000000000000000000000000000000
:0C01000000000000000000005FF808F1A3
:10010C0010B5054C237833B9044B13B10448AFF345
:10011C0000800123237010BD20000020000000008F
:10012C00041D000808B5034B1BB103490348AFF38A
:10013C00008008BD0000000024000020041D000801
:10014C0008B572B6164C00222046032101F04CFC77
:10015C0001222046114601F047FC204601220221D3
:10016C0001F042FC2022FF210E4801F0BDFD0025CC
:10017C004FF0E0230C4C1D616368202243F00073A8
:10018C006360FF21094801F0AFFD094BA3601A68B9
:10019C005C6882F3088885F3148800F099FEA04708
:1001AC004403002080E100E000ED00E080E200E08C
:1001BC000080000870B50C46074D0A4601462846DB
:1001CC0001F084FD22462946BDE870404FF0FF3314
:1001DC00024801F0B8BC00BF3C02002058030020CC
:1001EC00012307B502218DF8050001A88DF8043014
:1001FC00FFF7E0FF03B05DF804FB00002DE9F04FC2
:10020C00A44DADF5457D4FF40372002141A801F0DA
:10021C006BFD4FF400720021284601F065FD4FF094
:10022C00FF33012229469C4801F0D8FC002840F0FD
:10023C009F80294611F8014B4FF0FF33E4B2224660
:10024C0095488DF8044101F0C9FC8246002840F025
:10025C008F80EE786B78AF783246291D42A88DF8E6
:10026C0005318DF806718DF8076101F02FFD5046B0
:10027C00AB19D3F80480D3F80890043CDFF81CB217
:10028C00CDF80883CDF80C93E4B25FFA8AF39C4264
:10029C0005F1010523D8814D48452A68936843F040
:1002AC000103936064D14FF000094FF0FF3042AC72
:1002BC005FFA89F39E421CD82A688045936843F004
:1002CC000103936054D10E2F48D8DFE807F0303685
:1002DC003C5562649747474747471D47D5002B78E5
:1002EC000122584601A901930AF1010A00F0C6FB4C
:1002FC00CBE714F8013B0122284601A9019309F12F
:10030C00010900F0BBFBD3E76549482201A801F0C5
:10031C00DDFC4820FFF764FF482101A8FFF74AFFE6
:10032C0000200DF5457DBDE8F04FFFF759BF0320C8
:10033C00FFF756FF03215B48F0E70F20FFF750FF54
:10034C000F215948EAE700F029FB01900420FFF740
:10035C0047FF04210DEB0100FFF72CFF00238DF864
:10036C0004300123022101A88DF80530FFF722FF8C
:10037C000DF5457DBDE8F08F01A800F04FFC9DF810
:10038C00143001208DF80030FFF72AFF0121684658
:10039C00C4E7FFF7D5FE9DF80831412BDED815D107
:1003AC0002230193012302930023009300F0A0FB8E
:1003BC000028D3D1694601A800F056FC0028CDD105
:1003CC00009B013317D000F0A5FBC7E70020C3F159
:1003DC0040029B0243F000639DF80911D2B20393D3
:1003EC0003F17843914294BF04910492B3F5C84F42
:1003FC000190D7D8B2E700F08DFB91E700219DF872
:10040C000C51FC22429E01AF396002A801F06CFC39
:10041C002A4638460DF20D1101F058FC06F17843CE
:10042C00B3F5803F04D906F16043B3F5A04F95D8DE
:10043C0000F05EFB044600287FF472AF013D0DF125
:10044C0005080CE03B5D18F80420012043EA022269
:10045C003119002300F092FB60B90234A4B2AC4213
:10046C00F0D3002400F056FB2043C0B200283FF428
:10047C0057AF73E70124F5E7BFF34F8F0B490C4BD4
:10048C00CA6802F4E0621343CB60BFF34F8F00BF26
:10049C00FDE700BF3C000020580300203C03002077
:1004AC001C1D0008000000200300002000ED00E0EF
:1004BC000400FA05032108B50F4801F09DFA024625
:1004CC0040B90E4B01211B690B48013318BF0122A7
:1004DC0001F08AFA0321084801F08EFA012803D1B1
:1004EC00BDE80840FFF78ABE0121034801F084FAF9
:1004FC000028F5D0FFF724FE4403002000800008FC
:10050C0008B50548054B036000F0A8FA18B1BDE822
:10051C00084000F0BCB808BD3C030020003002408D
:10052C000268084B82B09A420AD1A3F500535A696B
:10053C0042F040025A615B6903F040030193019B56
:10054C0002B0704700300240002310B588B0CDE9EE
:10055C00063303F1804303F504339A69032442F014
:10056C0010029A619A6904A902F010020092009A92
:10057C009A69194842F020029A619A6902F02002A5
:10058C000192019A9A6942F004029A619A6902F006
:10059C0004020292029A9A6942F008029A619B69DB
:1005AC0003F008030393039B4FF46043CDE9043439
:1005BC0000F0AEFB4FF6F31304A90848CDE9043460
:1005CC0000F0A6FB4FF6FF73054804A9CDE90434EF
:1005DC0000F09EFB08B010BD001001400008014067
:1005EC00000C014030B595B0102200210CA801F090
:1005FC007BFB142200210DEB020001F075FB102295
:10060C00002101A801F070FB02254FF48033092270
:10061C000124CDE90A23CDE911534FF4E0130AA8C4
:10062C000E941094139300F0BFFC08B172B6FEE761
:10063C000F23CDE905354FF480630790CDE90830E1
:10064C00294605A800F078FE08B172B6FEE74FF413
:10065C00007301A80194029300F038FF08B172B640
:10066C00FEE700F03DFE15B030BD08B500F072F9A4
:10067C00FFF7B8FFFFF768FFFFF742FF00F086F8BF
:10068C0000F0A0F800F006F8FFF714FFFCE772B6D4
:10069C00FEE7000013B54FF0FF3300241748184A4B
:1006AC00ADF80040C0E900238DF80240019484604D
:1006BC0001F052F908B1FFF7EAFF002269460F4832
:1006CC008DF800408DF801408DF8024001F080F863
:1006DC0008B1FFF7DCFF01230022084801A98DF8BF
:1006EC0004308DF805308DF806308DF8072001F0B8
:1006FC00BFF808B1FFF7CBFF02B010BD44030020D8
:10070C000028004007B50B4B02689A420FD100F04D
:10071C00D9FB094BDA6942F00062DA610122DB692C
:10072C0003F000630193019B044BC3F83C2403B01A
:10073C005DF804FB0028004000100240000042421B
:10074C000A4B82B09A6942F001029A619A6902F0EE
:10075C0001020092009ADA6942F08052DA61DB6998
:10076C0003F080530193019B02B0704700100240CC
:10077C0008B500F09FFEFEE7FEE7FEE7FEE7FEE7AA
:10078C0070477047704700F0F7B8704708B54FF4E2
:10079C00E1330A480A4AC0E9002300230C22C0E9CD
:1007AC000233C0E905230361C36101F09DF918B15F
:1007BC00BDE80840FFF76BBF08BD00BF5803002021
:1007CC000038014008B50A480A4A0B4BC0E900231F
:1007DC0000230C22C0E90233C0E905230361C36185
:1007EC0001F082F918B1BDE80840FFF750BF08BD11
:1007FC00A00300200044004060E31600102210B556
:10080C00044688B00DEB0200002101F06DFA23685C
:10081C00274A934229D1274B4FF400719A692648F5
:10082C0042F480429A619A6902F480420092009AE2
:10083C009A6942F004029A619B6903F004030193E4
:10084C00019B0223CDE90413032304A9079300F0B1
:10085C005FFA4FF4806304930023174804A9CDE991
:10086C00053300F055FA08B010BD144A9342FAD182
:10087C00104B1148DA6904A942F40032DA61DA69E2
:10088C0002F400320292029A9A6942F004029A61CE
:10089C009B69042203F004030393039B0223CDE919
:1008AC0004230323079300F033FA0823D3E700BF94
:1008BC000038014000100240000801400044004094
:1008CC00FFF763FF0B480C490C4A002302E0D45895
:1008DC00C4500433C4188C42F9D3094A094C002380
:1008EC0001E013600432A242FBD301F0CBF9FFF715
:1008FC00BCFE70470000002020000020A81D00084E
:10090C002000002010040020FEE7000038B50E4B3C
:10091C00054618784FF47A73B3FBF0F30B4A106862
:10092C00B0FBF3F000F086F8044658B90F2D09D847
:10093C00024629464FF0FF3000F04AF82046044B9F
:10094C001D6038BD0120FCE71800002014000020B9
:10095C001C000020074A08B51368032043F010035D
:10096C00136000F023F80F20FFF7D0FFFFF7E8FE2D
:10097C00002008BD00200240034A044B11681B787C
:10098C000B441360704700BFE803002018000020E0
:10099C00014B1868704700BFE8030020024B186831
:1009AC00C0F30B00704700BF002004E007490302AE
:1009BC00CA6803F4E06322F4E0621204120C1343DD
:1009CC0043F0BF6343F40033CB60704700ED00E0AD
:1009DC00164B30B5DC68C4F30224C4F10703251DA3
:1009EC00042B28BF0423062D4FF0FF3598BF00249D
:1009FC0005FA03F388BF033C21EA0303A34005FA7D
:100A0C0004F422EA0402002843EA0203ACBF00F11A
:100A1C006040074A4FEA0313DBB2ABBF00F56140FD
:100A2C0000F00F0080F80033135430BD00ED00E0EF
:100A3C0014ED00E00138B0F1807F0BD24FF0E023D1
:100A4C00F021054A586182F8231000200722986192
:100A5C001A6170470120704700ED00E010B50446A4
:100A6C0050B1437903F0FF0213B90271FFF758FD3F
:100A7C0001230020637110BD0120FCE70346022016
:100A8C0010B55871186801EB8202914203D1012212
:100A9C0000685A7110BD51F8044B0460F5E7000072
:100AAC00114AD36813F0100305D01049CB6943F0F9
:100ABC000203CB611023D268500706D50B4943F0D3
:100ACC000403CA6942F00102CA61074AD169C90725
:100ADC0008D50648C16941F00401C161D16921F012
:100AEC000101D161D360704700200240F003002067
:100AFC00064B186910F0800007D0054A5A6002F1C5
:100B0C0088325A601869C0F3C01070470020024048
:100B1C0023016745034A0020136943F080031361E6
:100B2C00704700BF0020024070B50546FFF730FF4C
:100B3C000646114CE368D80712D4E368990644BF03
:100B4C002023E360E368DA0606D4E369DB0703D409
:100B5C00E06810F0040007D0FFF7A2FF012003E0CB
:100B6C006B1CE7D00DB9032070BDFFF711FF801B84
:100B7C00A842DFD9F7E700BF002002402DE9F84F6B
:100B8C00DFF890901E4699F818300446012B0F465A
:100B9C0090463DD001234CF2503089F81830FFF7C5
:100BAC00C3FF80BB012C03D0022C0CBF02240424F5
:100BBC000025AB46DFF860A02801C0F12002A0F1AF
:100BCC00200306FA02F228FA00F0C9F81CB0104310
:100BDC0026FA03F31843DAF8103080B243F001031D
:100BEC00CAF8103027F815004CF25030FFF79CFF74
:100BFC00DAF8103023F00103CAF8103018B90135B7
:100C0C00EBB29C42D8D8002389F81830BDE8F88F95
:100C1C000220FBE7F00300200020024007230360C2
:100C2C00074B1A6A8260DA6912F0020F14BF0022B5
:100C3C00A5220274DB69C3F382034374704700BFBF
:100C4C00002002400022064BDA61064B1A6942F082
:100C5C0002021A6158611A6942F040021A61704727
:100C6C00F0030020002002402DE9F041264F0546FC
:100C7C003B7E8846012B44D001243C7603684CF221
:100C8C005030022B1AD1FFF74FFF20B10120002367
:100C9C003B76BDE8F0811D4CF86123694CF2503075
:100CAC0043F004032361236943F040032361FFF7FE
:100CBC003BFF236923F004032361E8E7FFF734FFCC
:100CCC000028E3D14FF0FF33C8F800302046AE685F
:100CDC000E4CD5E9023203EB8223B342D7D930460E
:100CEC00FFF7B0FF4CF25030FFF71EFF236923F0E3
:100CFC000203236110B1C8F80060C8E706F58066EE
:100D0C00E7E70220C5E700BFF00300200020024007
:100D1C002DE9F74F00221646644F654BDFF894C15E
:100D2C00DFF894E10D6835FA06F402D103B0BDE8A2
:100D3C00F08F4FF0010808FA06F805EA080438EAC3
:100D4C0005057BD14D68032D07D8013D022D00F21E
:100D5C008880DFE805F0969BA100122D00F09980A9
:100D6C006ED8112D00F08F80FF2C98BF82464FF06B
:100D7C000F0988BF00F1040A4FEA8605DAF80080F3
:100D8C0088BF203D09FA05FB28EA0B0802FA05F595
:100D9C0048EA0505CAF80050D1F804A01AF0805FA3
:100DAC004CD0BD6926F0030845F00105BD61BD6955
:100DBC0008F1804805F00105019508F5803806F02A
:100DCC00030B019D4FEA8B0BD8F8085009FA0BF96D
:100DDC0025EA0909394DA84262D005F58065A8427B
:100DEC0060D005F58065A8425ED005F58065A84207
:100DFC000CBF0325042505FA0BF545EA0905C8F8CF
:100E0C0008509D681AF4801F14BF2543A5439D60AC
:100E1C00DD681AF4001F14BF2543A543DD605D682F
:100E2C001AF4003F14BF2543A5435D601D681AF4F6
:100E3C00803F14BF2C4325EA04041C60013671E783
:100E4C00DFF87C904D450CD017D8A9F580194D458D
:100E5C0007D009F570294D4503D0A9F580194D45EA
:100E6C0082D18A68D2B1012A08BFC0F810804FF035
:100E7C00080218BFC0F8148076E76545F1D07545B7
:100E8C00EEE7CA6870E7CA6804326DE7CA680832D0
:100E9C006AE7CA680C3267E7002265E7042263E759
:100EAC000025A8E70125A6E70225A4E700100240CB
:100EBC000004014000003110000032100008014015
:100ECC00000022100122014B1A62704700000E42F2
:100EDC0070B5FFF75DFD05462F4C236843F0010309
:100EEC00236023689B073BD5236841F2883623F0A7
:100EFC00F80343F080032360FFF74AFD0023054607
:100F0C006360636813F00C0F32D1244B244A1A60CF
:100F1C00244B1868FFF7FAFC054600283AD1FFF776
:100F2C0037FD0646236823F080732360236813F093
:100F3C00007323D16360FFF72BFD0646236823F46F
:100F4C0010232360236813F400331DD1226822F48C
:100F5C0080222260626A42F080726262A36005E0C5
:100F6C00FFF716FD401B0228BBD90325284670BD90
:100F7C00FFF70EFD401BB042C3D9F6E7FFF708FDA3
:100F8C00801B0228D2D9F0E7FFF702FD801B6428F2
:100F9C00D8D9EAE70125E9E7001002401400002047
:100FAC0000127A001C0000202DE9F341054638B3ED
:100FBC000368DB0710D42B689F075ED42B681907D6
:100FCC0000F195802B685A0700F1C180E869002870
:100FDC0040F02C81002029E0904C636803F00C0356
:100FEC00042B07D0636803F00C03082B0AD1636849
:100FFC00DE0307D523689C03DDD56B68002BDAD1A3
:10100C00012013E06B68B3F5803F12D1236843F4E1
:10101C0080332360FFF7BCFC064623689803CAD4D0
:10102C00FFF7B6FC801B6428F7D9032002B0BDE89B
:10103C00F0819BB9236823F480332360236823F465
:10104C0080232360FFF7A4FC064623689903B2D5DE
:10105C00FFF79EFC801B6428F7D9E6E7B3F5A02FB9
:10106C00236803D143F480232360CFE723F4803338
:10107C002360236823F48023CBE7684C636813F068
:10108C000C0F07D0636803F00C03082B10D16368B6
:10109C00DA030DD423689B0702D52B69012BAFD142
:1010AC0023686A6923F0F80343EAC203236085E7E7
:1010BC002A695B4B6AB101221A60FFF769FC06468C
:1010CC0023689F07ECD4FFF763FC801B0228F7D939
:1010DC00ABE71A60FFF75CFC0646236898077FF5C0
:1010EC006DAFFFF755FC801B0228F6D99DE7AA6966
:1010FC004A4E4B4BE2B10122C3F88024FFF748FC67
:10110C000446736A9B070DD54FF4FA52454B1B6886
:10111C00B3FBF2F3019300BF019B5A1E0192002B0B
:10112C00F9D14FE7FFF734FC001B0228E9D97CE723
:10113C00C3F88024FFF72CFC0446736A9F077FF5E5
:10114C0041AFFFF725FC001B0228F6D96DE7334CA5
:10115C00E369D80024D40127E36943F08053E361A9
:10116C00E36903F080530093009B2F4E3368D9053D
:10117C0018D5EB68012B26D1236A43F001032362B7
:10118C00FFF706FC41F288380646236A9B073FD5D9
:10119C00002F3FF41BAFE36923F08053E36115E7A5
:1011AC000027E2E7336843F480733360FFF7F0FB0A
:1011BC0080463368DA05DCD4FFF7EAFBA0EB0800C5
:1011CC006428F6D931E7ABB9236A41F2883823F0A9
:1011DC0001032362236A23F004032362FFF7D8FB85
:1011EC000646236A9807D3D5FFF7D2FB801B4045F0
:1011FC00F7D91AE7052B236A03D143F004032362C2
:10120C00BAE723F001032362236A23F00403B6E751
:10121C00FFF7BEFB801B4045B7D906E70010024024
:10122C000000424214000020007000402A4C636809
:10123C0003F00C03082B3ED00022284B02281A6620
:10124C002CD1FFF7A5FB06462368990120D42B6A05
:10125C00B3F5803F05D16268A96822F400320A43D5
:10126C006260696A62680B4322F4741213430122B0
:10127C0063601A4B1A66FFF78BFB054623689A01CD
:10128C003FF5A8AEFFF784FB401B0228F6D9CCE64D
:10129C00FFF77EFB801B0228D6D9C6E6FFF778FB4A
:1012AC00054623689B017FF595AEFFF771FB401B4C
:1012BC000228F6D9B9E601283FF4B8AE63682A6A69
:1012CC0003F4803191427FF49BAE6A6A03F470138D
:1012DC0093423FF47FAE93E600100240000042427E
:1012EC000122014BDA647047000042420D4A5368F8
:1012FC0003F00C01082912D10B48C3F38341DB0323
:10130C00405C09D55368094AC3F340435043084A2B
:10131C00D35CB0FBF3F07047064B5843704703485F
:10132C00704700BF001002407C1D000800127A00BC
:10133C008C1D000800093D002DE9F0410D460446C6
:10134C0010B90120BDE8F081444A136803F007038B
:10135C008B4228D321688E0730D4CA0743D43F4A26
:10136C00136803F00703AB4265D822683C4D12F0BA
:10137C00040F6CD1130706D56B68226923F46053F4
:10138C0043EAC2036B60FFF7B1FF6B68354AC3F3E6
:10139C000313D35CD840344B1860344B1868FFF7F8
:1013AC00B5FA0020CEE7136823F007030B43136054
:1013BC00136803F007038B42C3D1CBE7284B11F022
:1013CC00040F1EBF5A6842F4E0625A60080742BF1D
:1013DC005A6842F460525A605A68A06822F0F002CF
:1013EC0002435A60B9E762681D4E012A33681AD16C
:1013FC0013F4003FA5D0736841F2883823F003033F
:10140C0013437360FFF7C4FA07467368626803F00E
:10141C000C03B3EB820FA2D0FFF7BAFAC01B404506
:10142C00F3D903208EE7022A02D113F0007FE1E703
:10143C0013F0020FDEE7136823F007032B4313604E
:10144C00136803F00703AB427FF47BAF8DE76B6847
:10145C00E16823F4E0630B436B608BE700200240F0
:10146C0000100240641D0008140000201C00002025
:10147C00044B054A5B68C3F30223D35C034A106830
:10148C00D840704700100240741D00081400002062
:10149C00044B054A5B68C3F3C223D35C034A106850
:1014AC00D840704700100240741D00081400002042
:1014BC007047000010B5044CA3681B0603D5FFF75A
:1014CC00F7FF8023A37210BD0010024003682DE9C2
:1014DC00F341D907054620D5364CE369DA0032D4FE
:1014EC000126E36943F08053E361E36903F0805321
:1014FC000193019B304F3B68DB0526D5236A13F41F
:10150C00407336D1236A6A6823F440731343236211
:10151C001EB1E36923F08053E3612868830706D585
:10152C002449AB684A6822F440421A434A6010F0DE
:10153C0010001BD01F4AE9685368002023F4800375
:10154C000B43536012E00026D4E73B6843F48073EE
:10155C003B60FFF71DFA80463B68D805CED4FFF7F9
:10156C0017FAA0EB08006428F6D9032002B0BDE8F6
:10157C00F0816A6802F440729A42C3D001200F4A8B
:10158C00236AC2F84004002023F44071C2F84004DE
:10159C002162D907B6D5FFF7FBF941F28838074627
:1015AC00236A9A07AED4FFF7F3F9C01B4045F7D96D
:1015BC00DBE700BF00100240007000400000424218
:1015CC00022808B544D0102803D0012822D00020CE
:1015DC0034E0254B5A68186810F080702ED0C2F396
:1015EC0083412248D20348BF5A68405C41BF20491E
:1015FC00C2F34042895C1F4A5B684CBFB2FBF1F2FC
:10160C001D4A5B0202FB00F018D403234000B0FB20
:10161C00F3F013E040F20231134A136A1940B1F5AA
:10162C00817F1ED003F44073B3F5007F07D149F6D8
:10163C004043506A10F0020018BF184608BDB3F5BD
:10164C00407FC4D110684FF2244310F40030F3E70C
:10165C00FFF71EFF044B5B68C3F3813301335B0060
:10166C00D5E74FF40040E9E7001002408E1D00085A
:10167C009E1D000800127A0000093D00036830B579
:10168C009A69D869996995B28CB2A54217BFD86985
:10169C0080B280B240EA014008BF40EA024030BD4F
:1016AC000368186A5B6A9BB243EA004070470A22DF
:1016BC00030900F00F0002FB0300C0B2704730B505
:1016CC00034600F5FA641720092548430229B0FBAC
:1016DC00F5F517D8043210194FF4C87203F2CF7312
:1016EC00B3FBF2F2284400EB930010446422B3FBEA
:1016FC00F2F3C01A0723B0FBF3F3C3EBC303C01A16
:10170C00C0B230BD4FF4C873B4FBF3F3901C20444B
:10171C00284400EB940018446423B4FBF3F4001B3E
:10172C00E8E738B50446FFF733F9054623685A68ED
:10173C00920605D500205A6842F010025A6038BD56
:10174C00FFF726F9401BB0F57A7FEFD90320F6E7B7
:10175C00026838B55368044623F010035360FFF752
:10176C0017F9054623685B689B0601D5002038BD38
:10177C00FFF70EF9401BB0F57A7FF3D90320F6E79B
:10178C0038B505460C46FFF7CCFF58B92B68220C30
:10179C00A4B29A612846DC61FFF7DAFF003818BF63
:1017AC00012038BD0120FCE738B505460C46FFF793
:1017BC00B8FF58B92B68220CA4B21A6228465C6296
:1017CC00FFF7C6FF003818BF012038BD0120FCE729
:1017DC00F8B50446E0B1D9B1037C0225012B44D005
:1017EC0001234574037408784D788F7892B93C26A0
:1017FC0075434FF4616606FB0055EE1931462046E1
:10180C00FFF7BEFF0546B0B10423637400232374B5
:10181C0001252AE0FFF74BFF01462846FFF747FF5B
:10182C003C2646434FF4616000FB01663846FFF7E7
:10183C003EFF0644E2E722682046536823F0050386
:10184C005360FFF72DFF86420BD900F5A83101F547
:10185C00C0712046FFF7A8FF18B1042325746374E8
:10186C00D6E701236374002323742846F8BD0000D7
:10187C0070B50D46044650B349B3037C0220012BCE
:10188C0048D0012360742374C87812BBE0734B7882
:10189C0063738B78A373A27B617BE07BFFF70FFFF5
:1018AC00207328702046FFF7E9FE1B4B98422DD978
:1018BC001A4DB0FBF5F105FB110520462946FFF743
:1018CC005FFF064688B10423637400232374012050
:1018DC0020E0FFF7ECFEE0734878FFF7E8FE60735A
:1018EC008878FFF7E4FEA073D5E72046FFF7D8FE13
:1018FC0085420BD900F5A83101F5C0712046FFF7E0
:10190C0053FF18B1042326746374E0E7012300200D
:10191C006374207470BD00BF8F5F010080510100A3
:10192C0038B50446A8B10268536823F00803536025
:10193C00FFF72EF8054623685B681B0701D50020CE
:10194C0038BDFFF725F8401BB0F57A7FF3D903209B
:10195C00F6E70120F4E7000010B5044670B1437CB3
:10196C0003F0FF0213B90274FEF7CCFE02232046EB
:10197C006374FFF7D5FF18B10423637401202FE0C3
:10198C002046FFF7CEFE0028F6D12268A0685368E7
:10199C0023F007035360134A18B1116B21F00101B6
:1019AC001163D36A23F460730343D3626068431CEE
:1019BC0005D10120FFF704FE0028DDD00138236893
:1019CC00C0F3034280B29A60D8602046FFF7C0FE95
:1019DC00012310B104226274D0E76373E381637452
:1019EC0010BD00BF006C0040890001F1804101F581
:1019FC00D84192B20A607047890001F1804101F52B
:101A0C00D841086880B2704710B504460368C168B5
:101A1C001A6922F440520A431A6182680069D96833
:101A2C000243606921F4B05121F00C0102430A43D6
:101A3C00DA605A69A16922F440720A435A610E4A6B
:101A4C00934215D1FFF724FD1923434362682068A4
:101A5C009200B3FBF2F36422B3FBF2F102FB1133FD
:101A6C001B013233B3FBF2F303EB0113836010BDA4
:101A7C00FFF7FEFCE8E700BF00380140F8B504466C
:101A8C000E4617461D462268136836EA030301D139
:101A9C00002028E06B1CF7D025B1FEF779FFC01BA6
:101AAC008542F0D2226802F10C0353E8003F23F484
:101ABC00D0730C3242E8003021680028F2D101F1D9
:101ACC00140353E8003F23F0010301F1140040E834
:101ADC000032002AF3D12023032084F8413084F80B
:101AEC00402084F84230F8BD10B5044648B390F855
:101AFC00413003F0FF021BB980F84020FEF77EFE58
:101B0C002423226884F84130D368204623F4005300
:101B1C00D360FFF779FF236800201A6922F4904202
:101B2C001A615A6922F02A025A61DA6842F40052A8
:101B3C00DA602023606484F8413084F842306063BA
:101B4C0010BD0120FCE72DE9F843994690F841308F
:101B5C000446202B0E4617463CD100293CD0002AC7
:101B6C003AD021230025456480F84130FEF710FF60
:101B7C00A3688046B3F5805FA784E78403D123690B
:101B8C000BB935461E46E38C9BB253B94B464246C5
:101B9C0040212046FFF772FF50B9202384F84130D2
:101BAC0007E04B46424680212046FFF767FF10B105
:101BBC000320BDE8F88322684EB935F8023BC3F325
:101BCC0008035360E18C013989B2E184DBE716F834
:101BDC00013BF6E70220ECE70120EAE72DE9F843A8
:101BEC001F4690F842300446202B0E46914643D1B6
:101BFC00002943D0002A41D022230025456480F8D7
:101C0C0042300563FEF7C4FEA3688046B3F5805FDF
:101C1C00A4F82C90A4F82E9003D123690BB9354667
:101C2C001E46E08D80B220B9202384F84230BDE8F6
:101C3C00F8833B46424620212046FFF71FFFF8B9A8
:101C4C0023684EB95B68C3F3080325F8023BE38DA8
:101C5C00013B9BB2E385E4E7A268B2F5805F02D05A
:101C6C0032B9226922B95968C9B206F8011BEEE7EC
:101C7C00596801F07F01F8E70220D8E70120D6E788
:101C8C000320D4E770B500260C4D0D4C641BA4103A
:101C9C00A64209D100F030F800260A4D0A4C641B0C
:101CAC00A410A64205D170BD55F8043B98470136E7
:101CBC00EEE755F8043B98470136F2E7A01D000803
:101CCC00A01D0008A01D0008A41D00080A44914294
:101CDC0000F1FF3300D1704710B511F8014B914260
:101CEC0003F8014FF9D110BD03460244934200D1D1
:101CFC00704703F8011BF9E7F8B500BFF8BC08BC46
:101D0C009E467047F8B500BFF8BC08BC9E467047AD
:101D1C005468697320626F6F746C6F6164657220B4
:101D2C006973206D616465206279204D6F68616D07
:101D3C0065642041736872616620577820436F7028
:101D4C007972696768742028432920577820496E76
:101D5C00632C203230323300000000000000000001
:101D6C000102030406070809000000000102030435
:101D7C0002030405060708090A0B0C0D0E0F1010C0
:101D8C00010202030405060708090A0B0C0D0E0FCD
:041D9C001010010220
:041DA0003101000805
:041DA4000D01000825
:101DA800010000000102030405060708090A0B00E8
:101DB800000000000024F4000100000010000000F2
:04000005080008CD1A
:00000001FF
