:020000040800F2
:10000000780600208901000895100008D50F000827
:100010009110000845020008AD1000080000000023
:10002000000000000000000000000000A110000817
:1000300049020008000000009D100008A5100008FB
:10004000A3010008A3010008A3010008A301000800
:10005000A3010008A3010008A3010008A3010008F0
:10006000A3010008A3010008A3010008A3010008E0
:10007000A3010008A3010008A3010008A3010008D0
:10008000A3010008A3010008A3010008A3010008C0
:10009000A3010008A3010008A3010008A3010008B0
:1000A000A3010008A3010008A3010008A3010008A0
:1000B000A3010008A3010008A3010008A301000890
:1000C000A3010008A3010008A3010008A301000880
:1000D000A3010008A3010008A3010008A301000870
:1000E000A3010008A3010008A301000800F002F822
:1000F00000F03AF80AA090E8000C82448344AAF188
:100100000107DA4501D100F02FF8AFF2090EBAE885
:100110000F0013F0010F18BFFB1A43F0010318473B
:10012000E010000000110000103A24BF78C878C128
:10013000FAD8520724BF30C830C144BF04680C60ED
:10014000704700000023002400250026103A28BF35
:1001500078C1FBD8520728BF30C148BF0B60704739
:100160001FB51FBD10B510BD00F031F81146FFF7E7
:10017000F7FF00F09FFF00F04FF803B4FFF7F2FF26
:1001800003BC00F057F800000948804709480047C1
:10019000FEE7FEE7FEE7FEE7FEE7FEE7FEE7FEE737
:1001A000FEE7FEE704480549054A064B7047000094
:1001B000A9100008ED000008780000207806002053
:1001C000780200207802002070477047704775461B
:1001D00000F02CF8AE4605006946534620F00700B3
:1001E000854618B020B5FFF7DDFFBDE820404FF091
:1001F00000064FF000074FF000084FF0000BAC4630
:10020000ACE8C009ACE8C009ACE8C009ACE8C0097A
:1002100021F007018D46704710B50446AFF300800A
:100220002046BDE81040FFF7A8BF00000048704717
:100230001000002001491820ABBEFEE72600020096
:1002400070470000FEE70000704700002DE9F04F06
:1002500083B08246A0F18040A0F584304FEAB024FC
:10026000052C0D4606D341F28A10C0F60000BD21D0
:1002700000F01EFF28680021B1EB104F01D180B2C1
:1002800030B941F28A10C0F60000BE2100F010FF24
:1002900068684FF6FF77C1F210074FF6FF71B8425A
:1002A000C1F221010CDC122800F29C81012101FA2B
:1002B00000F00F21C0F20601084223D192E100BFF5
:1002C00088420FDC0021C1F2110188421AD00021BE
:1002D000C1F21201884215D00021C1F221018842E9
:1002E00010D07FE10021C1F2220188420AD0002112
:1002F000C1F23101884205D00021C1F232018842A9
:1003000040F070812868002800F0778140F20C4CA2
:1003100040F2004E41F20041C4F2010CC4F2010E61
:10032000C4F2010104224FF0000800264FF000093A
:100330008A4508BF03220092019447E041F200027F
:10034000C4F201029245009A08BF022208F00C0490
:100350000F27A740B943A240B308114340F8231028
:1003600068684FF6FF77C102DEF8081054BF21EA33
:100370000B0141EA0B01CEF80810019CDCF80010DB
:10038000820254BF21EA0B0141EA0B01CCF80010B4
:100390008203DEF8041054BF21EA0B0141EA0B018D
:1003A000C003CEF80410C1F21007DEF8000054BFFD
:1003B00020EA0B0040EA0B00CEF800002868013666
:1003C00030FA06F108F1040800F01781012101FA62
:1003D00006FB10EA0B0FF1D0052C0ED341F28A1068
:1003E000C0F60000CD2100F063FE40F2004E40F266
:1003F0000C4CC4F2010EC4F2010C6868B84229DC4E
:10040000122800F2B980DFE800F04B0B6D85B7B71A
:10041000B7B7B7B7B7B7B7B7B7B7B789A10000BF16
:10042000D5F80C90A9F101000328C0F0A58041F295
:100430008A10C0F60000D52100F03AFE40F2004ECE
:1004400040F20C4CD5F80C90C4F2010EC4F2010C31
:1004500092E000BF4FF6FF71C1F2210188420FDC2C
:100460000021C1F2110188421AD00021C1F212010B
:10047000884215D00021C1F22101884210D07BE0D2
:100480000021C1F2220188420AD00021C1F23101CB
:10049000884205D00021C1F2320188426CD100BFF0
:1004A000A86803280FD341F28A10C0F60000F72194
:1004B00000F0FEFD40F2004E40F20C4CA868C4F281
:1004C000010EC4F2010C48B1012814BFCAF814B0DF
:1004D000CAF810B04FF008094EE000BF4FF0040911
:1004E0004AE000BFE868411E03290FD341F28A1099
:1004F000C0F60000E32100F0DBFD40F2004E40F2C8
:100500000C4CE868C4F2010EC4F2010C00F10809B9
:1005100032E000BF4FF000092EE000BFE868411E46
:1005200003290FD341F28A10C0F60000DC2100F04D
:10053000BFFD40F2004E40F20C4CE868C4F2010EE0
:10054000C4F2010C00F1040916E000BFE868411E86
:1005500003290FD341F28A10C0F60000EA2100F00F
:10056000A7FD40F2004E40F20C4CE868C4F2010EC8
:10057000C4F2010C00F10C0940465146082E24BF7C
:10058000203804310A680F2383409A4309FA00F0A7
:1005900010430860E879C0067FF510AF41F21801FA
:1005A000C4F20201086840F6000240F00100086051
:1005B000086826F0030100F0010002900298AEF5F1
:1005C0007E704158C4F20102924509D040F60042C3
:1005D000C4F2010292457FF4B1AE0122B6E600BF3B
:1005E0000022B3E641F28A10C0F60000BF2100F0FD
:1005F0005FFD286800287FF489AE03B0BDE8F08F66
:10060000B0B50C46054639B941F28A10C0F6000073
:100610004FF4F67100F04CFDE86800EA040124EAAA
:10062000000040EA01402861B0BD000070B51646E8
:100630000C46054631B1022E0ED2002E08BF24040E
:100640002C6170BD41F28A10C0F600004FF4EA71CF
:1006500000F02EFD022EF0D341F28A10C0F6000009
:1006600040F2D51100F024FD2C6170BD40F2700005
:10067000C2F200000068704740F2000040F27001D2
:10068000C2F20000C2F2000100780A68104408605B
:100690007047000080B542F20000C4F20200016819
:1006A00041F010010160032000F086F80F2000F0F7
:1006B00005F800F027F8002080BD000070B540F27A
:1006C0000006C2F2000640F208013278C2F20001D0
:1006D0004FF47A730968B3FBF2F20446B1FBF2F10E
:1006E000084600F061FC0F2C4FF0010508D838B91E
:1006F0004FF0FF3021460022002500F01DF8746005
:10070000284670BD82B041F21800C4F202000168B0
:1007100041F001010160016801F0010101910199BD
:10072000416841F080514160406800F08050009085
:10073000009802B07047000070B515460E46102AAA
:10074000044606D341F2C310C0F60000A92100F010
:10075000AFFC102E06D341F2C310C0F60000AA2150
:1007600000F0A6FC4EF60C50CEF2000001684FF0EF
:10077000FF33C1F3022181F00702042A28BF0422BB
:10078000033903FA02F238BF002126EA02028A4046
:1007900003FA01F125EA0101114304F00F02043AC2
:1007A000104404F16042090102F56442002C48BF84
:1007B00000F10C02117070BD10B504460338052815
:1007C00006D341F2C310C0F60000912100F070FC86
:1007D0004EF60C50CEF2000001684FF6FF021140B9
:1007E00064F30A2141F0806141F0FD71016010BDA8
:1007F000704700002DE9F04381B0002800F0D88058
:10080000044600780D46000700F0B280032D07D3A0
:1008100041F25210C0F6000040F2373100F048FCBF
:1008200042F20008C4F20208D8F8000000F0070005
:10083000A8420DD2D8F8000020F007002843C8F8DD
:100840000000D8F8000000F00700A84240F0B08097
:10085000206841F204098107C4F202091FD541074B
:1008600005D5D9F8001041F4E061C9F8001000077F
:1008700005D5D9F8000040F46050C9F80000A06820
:100880006FF0070101EB3011082980F0E580D9F8FD
:10089000001021F0F0010843C9F800002068C007EB
:1008A00072D1D8F8000000F00700A8420CD9D8F89F
:1008B000000020F007002843C8F80000D8F8000026
:1008C00000F00700A84273D1206841071AD5E068FC
:1008D0006FF0030101EB302104290BD34FEA3021E3
:1008E00041B141F25210C0F6000040F2A23100F0D6
:1008F000DFFBE068D9F8001021F4E0610843C9F893
:100900000000206800071AD520696FF0030101EB91
:10091000302104290BD34FEA302141B141F252106A
:10092000C0F6000040F2A93100F0C2FB2069D9F8FE
:10093000001021F4605141EAC000C9F80000D9F864
:10094000002002F00C00082841F20020C0F27A00DA
:1009500066D141F24213C2F38341C0F60003595CF1
:10096000D20351D440F60010C0F23D00484357E096
:1009700041F25210C0F6000040F2363100F098FB10
:10098000032DBFF445AF4BE76068032808D341F25D
:100990005210C0F600004FF4597100F089FB6068F6
:1009A000022809D0012829D159F8041C890307D449
:1009B000012001B0BDE8F08359F8041C8901F7D586
:1009C000D9F8001021F003010843C9F80000FFF72F
:1009D0004DFE064641F28837D9F80000616800F004
:1009E0000C00B0EB810F3FF45CAFFFF73FFE801BC4
:1009F000B842F1D9032001B0BDE8F08359F8041CD6
:100A00008907D5D5DCE700BFD9F8002041F24013B3
:100A1000C2F34042C0F600039A5C4843B0FBF2F0D8
:100A2000D9F8001041F23012C1F30311C0F60002F0
:100A3000515C40F2080220FA01F140F20400C2F2D7
:100A400000000068C2F200021160FFF737FE0020CC
:100A500001B0BDE8F08300BF4FEA301100293FF438
:100A600016AF41F25210C0F6000040F25D3100F0C6
:100A70001FFBA0680BE700004C20C4F242200121BC
:100A80000160704710B541F20804C4F20204206806
:100A9000000658BF10BDFFF7ABFE8020A07010BD50
:100AA0002DE9F04182B0002800F0AA8004460068D9
:100AB00058B110F00F0108D141F25210C0F60000F9
:100AC00040F2651100F0F4FA206841F20006C00718
:100AD000C4F202062ED06068002818BFB0F5803F2F
:100AE00040F00E81706800F00C0004281CD0706883
:100AF00000F00C00082802D17068C00314D46068AC
:100B0000002800F0ED81B0F5A02F00F00182B0F5D3
:100B1000803F00F00182306820F48030306030681F
:100B200020F48020FBE100BF3068800302D56068BC
:100B3000002865D02078800738D52069022807D2A0
:100B4000606920280FD2706810F00C0F17D120E0D8
:100B500041F25210C0F6000040F29F1100F0A8FAD6
:100B600060692028EFD341F25210C0F600004FF424
:100B7000D07100F09DFA706810F00C0F09D0706809
:100B800000F00C00082840F091807068C00300F16C
:100B90008D803068800702D52069012830D1306807
:100BA000616920F0F80040EAC10030602078000759
:100BB0002AD42078400749D4E069032808D341F2B9
:100BC0005210C0F6000040F2AD2100F071FAE06969
:100BD00090B1716801F00C01082940F0B380012840
:100BE0000ED07068216A00F480328A4208D1616AAE
:100BF00000F47010884203D1002002B0BDE8F081FB
:100C0000012002B0BDE8F081A069022808D341F2BA
:100C10005210C0F600004FF4F07100F049FAA069DC
:100C2000002800F07B806020C4F242200121C0F83F
:100C30002014FFF71BFD0546706A800700F1B480A1
:100C4000FFF714FD401B0228F6D976E1E06805287D
:100C500000F2EA80012101FA00F010F0230F00F009
:100C6000E380F06910F0805808D1F06940F08050BE
:100C7000F061F06900F080500090009847F20007A2
:100C8000C4F200073868C00528D4386840F4807082
:100C90003860FFF7EBFC05463868C0051ED4FFF747
:100CA000E5FC401B6428F7D947E100BF2069002814
:100CB00000F0A4806020C4F24220012140F8601CB2
:100CC000FFF7D4FC054600BF306880073FF567AFEB
:100CD000FFF7CCFC401B0228F6D92EE1E068002883
:100CE00000F0C280052800F0D980012800F0DA80E9
:100CF000306A20F001003062306A20F00400D4E055
:100D0000B0F5A02F3FF4EEAE41F25210C0F6000055
:100D100040F26B1100F0CCF9E4E600BF6020C4F2B1
:100D200042200021C0F82014FFF7A0FC054600BFB8
:100D3000706A80077FF53DAFFFF798FC401B0228E3
:100D4000F6D9FAE060270228C4F242277AD1206A55
:100D500040F48030B0F5803F07D041F25210C0F629
:100D6000000040F2B62100F0A3F9606A4FEAB040FB
:100D70000F2807D341F25210C0F6000040F2B7210D
:100D800000F096F900203860FFF770FC054600BFC0
:100D90003068800140F1D680FFF768FC401B0228D4
:100DA0004FF00300F4D928E740F20800C2F2000037
:100DB000006844F6D351C1F26201A0FB0101480A68
:100DC000019000BF00BF0198411E002801913FF42F
:100DD000F0AE00BF0198411E002801913FF4E9AE3A
:100DE00000BF0198411E002801913FF4E2AE00BF10
:100DF0000198411E00280191E4D1DAE66020C4F296
:100E00004220002140F8601CFFF730FC054600BF7F
:100E1000306880077FF5CAAEFFF728FC401B022828
:100E20004FF00300F4D9E8E641F25210C0F600009A
:100E300040F20F2100F03CF9F06910F080583FF4C7
:100E400014AF1BE700203860FFF710FC044600BF1A
:100E5000306880017FF5D0AEFFF708FC001B022848
:100E60004FF00300F4D9C8E6306A20F00100306288
:100E7000306A20F004003062FFF7F8FB054641F2CB
:100E8000883700BF306A800720D5FFF7EFFB401B93
:100E9000B8424FF00300F5D9AFE600BF306A40F02A
:100EA00004003062306A40F001003062FFF7DEFB80
:100EB000054641F2883700BF306A800706D4FFF745
:100EC000D5FB401BB842F7D937E000BFB8F1000F9F
:100ED0007FF472AEF06920F08050F0616CE600BFE4
:100EE000306820F480303060306820F4802030603A
:100EF000FFF7BCFB054600BF306880037FF51AAEE4
:100F0000FFF7B4FB401B64284FF00300F4D974E6EC
:100F1000306840F480203060306840F480303060C9
:100F2000FFF7A4FB054600BF306880033FF502AE23
:100F3000FFF79CFB401B6428F6D9032002B0BDE8F4
:100F4000F08100BF206AB0F5803F14D1A06840F462
:100F50000031B1F5003F08D041F25210C0F6000058
:100F600040F2CD2100F0A4F8A068716821F40031AE
:100F700008437060206A7168626A21F47411084342
:100F80001043706001203860FFF770FB044600BF1B
:100F9000306880013FF530AEFFF768FB001B022888
:100FA0004FF00300F4D928E6411E0020B0EB116F8A
:100FB0001CBF012070474EF21002CEF200025160B9
:100FC0004EF62351CEF20001F0230B700721906002
:100FD00011607047FEE70000F0B585B041F21800DF
:100FE000C4F20200016841F2000441F01001016006
:100FF0000168C4F2010401F0100101910199016836
:10100000012241F02001016001684FF4005501F018
:101010002001019101990168012641F0040101605C
:10102000016801F0040101910199016841F0080192
:10103000016000684FF4005100F008000190019831
:101040002046FFF7F3FACDE90156002001AD0390E9
:101050000326204629460496FFF7F8F84FF440404F
:10106000CDE9010620462946FFF7F0F84FF6FF7755
:10107000A4F500602946CDE90176FFF7E7F8A4F56D
:1010800080602946CDE90176FFF7E0F805B0F0BDB4
:10109000FEE70000FFF7F6FCFEE7000070470000E7
:1010A00070470000FFF7E8BA70470000FEE7000055
:1010B0007047000090B0FFF7EDFA00240120CDE961
:1010C0000B44CDE9094406900A904FF4E0104FF428
:1010D000803102250F9006A8CDE90714CDE90D5106
:1010E000FFF7DEFC20B1EFF3108072B6FEE700BF21
:1010F0000F20CDE901054FF48060CDE9040401A87B
:1011000002210394FFF776FB20B1EFF3108072B653
:10111000FEE700BFFFF7B0FCFFF75EFF41F20004FF
:10112000C4F2010420464FF40051FFF769FAF9E7D1
:101130000000000000000000010203040607080987
:10114000010202030405060708090A0B0C0D0E0F25
:1011500010102E2E2F447269766572732F53544DE2
:101160003332463178785F48414C5F447269766526
:10117000722F5372632F73746D3332663178785FD8
:1011800068616C5F7263632E63002E2E2F44726958
:10119000766572732F53544D3332463178785F48F9
:1011A000414C5F4472697665722F5372632F73747A
:1011B0006D3332663178785F68616C5F6770696F34
:1011C0002E63002E2E2F447269766572732F53544E
:1011D0004D3332463178785F48414C5F44726976CE
:1011E00065722F5372632F73746D33326631787862
:1011F0005F68616C5F636F727465782E63000000D6
:101200002012000800000020100000002801000843
:101210003012000810000020680600004401000899
:1012200001000000100000000024F4000000000095
:04000005080000ED02
:00000001FF
