:020000040800F2
:10000000A007002089010008912E0008552B000848
:100010008D2E000891020008F93B00080000000046
:10002000000000000000000000000000492F000850
:10003000F902000800000000092F0008A12F0008A5
:10004000A3010008A3010008A3010008A301000800
:10005000A3010008A3010008A3010008A3010008F0
:10006000A3010008A3010008A3010008A3010008E0
:10007000A3010008A3010008A3010008A3010008D0
:10008000A3010008A3010008A3010008A3010008C0
:10009000A3010008A3010008A3010008A3010008B0
:1000A000A3010008A3010008A3010008A3010008A0
:1000B0001D300008A3010008A3010008A3010008E7
:1000C000A3010008A3010008A3010008A301000880
:1000D000A3010008E93B0008A3010008A3010008F0
:1000E000A3010008A3010008A301000800F002F822
:1000F00000F03AF80AA090E8000C82448344AAF188
:100100000107DA4501D100F02FF8AFF2090EBAE885
:100110000F0013F0010F18BFFB1A43F0010318473B
:100120000C4000002C400000103A24BF78C878C171
:10013000FAD8520724BF30C830C144BF04680C60ED
:10014000704700000023002400250026103A28BF35
:1001500078C1FBD8520728BF30C148BF0B60704739
:100160001FB51FBD10B510BD00F058F81146FFF7C0
:10017000F7FF03F0A3FD00F076F803B4FFF7F2FFFA
:1001800003BC00F07DF8000009488047094800479B
:10019000FEE7FEE7FEE7FEE7FEE7FEE7FEE7FEE737
:1001A000FEE7FEE704480549054A064B7047000094
:1001B00019300008ED000008A0010020A007002071
:1001C000A0030020A00300204FF0000200B513465A
:1001D00094469646203922BFA0E80C50A0E80C5067
:1001E000B1F12001BFF4F7AF090728BFA0E80C5018
:1001F00048BF0CC05DF804EB890028BF40F8042B11
:1002000008BF704748BF20F8022B11F0804F18BF7D
:1002100000F8012B7047704770477047754600F033
:100220002BF8AE4605006946534620F00700854688
:1002300018B020B5FFF7B6FFBDE820404FF000062C
:100240004FF000074FF000084FF0000BAC46ACE851
:10025000C009ACE8C009ACE8C009ACE8C00921F0AD
:1002600007018D46704710B50446AFF30080204665
:10027000BDE81040FFF781BF004870471000002024
:1002800001491820ABBEFEE72600020070470000BF
:10029000FFE7FEE780B540F60000C4F201004FF42E
:1002A0008071002200F0CAFA80BD000080B540F6DF
:1002B0000000C4F201004FF48071012200F0BEFA88
:1002C00080BD000080B582B08DF806009DF8060064
:1002D000142806DCFFE7FFF7E9FF00208DF8070090
:1002E00005E0FFF7D7FF01208DF80700FFE79DF835
:1002F000070002B080BD00007047000081B0EFF33E
:10030000108072B60090FFE7FEE7000080B582B073
:100310000020019003F000FD40F20810C2F200003E
:1003200044F22211C0F600010722322302F07EFBC4
:1003300040F20400C2F20000007802B080BD00006C
:1003400083B0019000208DF80300019890F82100FF
:1003500002280DD0FFE7019904208863FFE7019987
:10036000002081F82000FFE701208DF80B0021E03C
:1003700001980168086820F00E0008600198016883
:10038000086820F0010008600198C16B026C012030
:1003900090404860FFE70199012081F82100FFE7C4
:1003A0000199002081F82000FFE79DF803008DF8F7
:1003B0000B00FFE79DF80B0003B0704780B588B0D5
:1003C000079000208DF81B00079890F82100022864
:1003D00007D0FFE707990420886301208DF81B00F0
:1003E00076E007980168086820F00E00086007981A
:1003F0000168086820F0010008600798006808217B
:10040000C4F20201884203D1FFE70120059047E0D2
:10041000079800681C21C4F20201884203D1FFE75B
:100420001020049039E0079800683021C4F20201DE
:10043000884204D1FFE74FF4807003902AE00798C8
:1004400000684421C4F20201884204D1FFE74FF45E
:10045000805002901BE0079800685821C4F2020106
:10046000884204D1FFE74FF4803001900CE00798F8
:1004700001686C22C4F202024FF08070914208BF02
:100480004FF480100190FFE701980290FFE7029877
:100490000390FFE703980490FFE704980590FFE7B7
:1004A00005980421C4F2020108600799012081F82F
:1004B0002100FFE70799002081F82000FFE7079857
:1004C000406B20B1FFE70798416B8847FFE7FFE7E4
:1004D0009DF81B0008B080BD80B584B0039000F08B
:1004E000C5F90290039801900198013048B1FFE7E7
:1004F00040F20500C2F20000017801980844019022
:10050000FFE7FFE700F0B2F90299401A019988422B
:1005100001D2FFE7F6E704B080BD000090B00F9075
:100520000E9100200D900990FFE70E9800680D993C
:10053000C840002800F07F81FFE70D990120884026
:100540000C900E9800680C9908400B900B980C9931
:10055000884240F06C81FFE70E98406805900028C3
:1005600051D0FFE7059801283AD0FFE70598022807
:100570003FD0FFE7059803285FD0FFE705981128D3
:1005800032D0FFE70598122838D0FFE70598002100
:10059000C1F21101884236D0FFE705980021C1F26F
:1005A000120188422FD0FFE705980021C1F22101F6
:1005B000884228D0FFE705980021C1F22201884235
:1005C00021D0FFE705980021C1F2310188421AD0FD
:1005D000FFE705980021C1F23201884213D02FE0D5
:1005E0000E98C06809902CE00E98C06804300990FD
:1005F00027E00E98C0680830099022E00E98C06885
:100600000C3009901DE00E98806818B9FFE70420AF
:10061000099011E00E988068012806D1FFE70820B4
:1006200009900C980F99086105E0082009900C9832
:100630000F994861FFE7FFE703E00020099000E021
:10064000FFE70B98FF2803D8FFE70F98049003E01B
:100650000F9804300490FFE7049808900B98FF2847
:1006600004D8FFE70D988000039006E00D996FF025
:100670001F0000EB81000390FFE7039807900898A4
:100680000068079A0F2191408843099991400843D7
:10069000089908600E98C079C006002840F1C6800D
:1006A000FFE7FFE741F21800C4F20200016841F0E1
:1006B00001010160006800F0010006900698FFE764
:1006C0000D9820F003000821C4F2010140580A905F
:1006D0000D9800F0030081000F2000FA01F10A9844
:1006E00088430A900F9840F60001C4F20101884245
:1006F00003D1FFE70020029026E00F9840F600416A
:10070000C4F20101884203D1FFE70120019018E003
:100710000F9841F20001C4F20101884203D1FFE7C2
:10072000022000900AE00F9941F20042C4F2010257
:100730000420914208BF03200090FFE70098019039
:10074000FFE701980290FFE702980D9901F003017D
:10075000890000FA01F10A9808430A900A980D9955
:1007600021F003010822C4F2010288500E9880791A
:10077000C006002809D5FFE70B9A40F20841C4F2F1
:10078000010108681043086008E00B9A40F2084134
:10079000C4F20101086890430860FFE70E98807971
:1007A0008006002809D5FFE70B9A40F20C41C4F2FD
:1007B000010108681043086008E00B9A40F20C4100
:1007C000C4F20101086890430860FFE70E98807941
:1007D0008007002809D5FFE70B9A40F20441C4F2D4
:1007E000010108681043086008E00B9A40F20441D8
:1007F000C4F20101086890430860FFE70E98807911
:10080000C00748B1FFE70B9A40F20041C4F2010172
:1008100008681043086008E00B9A40F20041C4F2F7
:100820000101086890430860FFE7FFE7FFE70D98C4
:1008300001300D9079E610B07047000082B0019051
:10084000ADF802108DF801209DF8010028B1FFE7F6
:10085000BDF802000199086105E0BDF8020000043E
:1008600001990861FFE702B07047000040F298105C
:10087000C2F200000068704740F20500C2F20000BA
:10088000027840F29811C2F2000108681044086032
:100890007047000080B542F20001C4F2020108680E
:1008A00040F010000860032000F086F80F2000F0F0
:1008B00005F800F03BF8002080BD000080B582B054
:1008C000009040F20000C2F20000006840F2050112
:1008D000C2F200010A784FF47A71B1FBF2F1B0FB79
:1008E000F1F000F07FFD20B1FFE701208DF8070057
:1008F00018E000980F280DD8FFE700994FF0FF305F
:10090000002200F03FF8009840F20801C2F2000116
:10091000086003E001208DF8070003E000208DF857
:100920000700FFE79DF8070002B080BD82B0FFE737
:1009300041F21800C4F20200016841F001010160B7
:10094000006800F0010001900198FFE7FFE741F225
:100950001C00C4F20200016841F08051016000688F
:1009600000F0805000900098FFE702B07047000050
:1009700080B582B08DF807009DF9070003F03EF9BD
:1009800002B080BD80B586B08DF817000491039247
:100990000020029003F04AF902909DF9170001909F
:1009A00002980499039A02F079FA0146019803F03B
:1009B00045F906B080BD000080B582B00190019875
:1009C00003F05EF902B080BD7047000080B584B0CE
:1009D00002900191029820B9FFE701208DF80F00E5
:1009E0001BE1019842F20001C4F20201096801F022
:1009F0000701884216D9FFE742F20000C4F2020064
:100A0000016821F00701019A11430160006800F0BC
:100A100007000199884204D0FFE701208DF80F00FC
:100A2000FBE0FFE702980078800700282AD5FFE75F
:100A3000029800784007002809D5FFE741F2040139
:100A4000C4F20201086840F4E0600860FFE7029821
:100A500000780007002809D5FFE741F20401C4F23D
:100A60000201086840F460500860FFE741F20401A9
:100A7000C4F20201086820F0F000029A9268104364
:100A80000860FFE702980078C007002860D0FFE701
:100A90000298406801280ED1FFE741F20000C4F23D
:100AA000020000688003002804D4FFE701208DF8CD
:100AB0000F00B2E021E00298406802280ED1FFE763
:100AC00041F20000C4F2020000688001002804D452
:100AD000FFE701208DF80F009FE00DE041F20000DC
:100AE000C4F2020000688007002804D4FFE7012058
:100AF0008DF80F0091E0FFE7FFE741F20401C4F237
:100B00000201086820F00300029A5268104308604E
:100B1000FFF7ACFE0090FFE741F20400C4F20200D0
:100B2000006800F00C0002994968B0EB810F0ED00C
:100B3000FFE7FFF79BFE0099401A41F28931884296
:100B400004D3FFE703208DF80F0066E0E4E7FFE73A
:100B5000019842F20001C4F20201096801F00701A4
:100B6000884216D2FFE742F20000C4F20200016898
:100B700021F00701019A11430160006800F00700AD
:100B80000199884204D0FFE701208DF80F0044E06E
:100B9000FFE702980078400700280CD5FFE741F2F4
:100BA0000401C4F20201086820F4E060029AD268ED
:100BB00010430860FFE702980078000700280DD571
:100BC000FFE741F20401C4F20201086820F460501A
:100BD000029A126940EAC2000860FFE700F052F88A
:100BE00041F20401C4F202010968C9B20A0944F2DF
:100BF000F801C0F60001895CC84040F20001C2F271
:100C00000001086040F20800C2F200000068FFF72F
:100C100055FE00208DF80F00FFE79DF80F0004B08F
:100C200080BD00004C21C4F24221012008607047C1
:100C300040F20000C2F200000068704780B5FFF784
:100C4000F7FF41F20401C4F202010968C1F3022274
:100C500044F20811C0F60001895CC84080BD000064
:100C600080B5FFF7E5FF41F20401C4F20201096813
:100C7000C1F3C22244F20811C0F60001895CC840E9
:100C800080BD000086B00020059004900390029083
:100C9000019041F20400C4F202000068059005983A
:100CA00000F00C000146009100283FD0FFE70098BB
:100CB000042804D0FFE70098082806D037E041F266
:100CC0000020C0F27A00019037E00598C0F383411C
:100CD00044F21010C0F60000405C02909DF816002F
:100CE000C007C0B1FFE741F20400C4F2020000688F
:100CF000C0F3404144F22010C0F60000405C049074
:100D0000029841F20021C0F27A0148430499B0FBF5
:100D1000F1F0039007E0029840F60011C0F23D01A7
:100D200048430390FFE70398019006E0FFE741F294
:100D30000020C0F27A000190FFE7019806B07047EA
:100D400080B541F20800C4F20200006800060028E5
:100D500009D5FFE7FFF738FE41F20A01C4F20201AC
:100D600080200870FFE780BD80B586B004900498AD
:100D700020B9FFE701208DF817002EE304980078D2
:100D8000C007002800F0AE80FFE741F20400C4F283
:100D90000200006800F00C00042813D0FFE741F2C5
:100DA0000400C4F20200006800F00C0008281BD107
:100DB000FFE741F20400C4F202000068C00300280B
:100DC00012D5FFE741F20000C4F202000068800380
:100DD000002808D5FFE70498406820B9FFE7012004
:100DE0008DF81700F9E27CE0FFE704984068B0F561
:100DF000803F09D1FFE741F20001C4F20201086817
:100E000040F48030086032E00498406868B9FFE739
:100E100041F20001C4F20201086820F48030086049
:100E2000086820F48020086020E004984068B0F54D
:100E3000A02F0DD1FFE741F20001C4F202010868C2
:100E400040F480200860086840F4803008600CE0BE
:100E500041F20001C4F20201086820F48030086009
:100E6000086820F480200860FFE7FFE7FFE7FFE75E
:100E700004984068D0B1FFE7FFF7F8FC0390FFE764
:100E800041F20000C4F202000068800300280CD484
:100E9000FFE7FFF7EBFC0399401A652804D3FFE74F
:100EA00003208DF8170098E2EAE719E0FFF7DEFC6F
:100EB0000390FFE741F20000C4F2020000688003E3
:100EC00000280CD5FFE7FFF7D1FC0399401A6528ED
:100ED00004D3FFE703208DF817007EE2EAE7FFE77F
:100EE000FFE7FFE7049800788007002840F18D8035
:100EF000FFE741F20400C4F20200006810F00C0F9A
:100F000013D0FFE741F20400C4F20200006800F0D1
:100F10000C00082829D1FFE741F20400C4F20200C6
:100F20000068C003002820D4FFE741F20000C4F2AB
:100F3000020000688007002809D5FFE704980069CF
:100F4000012804D0FFE701208DF8170045E241F2A7
:100F50000001C4F20201086820F0F800049A526906
:100F600040EAC2000860FFE74EE00498006958B309
:100F7000FFE70021C4F2422101200860FFF776FC60
:100F80000390FFE741F20000C4F20200006880070E
:100F900000280CD4FFE7FFF769FC0399401A0328E7
:100FA00004D3FFE703208DF8170016E2EAE741F2C9
:100FB0000001C4F20201086820F0F800049A5269A6
:100FC00040EAC20008601EE00021C4F24221002075
:100FD0000860FFF74BFC0390FFE741F20000C4F20A
:100FE00002000068800700280CD5FFE7FFF73EFCF1
:100FF0000399401A032804D3FFE703208DF8170054
:10100000EBE1EAE7FFE7FFE7FFE704980078000776
:10101000002848D5FFE70498806918B3FFE740F23D
:101020008041C4F2422101200860FFF71FFC0390B9
:10103000FFE741F22400C4F20200006880070028A4
:101040000CD4FFE7FFF712FC0399401A032804D3DE
:10105000FFE703208DF81700BFE1EAE7012001F068
:1010600055FF1FE040F28041C4F242210020086099
:10107000FFF7FCFB0390FFE741F22400C4F20200FB
:101080000068800700280CD5FFE7FFF7EFFB039906
:10109000401A032804D3FFE703208DF817009CE1D2
:1010A000EAE7FFE7FFE7049800784007002840F1EF
:1010B000D880FFE700208DF8070041F21C00C4F241
:1010C00002000068C000002813D4FFE7FFE741F2E8
:1010D0001C00C4F20200016841F080510160006808
:1010E00000F0805000900098FFE701208DF8070085
:1010F000FFE747F20000C4F200000068C0050028C6
:1011000022D4FFE747F20001C4F20001086840F46E
:1011100080700860FFF7AAFB0390FFE747F200002A
:10112000C4F200000068C00500280CD4FFE7FFF7F8
:101130009DFB0399401A652804D3FFE703208DF82F
:1011400017004AE1EAE7FFE7FFE70498C0680128D3
:1011500009D1FFE741F22001C4F20201086840F022
:101160000100086031E00498C06868B9FFE741F207
:101170002001C4F20201086820F00100086008683C
:1011800020F0040008601FE00498C06805280DD115
:10119000FFE741F22001C4F20201086840F00400B8
:1011A0000860086840F0010008600CE041F220018E
:1011B000C4F20201086820F001000860086820F00D
:1011C00004000860FFE7FFE7FFE7FFE70498C06857
:1011D000E0B1FFE7FFF74AFB0390FFE741F2200091
:1011E000C4F202000068800700280ED4FFE7FFF772
:1011F0003DFB0399401A41F28931884204D3FFE74D
:1012000003208DF81700E8E0E8E71BE0FFF72EFB6E
:101210000390FFE741F22000C4F20200006880075B
:1012200000280ED5FFE7FFF721FB0399401A41F292
:101230008931884204D3FFE703208DF81700CCE002
:10124000E8E7FFE79DF80700012809D1FFE741F231
:101250001C01C4F20201086820F080500860FFE71A
:10126000FFE70498C069002800F0B380FFE741F26F
:101270000400C4F20200006800F00C00082800F02E
:101280008280FFE70498C06902285CD1FFE76021F3
:10129000C4F2422100200860FFF7E8FA0390FFE75C
:1012A00041F20000C4F202000068800100280CD561
:1012B000FFE7FFF7DBFA0399401A032804D3FFE79F
:1012C00003208DF8170088E0EAE70498006AB0F57B
:1012D000803F0CD1FFE741F20401C4F2020108682B
:1012E00020F40030049A926810430860FFE741F24E
:1012F0000401C4F20201086820F47410049B1A6A05
:101300005B6A1A43104308606021C4F24221012045
:101310000860FFF7ABFA0390FFE741F20000C4F268
:1013200002000068800100280CD4FFE7FFF79EFA56
:101330000399401A032804D3FFE703208DF8170010
:101340004BE0EAE71EE06021C4F242210020086081
:10135000FFF78CFA0390FFE741F20000C4F20200AD
:101360000068800100280CD5FFE7FFF77FFA03999A
:10137000401A032804D3FFE703208DF817002CE060
:10138000EAE7FFE724E00498C069012804D1FFE7F9
:1013900001208DF8170020E041F20400C4F20200A1
:1013A00000680290029800F480300499096A88422B
:1013B00008D1FFE7029800F470100499496A884246
:1013C00004D0FFE701208DF8170006E0FFE7FFE7F4
:1013D000FFE700208DF81700FFE79DF8170006B023
:1013E00080BD000080B582B00190019801F0AEFD93
:1013F00002B080BD81B0009001B0704781B0009014
:1014000001B0704785B003900291FFE7039890F810
:101410003C00012804D1FFE702208DF813005BE0B7
:101420000399012081F83C00FFE7FFE703990220C0
:1014300081F83D00039800684068019003980068B7
:1014400080680090019820F0700001900298016877
:10145000019808430190019803990968486003982E
:10146000006842F60041C4F20101884218D0FFE74B
:1014700003980068B0F1804F12D0FFE7039800682E
:1014800040F20041C4F20001884209D0FFE703980E
:10149000006840F60001C4F2000188420ED1FFE767
:1014A000009820F08000009002984168009808435E
:1014B00000900098039909688860FFE7039901206C
:1014C00081F83D00FFE70399002081F83C00FFE729
:1014D00000208DF81300FFE79DF8130005B070475A
:1014E00080B582B00090009820B9FFE701208DF808
:1014F00007003FE0009890F83D0040B9FFE70099F1
:10150000002081F83C00009800F038F8FFE70099CF
:10151000022081F83D00009951F8040B01F086FD8E
:101520000099012081F84600FFE70099012081F829
:101530003E00009981F83F00009981F84000009931
:1015400081F84100FFE7FFE70099012081F84200A0
:10155000009981F84300009981F84400009981F8CE
:101560004500FFE70099012081F83D0000208DF83B
:101570000700FFE79DF8070002B080BD82B0019030
:101580000198006840F20041C4F20001884210D185
:10159000FFE7FFE741F21C00C4F20200016841F0DE
:1015A00002010160006800F0020000900098FFE76F
:1015B000FFE702B07047000080B586B00490039149
:1015C00000208DF80B00FFE7049890F83C000128FC
:1015D00004D1FFE702208DF81700ABE00499012049
:1015E00081F83C00FFE7FFE70499022081F83D0005
:1015F0000498006880680190019820F077000190BD
:10160000019820F47F40019001980499096888604E
:10161000039800680090002872D0FFE70098102817
:101620006ED0FFE7009820286AD0FFE700983028A6
:1016300066D0FFE70098402855D0FFE70098502873
:1016400037D0FFE70098602840D0FFE70098702867
:101650000BD0FFE70098B0F5805F05D0FFE700985A
:10166000B0F5005F16D052E055E004980068039B87
:101670005A689968DB6801F06DFD0498006880681D
:101680000190019840F07700019001980499096851
:10169000886040E004980068039B5A689968DB689A
:1016A00001F058FD04980168886840F48040886023
:1016B00031E004980068039A5168D26801F006FF8F
:1016C00004980068502101F05FFD24E00498006850
:1016D000039A5168D26801F085FF04980068602180
:1016E00001F052FD17E004980068039A5168D2682F
:1016F00001F0ECFE04980068402101F045FD0AE08D
:10170000049800680399096801F03EFD03E0012098
:101710008DF80B00FFE70499012081F83D00FFE7F9
:101720000499002081F83C00FFE79DF80B008DF83C
:101730001700FFE79DF8170006B080BD80B582B0A6
:101740000190019840F27801C2F20001884240F015
:10175000B580FFE70198007F022840F0AE80FFE7E8
:1017600040F27600C2F200000078F0B9FFE701987D
:10177000042100F01FFE40F27201C2F20001088055
:1017800040F27601C2F2000101200870FFE70198E3
:101790000168086A20F0A000086201980168086AE0
:1017A00040F020000862FFE786E040F27600C2F2D7
:1017B0000000007801287DD1FFE70198042100F0A6
:1017C000F9FD014640F27400C2F200000180019967
:1017D0000A6800215162008840F27201C2F20001E1
:1017E0000988884211DDFFE740F27400C2F2000070
:1017F000008840F27201C2F200010988401A40F2EA
:101800007001C2F20001088020E040F27200C2F2D2
:101810000000008840F27401C2F200010988884289
:1018200012DDFFE740F27200C2F20000008840F2D1
:101830007401C2F200010988C043084440F27001FB
:10184000C2F20001088000E0FFE7FFE740F270000D
:10185000C2F20000008802F06BFB44F29631C3F63E
:101860000B5102F07DFB4FF0804102F083FA02F051
:1018700043FB40F20401C2F20001087040F276011D
:10188000C2F2000100200870FFE701980168086AB1
:1018900020F0A000086201980168086A0862FFE76A
:1018A00040F27800C2F200000168C86820F002002F
:1018B000C86000E0FFE7FFE7FFE7FFE702B080BD99
:1018C00080B586B004900391029200208DF8070045
:1018D000FFE7049890F83C00012804D1FFE70220BC
:1018E0008DF8170080E00499012081F83C00FFE7A3
:1018F000FFE70298B0B9FFE704980068039B1968F6
:101900005A68DB6801F00AFE04980168886920F0D3
:101910000C00886103988268049801688869104304
:10192000886156E00298042817D1FFE70498006800
:10193000039B19685A68DB6801F07EFE0498016811
:10194000886920F44060886103988268049801687F
:10195000886940EA022088613AE00298082816D196
:10196000FFE704980068039B19685A68DB6801F078
:1019700099FE04980168C86920F00C00C8610398BA
:10198000826804980168C8691043C8611FE0029822
:101990000C2817D1FFE704980068039B19685A6860
:1019A000DB6801F0B5FE04980168C86920F4406066
:1019B000C8610398826804980168C86940EA0220F7
:1019C000C86103E001208DF80700FFE7FFE7FFE7AC
:1019D000FFE7FFE70499002081F83C00FFE79DF84E
:1019E00007008DF81700FFE79DF8170006B080BDCF
:1019F00080B582B00090009820B9FFE701208DF8F3
:101A000007003FE0009890F83D0040B9FFE70099DB
:101A1000002081F83C00009800F038F8FFE70099BA
:101A2000022081F83D00009951F8040B01F0FEFA04
:101A30000099012081F84600FFE70099012081F814
:101A40003E00009981F83F00009981F8400000991C
:101A500081F84100FFE7FFE70099012081F842008B
:101A6000009981F84300009981F84400009981F8B9
:101A70004500FFE70099012081F83D0000208DF826
:101A80000700FFE79DF8070002B080BD80B58AB06F
:101A9000099000200890079006900590099800682A
:101AA000B0F1804F35D1FFE7FFE741F21C00C4F2EF
:101AB0000200016841F001010160006800F00100CE
:101AC00004900498FFE7FFE741F21800C4F2020017
:101AD000016841F004010160006800F00400039017
:101AE0000398FFE7022005900020019006900790E0
:101AF00040F60000C4F2010005A9FEF70FFD019AAF
:101B00001C2002901146FEF73DFF0298FEF730FFC1
:101B1000FFE70AB080BD000080B592B010900F9131
:101B200000208DF83B000F9828B9FFE7109890F837
:101B30003E000B901CE00F98042805D1FFE7109899
:101B400090F83F000A9010E00F98082805D1FFE7B1
:101B5000109890F84000099004E0109890F8410027
:101B60000990FFE709980A90FFE70A980B90FFE7B2
:101B70000B988DF833000F9828B9FFE7109890F86C
:101B8000420008901CE00F98042805D1FFE7109848
:101B900090F84300079010E00F98082805D1FFE760
:101BA000109890F84400069004E0109890F84500D2
:101BB0000690FFE706980790FFE707980890FFE771
:101BC00008988DF832009DF83300012805D1FFE711
:101BD0009DF83200012804D0FFE701208DF847006E
:101BE000C6E00F9828B9FFE71099022081F83E005F
:101BF0001EE00F98042806D1FFE71099022081F813
:101C00003F00059012E00F98082806D1FFE71099D1
:101C1000022081F84000049005E01099022081F82C
:101C200041000490FFE704980590FFE70598FFE75F
:101C30000F9828B9FFE71099022081F842001EE0B2
:101C40000F98042806D1FFE71099022081F843007D
:101C5000039012E00F98082806D1FFE710990220A0
:101C600081F84400029005E01099022081F84500B7
:101C70000290FFE702980390FFE70398FFE70F98B1
:101C800001900C2825D80199DFE801F007232323D0
:101C90000E232323152323231C0010980168C868F2
:101CA00040F00200C86018E010980168C86840F071
:101CB0000400C86011E010980168C86840F008008E
:101CC000C8600AE010980168C86840F01000C86059
:101CD00003E001208DF83B00FFE79DF83B00002862
:101CE00041D1FFE7109800680F99012201F016FA20
:101CF0001098006842F60041C4F20101884218D0F1
:101D0000FFE710980068B0F1804F12D0FFE71098FD
:101D1000006840F20041C4F20001884209D0FFE7A8
:101D20001098006840F60001C4F20001884212D108
:101D3000FFE710980068806800F007000D900D988C
:101D4000062807D0FFE710980168086840F00100F6
:101D50000860FFE706E010980168086840F001009D
:101D60000860FFE7FFE79DF83B008DF84700FFE7BD
:101D70009DF8470012B080BD80B582B001900198F7
:101D80000068006900F002010020B0EB510F28D07C
:101D9000FFE701980068C06800F002010020B0EB86
:101DA000510F1DD0FFE7019801686FF00200086134
:101DB000019901200877019800688069800720B1A7
:101DC000FFE70198FFF7BAFC06E0019800F042F93E
:101DD000019800F037FAFFE7019900200877FFE744
:101DE000FFE701980068006900F004010020B0EBF3
:101DF000910F29D0FFE701980068C06800F0040146
:101E00000020B0EB910F1ED0FFE7019801686FF042
:101E10000400086101990220087701980068806930
:101E200010F4407F04D0FFE70198FFF787FC06E03D
:101E3000019800F00FF9019800F004FAFFE701990A
:101E400000200877FFE7FFE701980068006900F0CD
:101E500008010020B0EBD10F28D0FFE701980068FF
:101E6000C06800F008010020B0EBD10F1DD0FFE7E3
:101E7000019801686FF00800086101990420087753
:101E800001980068C069800720B1FFE70198FFF75B
:101E900055FC06E0019800F0DDF8019800F0D2F959
:101EA000FFE7019900200877FFE7FFE70198006846
:101EB000006900F010010020B0EB111F29D0FFE7EE
:101EC00001980068C06800F010010020B0EB111FFD
:101ED0001ED0FFE7019801686FF0100008610199BA
:101EE0000820087701980068C06910F4407F04D08A
:101EF000FFE70198FFF722FC06E0019800F0AAF83E
:101F0000019800F09FF9FFE7019900200877FFE7AB
:101F1000FFE7019800680069C00780B1FFE70198FA
:101F20000068C068C00748B1FFE7019801686FF01A
:101F300001000861019800F039FAFFE7FFE7019816
:101F400000680069C1B20020B0EBD11F13D0FFE7D9
:101F500001980068C068C1B20020B0EBD11F09D061
:101F6000FFE7019801686FF0800008610198FFF7B2
:101F700041FAFFE7FFE701980068006900F04001BF
:101F80000020B0EB911F14D0FFE701980068C068F3
:101F900000F040010020B0EB911F09D0FFE701984D
:101FA00001686FF040000861019800F02FFAFFE728
:101FB000FFE701980068006900F020010020B0EB05
:101FC000511F14D0FFE701980068C06800F020019D
:101FD0000020B0EB511F09D0FFE7019801686FF0B6
:101FE000200008610198FFF709FAFFE7FFE702B058
:101FF00080BD000080B586B005900020049003905D
:10200000029001900598006840F20041C4F200017E
:1020100088421CD1FFE7FFE741F21800C4F202003A
:10202000016841F004010160006800F004000090C4
:102030000098FFE78020019002200290049040F673
:102040000000C4F2010001A9FEF768FAFFE706B03C
:1020500080BD000081B0009001B0704780B586B0AF
:1020600004900391029200208DF80700FFE7049886
:1020700090F83C00012804D1FFE702208DF81700FA
:1020800089E00499012081F83C00FFE7FFE702980E
:1020900000900C2800F270800099DFE801F0076DD5
:1020A0006D6D206D6D6D3A6D6D6D53000498006817
:1020B000039901F07FF804980168886940F00800EE
:1020C000886104980168886920F004008861039899
:1020D00002690498016888691043886150E0049897
:1020E0000068039901F0CEF804980168886940F40B
:1020F0000060886104980168886920F480608861C4
:102100000398026904980168886940EA022088619E
:1021100036E004980068039901F020F904980168FA
:10212000C86940F00800C86104980168C86920F0D7
:102130000400C8610398026904980168C8691043E3
:10214000C8611DE004980068039901F073F90498D0
:102150000168C86940F40060C86104980168C869F2
:1021600020F48060C8610398026904980168C86916
:1021700040EA0220C86103E001208DF80700FFE774
:10218000FFE70499002081F83C00FFE79DF8070075
:102190008DF81700FFE79DF8170006B080BD00001E
:1021A00080B582B00090009820B9FFE701208DF83B
:1021B00007003FE0009890F83D0040B9FFE7009924
:1021C000002081F83C00009800F038F8FFE7009903
:1021D000022081F83D00009951F8040B00F026FF21
:1021E0000099012081F84600FFE70099012081F85D
:1021F0003E00009981F83F00009981F84000009965
:1022000081F84100FFE7FFE70099012081F84200D3
:10221000009981F84300009981F84400009981F801
:102220004500FFE70099012081F83D0000208DF86E
:102230000700FFE79DF8070002B080BD81B0009065
:1022400001B0704781B0009001B0704780B58AB08E
:1022500008900791079828B9FFE7089890F83E0082
:1022600005901CE00798042805D1FFE7089890F82E
:102270003F00049010E00798082805D1FFE7089870
:1022800090F84000039004E0089890F84100039013
:10229000FFE703980490FFE704980590FFE705988F
:1022A000012804D0FFE701208DF827007AE0079885
:1022B00028B9FFE70899022081F83E001EE0079840
:1022C000042806D1FFE70899022081F83F00029018
:1022D00012E00798082806D1FFE70899022081F844
:1022E0004000019005E00899022081F8410001902A
:1022F000FFE701980290FFE70298FFE7089800685F
:102300000799012200F00AFF0898006842F6004190
:10231000C4F20101884207D1FFE708980168486CC0
:1023200040F400404864FFE70898006842F6004126
:10233000C4F20101884218D0FFE708980068B0F1A4
:10234000804F12D0FFE70898006840F20041C4F2C5
:102350000001884209D0FFE70898006840F60001B4
:10236000C4F20001884212D1FFE708980068806833
:1023700000F0070006900698062807D0FFE70898A7
:102380000168086840F001000860FFE706E008986F
:102390000168086840F001000860FFE700208DF840
:1023A0002700FFE79DF827000AB080BD81B00090AC
:1023B00001B0704784B00390029100200190029810
:1023C00000900C281DD80099DFE801F0071B1B1BAB
:1023D0000C1B1B1B111B1B1B160003980068406B7A
:1023E00001900FE003980068806B01900AE0039869
:1023F0000068C06B019005E003980068006C0190D4
:1024000000E0FFE7019804B07047000081B0009041
:1024100001B0704782B00190ADF8021002B0704771
:1024200081B0009001B0704780B592B011901198C2
:1024300000680068109011980068C0680F901198AB
:10244000006840690E9000200D900C90109800F0EC
:102450000F000D900D9888B9FFE79DF840008006A9
:1024600000280AD5FFE79DF83C008006002804D527
:10247000FFE7119801F0F0F9E9E1FFE70D98002876
:1024800000F0C280FFE79DF83800C00738B9FFE7C9
:10249000BDF83C0010F4907F00F0B680FFE79DF897
:1024A0004000C00758B1FFE79DF83D00C00730B1BC
:1024B000FFE71199486C40F001004864FFE79DF880
:1024C0004000400700280BD5FFE79DF83800C00703
:1024D00030B1FFE71199486C40F002004864FFE713
:1024E0009DF84000800700280BD5FFE79DF83800D5
:1024F000C00730B1FFE71199486C40F00400486410
:10250000FFE79DF840000007002811D5FFE79DF880
:102510003C008006002805D4FFE79DF83800C0077E
:1025200030B1FFE71199486C40F008004864FFE7BC
:102530001198406C002866D0FFE79DF840008006A7
:1025400000280AD5FFE79DF83C008006002804D546
:10255000FFE7119801F080F9FFE7119800684069E2
:10256000C0F380100C901198406C0007002804D430
:10257000FFE70C9800283ED0FFE7119801F00EF914
:10258000119800684069400600282FD5FFE7FFE753
:10259000FFE71198006850E8050F20F040000B900D
:1025A000FFE70B991198026842E805100028F0D166
:1025B000FFE7FFE71198C06B98B1FFE71198C16B77
:1025C00043F27D70C0F6000048631198C06BFDF7C0
:1025D000F5FE28B1FFE71198C06B416B8847FFE714
:1025E00003E01198FFF71CFFFFE703E01198FFF7E6
:1025F00017FFFFE706E01198FFF712FF119900207F
:102600004864FFE7FFE722E11198006B012840F0E2
:10261000FE80FFE79DF84000C006002840F1F780EB
:10262000FFE79DF83C00C006002840F1F080FFE77E
:10263000FFE700200A901198006800680A9011983E
:10264000006840680A900A98FFE71198006840699E
:102650004006002840F18180FFE71198C06B0068B8
:102660004068ADF82600BDF82600002874D0FFE7CA
:10267000BDF826001199898D88426DDAFFE7BDF813
:1026800026001199C8851198C06B8069202858D000
:10269000FFE7FFE7FFE71198006850E8030F20F419
:1026A00080700890FFE708991198026842E80310CB
:1026B0000028F0D1FFE7FFE7FFE7FFE71198006888
:1026C00050E8050F20F001000790FFE707991198E7
:1026D000026842E805100028F0D1FFE7FFE7FFE7B6
:1026E000FFE71198006850E8050F20F040000690C1
:1026F000FFE706991198026842E805100028F0D11A
:10270000FFE7FFE71199202081F84200119900208E
:102710000863FFE7FFE71198006850E8030F20F017
:1027200010000590FFE705991198026842E8031030
:102730000028F0D1FFE7FFE71198C06BFDF700FE1E
:10274000FFE71199022048631198818DC28D891A83
:1027500089B2FFF75FFEFFE779E01199888DC98D97
:10276000401AADF812001198C08D00284ED0FFE736
:10277000BDF81200002849D0FFE7FFE7FFE71198F6
:10278000006850E8030F20F490700390FFE703996E
:102790001198026842E803100028F0D1FFE7FFE734
:1027A000FFE7FFE71198006850E8050F20F00100EF
:1027B0000290FFE702991198026842E8051000288C
:1027C000F0D1FFE7FFE71199202081F8420011992D
:1027D00000200863FFE7FFE71198006850E8030F47
:1027E00020F010000190FFE701991198026842E87B
:1027F00003100028F0D1FFE7FFE71199022048639A
:102800001198BDF81210FFF705FEFFE71FE09DF8D5
:102810004000000600280AD5FFE79DF83C000006AE
:10282000002804D5FFE7119801F02AF90FE09DF880
:102830004000400600280AD5FFE79DF83C0040060E
:10284000002804D5FFE7119800F0F2FFFFE712B06F
:1028500080BD000080B582B00090009820B9FFE7ED
:1028600001208DF8070040E00098806908B1FFE77B
:1028700000E0FFE7009890F8410040B9FFE70099B9
:10288000002081F84000009800F034F8FFE700993C
:10289000242081F8410000980168C86820F40050A5
:1028A000C860009801F08EF800980168086920F46B
:1028B0009040086100980168486920F02A0048614A
:1028C00000980168C86840F40050C8600099002072
:1028D0004864009A202182F84110009A82F8421040
:1028E000009948638DF80700FFE79DF8070002B0E4
:1028F00080BD000080B590B00F9000200E900D902C
:102900000C900B900F98006843F60001C4F201018F
:10291000884243D1FFE7FFE741F21800C4F202000A
:10292000016841F480410160006800F480400A9031
:102930000A98FFE7FFE741F21800C4F202000168BD
:1029400041F004010160006800F00400099009985A
:10295000FFE74FF400700B9002200C9003200E90C4
:1029600040F60000C4F2010003900BA90491FDF7AA
:10297000D5FD039804994FF480620B9200220592D2
:102980000C920D92FDF7CAFD059A2520069011467E
:10299000FDF7F8FF0698FDF7EBFF40E00F980068A1
:1029A00044F20041C4F20001884237D1FFE7FFE75B
:1029B00041F21C00C4F20200016841F400310160E0
:1029C000006800F4003008900898FFE7FFE741F244
:1029D0001800C4F20200016841F0040101600068BF
:1029E00000F0040007900798FFE704200B900220F6
:1029F0000C9003200E9040F60000C4F201000190FC
:102A00000BA90291FDF78AFD0198029908220B9209
:102A100000220C920D92FDF781FDFFE7FFE710B059
:102A200080BD000081B0009001B0704780B58AB0D1
:102A300008900791ADF81A2005930020029008989D
:102A400090F84100202878D1FFE7079820B1FFE7F0
:102A5000BDF81A0020B9FFE701208DF8270070E0CB
:102A60000899002048640899212081F84100FDF769
:102A7000FDFE0290BDF81A0008998884BDF81A007E
:102A80000899C88408988068B0F5805F09D1FFE78D
:102A90000898006928B9FFE7002004900798039080
:102AA00004E00798049000200390FFE7FFE70898F0
:102AB000C08C58B3FFE70898029B05996A461160DD
:102AC0008021002201F026F820B1FFE703208DF8D5
:102AD000270036E0049858B9FFE7039800886FF3A1
:102AE0005F2008990968486003980230039008E065
:102AF00004980078089909684860049801300490A7
:102B0000FFE70899C88C0138C884D0E70898029B71
:102B100005996A4611604021002200F0FBFF20B1B8
:102B2000FFE703208DF827000BE00899202081F8AB
:102B3000410000208DF8270003E002208DF82700D7
:102B4000FFE79DF827000AB080BD000081B000902B
:102B500001B07047FFE7FEE780B590B000200F900E
:102B60000E900D900C90FFE741F21800C4F20200A5
:102B7000016841F010010160006800F010000B9046
:102B80000B98FFE7FFE741F21800C4F2020001686A
:102B900041F020010160006800F020000A900A98CE
:102BA000FFE7FFE741F21800C4F20200016841F0BC
:102BB00004010160006800F0040009900998FFE733
:102BC000FFE741F21800C4F20200016841F0080179
:102BD0000160006800F0080008900898FFE740F6E0
:102BE0000000C4F20100069042F22011002203927C
:102BF000FDF724FE4FF460400C90032001900D90EF
:102C000041F20000C4F201000CA90791FDF786FC17
:102C1000019A069807994DF651030C930D92FDF712
:102C20007DFC0698079920220C92012204920D92B5
:102C3000022305930E930F92FDF770FC01980799FC
:102C40004EF6FF720C920D9040F60040C4F2010067
:102C50000290FDF763FC0298039A07994FF48053A2
:102C60000C930D920E92FDF759FC039BDDF810C0FA
:102C7000059A069807994FF4807ECDF830E0CDF89C
:102C800034C00E930F92FDF749FC049B059A0698F9
:102C900007994FF4005CCDF830C00D930E920F925F
:102CA000FDF73CFC10B080BD80B588B000210191DB
:102CB00007910691059104910391029140F27800E9
:102CC000C2F200004FF08042026047224260816001
:102CD0004FF6FE72C26001618161FEF789FE18B194
:102CE000FFE7FDF70BFBFFE700200690079040F29F
:102CF0007800C2F2000006A9FEF784FB18B1FFE7D6
:102D0000FDF7FCFAFFE700200290012103910490F7
:102D1000059040F27800C2F2000002A90422FEF7FA
:102D2000CFFD18B1FFE7FDF7E9FAFFE708B080BD76
:102D300080B58EB0002100910D910C910B910A91FC
:102D400009910891079106910591049103910291CF
:102D5000019140F2C000C2F2000040F20042C4F211
:102D600000020260416081604DF65902C26001615B
:102D700080218161FEF7B4FB18B1FFE7FDF7BEFAD1
:102D8000FFE74FF480500A9040F2C000C2F200000A
:102D90000AA9FEF711FC18B1FFE7FDF7AFFAFFE74C
:102DA00040F2C000C2F20000FFF7FAF918B1FFE7E5
:102DB000FDF7A4FAFFE700200890099040F2C00058
:102DC000C2F2000008A9FEF71DFB18B1FFE7FDF7EE
:102DD00095FAFFE760200190002002900390059093
:102DE00040F2C000C2F2000001A90422FFF736F948
:102DF00018B1FFE7FDF782FAFFE740F2C000C2F228
:102E00000000FFF7F7F80EB080BD000080B582B07B
:102E100040F20810C2F20000019043F60001C4F233
:102E2000010101604FF4E131416000218160C16026
:102E300001610C2242618161C161FFF70BFD18B194
:102E4000FFE7FDF75BFAFFE702B080BD80B582B017
:102E500040F25010C2F20000019044F20041C4F26E
:102E6000000101604FF4E131416000218160C160E7
:102E700001610C2242618161C161FFF7EBFC18B175
:102E8000FFE7FDF73BFAFFE702B080BDFFE7FEE793
:102E900080B5FDF755FFFFE7FEE7000088B007901B
:102EA00006910592079800F0070004900498C0F17D
:102EB0000700052803D3FFE70420019004E00498ED
:102EC000C0F107000190FFE70198039004980430D7
:102ED000062803D8FFE70020009003E00498033899
:102EE0000090FFE70098029006980399012202FAE9
:102EF00001F101390840029B984005999A40013A36
:102F00001140084308B070477047000082B001903C
:102F1000019840F20001C2F200010968C90844F6B4
:102F2000D352C1F26202A1FB0221890948430090F9
:102F3000FFE700BFFFE70098411E00910028F8D18D
:102F4000FFE702B0704700007047000080B582B014
:102F5000009000980138B0F1807F03D3FFE7012093
:102F6000019019E0009801384EF21401CEF20001F0
:102F700008604FF0FF300F2100F060FE4EF21801A4
:102F8000CEF20001002008604EF21002CEF20002E4
:102F9000072111600190FFE7019802B080BD000099
:102FA00080B5FDF769FC80BD80B590B006A80090A3
:102FB0002821FDF709F90098002305930493039352
:102FC00002930193012206924FF4803107910893F6
:102FD0000A9202220D920E914FF4E0110F91FDF72B
:102FE000C3FE18B1FFE7FDF789F9FFE70F20019055
:102FF00002210291002003904FF480620492059018
:1030000001A8FDF7E3FC18B1FFE7FDF777F9FFE74B
:10301000FDF708FE10B080BD7047000080B540F29B
:103020007800C2F20000FEF7A7FE80BD83B00290D8
:103030000191029800680090029842F60041C4F2A3
:103040000101884215D0FFE70298B0F1804F10D0FF
:10305000FFE7029840F20041C4F20001884208D024
:10306000FFE7029840F60001C4F2000188420AD14D
:10307000FFE7009820F070000090019841680098E8
:1030800008430090FFE7029842F60041C4F20101B4
:10309000884215D0FFE70298B0F1804F10D0FFE7CB
:1030A000029840F20041C4F20001884208D0FFE7D4
:1030B000029840F60001C4F2000188420AD1FFE7FD
:1030C000009820F4407000900198C168009808436F
:1030D0000090FFE7009820F08000019949690843BB
:1030E0000090009802990860019880680299C8626F
:1030F0000198006802998862029842F60041C4F281
:103100000101884205D1FFE701980069029908632F
:10311000FFE702990120486103B0704784B0039033
:1031200002910192029800F01F0101208840009056
:10313000009A0399086A904308620198029901F085
:103140001F0100FA01F20399086A1043086204B0F3
:103150007047000085B00490039102920193049897
:1031600080680090009820F47F40009003980299B6
:10317000019A41EA02210143009808430090009817
:103180000499886005B0704783B00290019102985D
:1031900080680090009820F07000009001980099DD
:1031A000084340F00700009000980299886003B03F
:1031B0007047000085B0049003910498006A019064
:1031C0000499086A20F001000862049840680090A1
:1031D000049880690290029820F070000290029892
:1031E00020F00300029003980168029808430290BF
:1031F000019820F00200019003988168019808432B
:103200000190049842F60041C4F2010188420ED1B7
:10321000FFE7019820F0080001900398C168019829
:1032200008430190019820F004000190FFE7049802
:1032300042F60041C4F20101884213D1FFE7009831
:1032400020F480700090009820F4007000900398A3
:1032500041690098084300900398816900980843E9
:103260000090FFE7009804994860029804998861EB
:10327000039840680499486301980499086205B06E
:103280007047000085B0049003910498006A019093
:103290000499086A20F010000862049840680090C1
:1032A000049880690290029820F4E040029002980D
:1032B00020F44070029003980168029840EA0120CF
:1032C0000290019820F020000190039881680198F5
:1032D00040EA01100190049842F60041C4F2010155
:1032E00088420FD1FFE7019820F0800001900398F9
:1032F000C168019840EA01100190019820F0400057
:103300000190FFE7049842F60041C4F201018842AF
:1033100015D1FFE7009820F480600090009820F419
:103320000060009003984169009840EA8100009095
:1033300003988169009840EA81000090FFE70098B7
:103340000499486002980499886103984068049938
:10335000886301980499086205B0704785B00490AD
:1033600003910498006A01900499086A20F480701F
:1033700008620498406800900498C069029002981E
:1033800020F070000290029820F003000290039851
:103390000168029808430290019820F4007001909F
:1033A00003988168019840EA01200190049842F650
:1033B0000041C4F2010188420FD1FFE7019820F4D7
:1033C000006001900398C168019840EA01200190D3
:1033D000019820F480600190FFE7049842F60041D4
:1033E000C4F20101884215D1FFE7009820F4805013
:1033F0000090009820F400500090039841690098D4
:1034000040EA0110009003988169009840EA011099
:103410000090FFE700980499486002980499C861F9
:10342000039840680499C86301980499086205B03C
:103430007047000085B0049003910498006A0190E1
:103440000499086A20F4805008620498406800904B
:103450000498C0690290029820F4E040029002981B
:1034600020F44070029003980168029840EA01201D
:103470000290019820F4005001900398816801980F
:1034800040EA01300190049842F60041C4F2010183
:1034900088420BD1FFE7009820F480400090039809
:1034A0004169009840EA81100090FFE70098049974
:1034B000486002980499C8610398406804990864B8
:1034C00001980499086205B07047000085B0049027
:1034D000039102920498006A00900499086A20F00F
:1034E00001000862049880690190019820F0F000C2
:1034F00001900299019840EA01100190009820F093
:103500000A000090039900980843009001980499DC
:10351000886100980499086205B0704787B00690EA
:103520000591049203930698006A01900699086A2F
:1035300020F0010008620698806902900699012037
:1035400042F60042C4F20102914200901CD0FFE713
:1035500006990120B1F1804F009015D0FFE7069940
:10356000012040F20042C4F20002914200900BD0D0
:10357000FFE706984FF60001CBF6FF710844B0FA5A
:1035800080F040090090FFE70098C00748B1FFE7CE
:10359000029820F0030002900499029808430290D8
:1035A00004E0029840F001000290FFE7029820F04A
:1035B000F000029003980001C1B202980843029003
:1035C000019820F00A000190059800F00A01019886
:1035D000084301900298069988610198069908624B
:1035E00007B0704785B00490039102920498006A76
:1035F00000900499086A20F010000862049880691D
:103600000190019820F4704001900299019840EADD
:1036100001300190009820F0A000009003990098DC
:1036200040EA01100090019804998861009804997B
:10363000086205B07047000086B0059004910392BF
:1036400002930598006A00900599086A20F010001E
:103650000862059880690190019820F440700190FB
:103660000399019840EA01200190019820F47040EC
:1036700001900298000381B20198084301900098DC
:1036800020F0A0000090049800F00A01009840EAA1
:1036900001100090019805998861009805990862C9
:1036A00006B0704786B00590049103920293059886
:1036B000006A00900599086A20F4807008620598F5
:1036C000C0690190019820F00300019003990198CE
:1036D00008430190019820F0F00001900298000149
:1036E000C1B2019808430190009820F40070009046
:1036F000049800F00201009840EA0120009001982F
:103700000599C86100980599086206B070470000E5
:1037100086B005900491039202930598006A009088
:103720000599086A20F4805008620598C0690190E4
:10373000019820F4407001900399019840EA01201B
:103740000190019820F4704001900298000381B22A
:10375000019808430190009820F4005000900498CC
:1037600000F00201009840EA0130009001980599AC
:10377000C86100980599086206B0704780B582B0AC
:1037800001900198406A009000990020C885009936
:10379000C8840098FEF744FE02B080BD84B0039058
:1037A000FFE7FFE70398006850E8030F20F49070EC
:1037B0000290FFE702990398026842E8031000288C
:1037C000F0D1FFE7FFE7FFE7FFE70398006850E865
:1037D000050F20F001000190FFE7019903980268AE
:1037E00042E805100028F0D1FFE7FFE70398006BDF
:1037F000012814D1FFE7FFE7FFE70398006850E8CE
:10380000030F20F010000090FFE700990398026872
:1038100042E803100028F0D1FFE7FFE7FFE7039934
:10382000202081F8420003990020086304B070470B
:1038300080B582B0019001980168C86820F040000E
:10384000C8600199202081F841000198FFF77EF9B6
:10385000002002B080BD000080B586B004900498BE
:1038600090F84200222840F0A480FFE70498806886
:10387000B0F5805F15D1FFE70498006988B9FFE7CC
:10388000002003900498806A0290049800684068C1
:103890006FF35F20029908800499886A0230886279
:1038A00025E00498806A03900020029004988068C4
:1038B000B0F5805F08D0FFE70498806850B9FFE753
:1038C0000498006930B9FFE70498006840680399DC
:1038D000087007E004980068406800F07F000399D2
:1038E0000870FFE70499886A01308862FFE704994D
:1038F000C88D0138C8850004002856D1FFE7049818
:103900000168C86820F02000C86004980168C86891
:1039100020F48070C86004980168486920F00100B4
:1039200048610499202081F84200049900204863EE
:103930000498006B012830D1FFE704990020086348
:10394000FFE7FFE70498006850E8030F20F010003D
:103950000190FFE701990498026842E803100028EB
:10396000F0D1FFE7FFE7049800680068C006002870
:103970000ED5FFE7FFE7002000900498006800687C
:10398000009004980068406800900098FFE7FFE707
:103990000498818DFEF73EFD03E00498FFF742F89E
:1039A000FFE700208DF8170007E000208DF81700D2
:1039B00003E002208DF81700FFE79DF8170006B01E
:1039C00080BD000080B584B0039003980068006952
:1039D00020F44050039A1168D2681043086103999B
:1039E00088680A694969104308430290039800688F
:1039F000C06841F20C618843029908430399096841
:103A0000C86003980068406920F44070039A116808
:103A10009269104348610398006843F60001C4F2BC
:103A20000101884204D1FFE7FDF71AF9019003E094
:103A3000FDF704F90190FFE7019819214843039A23
:103A4000116852689200B0FBF2FC48F21F52C5F2B6
:103A5000EB12ACFB02304309642003FB10CC322094
:103A600000EB0C10A0FB0202F02000EA521000EB69
:103A70000310C2F343121044886004B080BD0000FC
:103A800083B00190019890F8410021283AD1FFE7D6
:103A900001988068B0F5805F13D1FFE70198006955
:103AA00078B9FFE70198006A0090009800886FF3EA
:103AB0005F200199096848600199086A023008622C
:103AC00008E0019A106A411C1162007801990968A6
:103AD0004860FFE70199C88C0138C884000468B9C0
:103AE000FFE701980168C86820F08000C86001986D
:103AF0000168C86840F04000C860FFE700208DF80A
:103B00000B0003E002208DF80B00FFE79DF80B008F
:103B100003B0704780B588B0DDF828C006900591E5
:103B20008DF813200393FFE7069800680068059955
:103B30000840401AB0FA80F040099DF813108842FE
:103B400049D1FFE70A980130002843D0FFE70A98DF
:103B500040B1FFE7FCF78AFE0399401A0A998842B0
:103B600037D9FFE7FFE7FFE70698006850E8030F43
:103B700020F4D0700290FFE702990698026842E8AC
:103B800003100028F0D1FFE7FFE7FFE7FFE7069803
:103B9000006850E8050F20F001000190FFE701994F
:103BA0000698026842E805100028F0D1FFE7FFE719
:103BB0000699202081F84100069981F84200FFE72C
:103BC0000699002081F84000FFE703208DF81F00D0
:103BD00005E0FFE7A8E700208DF81F00FFE79DF84C
:103BE0001F0008B080BD000080B540F20810C2F28E
:103BF0000000FEF719FC80BDFFE7FEE781B08DF8FD
:103C000003009DF9030000280ED4FFE79DF903107F
:103C100001F01F02012090404A094EF20011CEF23D
:103C2000000141F82200FFE701B070474EF60C504A
:103C3000CEF200000068C0F30220704782B08DF819
:103C4000070000919DF9070000280AD4FFE70098BB
:103C500000019DF907104EF20042CEF20002885496
:103C60000BE0009800019DF8071001F00F014EF6DF
:103C70001452CEF200028854FFE702B070470000F1
:103C800083B00290029800F0070000904EF60C51AD
:103C9000CEF200010868019001984FF6FF02104033
:103CA00001900198009A40EA02200022C0F2FA52E4
:103CB000104301900198086003B0704780B584B04C
:103CC00000200390FCF7E6FDFFF76EF9FEF744FFD6
:103CD000FFF79CF8FFF72CF8FEF7E6FFFFF7B6F8C2
:103CE00040F2C000C2F2000004210191FEF7AEFADA
:103CF000019940F27800C2F20000FDF70DFFFFE7E6
:103D0000FCF704FB8DF80B009DF80B00FCF7DAFACA
:103D10000A20FCF7E1FBF3E780B586B040F600002F
:103D2000C4F2010002902021039100220492FCF7CA
:103D300085FD02200590FCF7CFFB02980399012234
:103D40000192FCF77BFD0198FCF7C6FB02980399F2
:103D5000049AFCF773FD0598FCF7BEFB40F278006F
:103D6000C2F200000168C86840F00200C86006B0F6
:103D700080BD00004FF47F0C1CEAD0121EBF1CEA6D
:103D8000D11392EA0C0F93EA0C0F00F0858090EAB1
:103D9000010F48BF42F4807240F4000C41F400006F
:103DA0002CF07F4120F07F4000B5A2EB030281425E
:103DB0000FF2081CACEB504E9EF800E0C0F1000082
:103DC0004FEA4E0E00FB0EFC38BF49004FEA2C1C98
:103DD0000CFB0EF34FEACE1E0EEB635E4FEA112C86
:103DE0000EFB0CFC4FEAC1214FEA1C5300FB0311F0
:103DF00002F5FA024FEA112C0EFB0CFC4FEA0131DE
:103E00004FEADC4C00FB0C1142EB2242C14228BFBE
:103E100009184CEB03335DF804EB10EB410143EB65
:103E2000C250B2F57C0F38BF704729D512F0F00FA1
:103E30001CBF00F1C04000F0004070470081828349
:103E40008485868788898B8C8D8E8F9192939596A9
:103E500097999A9C9D9FA0A2A3A5A7A8AAACAEB033
:103E6000B2B3B5B7B9BCBEC0C2C5C7C9CCCED1D438
:103E7000D7D9DCDFE2E6E9ECF0F3F7FAFE00000068
:103E80004FEA400C0CF1807CBCF17E4F28BF70479C
:103E9000B0F1C04000F02BB90CEAD11390EA010F49
:103EA00048BF42F48072624538BF634507D213F4BD
:103EB0007F0F16D080EA010000F00040704710B577
:103EC00000F0CFF8097EFC3E00F005B880EA010062
:103ED00000F00040704780EA010000F0004000F070
:103EE00006B912F47F0F04BF0248704780EA010050
:103EF00000F0FDB80000C07F41000B0ED3F19E0220
:103F000008D950F400034FEA032323FA02F048BF14
:103F10004042704710B500F0A4F800BF49922480D9
:103F2000002070476FF0004282EA200070470000D6
:103F300010F0004148BF4042B0FA80F310FA03F29B
:103F4000C3F19D030BD051EAC35101EB122053067C
:103F500038BF704700F1010008BF20F00100704732
:103F60004FF47F0C1CEAD0121EBF1CEAD11392EA58
:103F70000C0F93EA0C0F00F0478090EA010F48BF46
:103F800042F480724FF0004C4CEA00204CEA0121D0
:103F900002EB0302A0FB0113A2F50002002918BFE7
:103FA00043F001035B0028BF4FEA330342EB224298
:103FB0005FEA132C4CEBC2502EBFBCEB436FB2F543
:103FC0007C0F70474FEA036CBCF1004F08BF20F034
:103FD0000100B2F57C0F38BF70470BD582F0FF02AD
:103FE00012F5803FC8BF704700F1C040D8BF00F055
:103FF0000040704700F5000C5FEA4C0C48BF70476A
:10400000B0F1C04000F073B80CEAD11390EA010F90
:1040100048BF42F48072624538BF634504D280EAEB
:10402000010000F00040704710B500F01AF800BF22
:104030008900013E00F007B800F009B85FEA410CC2
:104040005FEA1C6C08D080EA010000F050B85FEA1B
:10405000400C5FEA1C6CF6D14FF00040A0F58000E8
:1040600070470EF1020E2EF0030E5EF8044B244250
:1040700004D44FEA4102B2F17F4F11D84FEA400316
:10408000B3F17F4F0CD80ED14FEAD07C0CEB4C0C27
:104090000CF1020CB2F17F4F08BF4CEBD17C04E075
:1040A0004FF0080C01E04FEAD17C0CEB4C0324FAF2
:1040B00003F404F00704B4F1040C06D20EEB840CF4
:1040C000BDE810404CF0010C6047DFE80CF0070839
:1040D00002024FF00040A0F5800010BD08464200EB
:1040E00018BFD2F1807288BF00F0004010BDFF21E0
:1040F00041EAD050C00570470000000000000000F9
:10410000010203040607080900000000010203047D
:1041100002030405060708090A0B0C0D0E0F101008
:104120000102576F726B6564210D0A00504100084F
:104130000000002010000000280100086041000875
:10414000100000209007000044010008000000005B
:104150000024F4001901000010000000000000001D
:04000005080000ED02
:00000001FF
