:020000040800F2
:10000000C006002089010008A5190008851800080D
:10001000A119000891020008D91E00080000000084
:100020000000000000000000000000005D1A000851
:1000300095020008000000001D1A0008B51A00080B
:10004000A3010008A3010008A3010008A301000800
:10005000A3010008A3010008A3010008A3010008F0
:10006000A3010008A3010008A3010008A3010008E0
:10007000A3010008A3010008A3010008A3010008D0
:10008000A3010008A3010008A3010008A3010008C0
:10009000A3010008A3010008A3010008A3010008B0
:1000A000A3010008A3010008A3010008A3010008A0
:1000B000A3010008A3010008A3010008A301000890
:1000C000A3010008A3010008A3010008A301000880
:1000D000A3010008C91E0008A3010008A30100082D
:1000E000A3010008A3010008A301000800F002F822
:1000F00000F03AF80AA090E8000C82448344AAF188
:100100000107DA4501D100F02FF8AFF2090EBAE885
:100110000F0013F0010F18BFFB1A43F0010318473B
:10012000C41E0000E41E0000103A24BF78C878C145
:10013000FAD8520724BF30C830C144BF04680C60ED
:10014000704700000023002400250026103A28BF35
:1001500078C1FBD8520728BF30C148BF0B60704739
:100160001FB51FBD10B510BD00F058F81146FFF7C0
:10017000F7FF01F013FF00F076F803B4FFF7F2FF8A
:1001800003BC00F07DF8000009488047094800479B
:10019000FEE7FEE7FEE7FEE7FEE7FEE7FEE7FEE737
:1001A000FEE7FEE704480549054A064B7047000094
:1001B0002D1B0008ED000008C0000020C006002034
:1001C000C0020020C00200204FF0000200B513461C
:1001D00094469646203922BFA0E80C50A0E80C5067
:1001E000B1F12001BFF4F7AF090728BFA0E80C5018
:1001F00048BF0CC05DF804EB890028BF40F8042B11
:1002000008BF704748BF20F8022B11F0804F18BF7D
:1002100000F8012B7047704770477047754600F033
:100220002BF8AE4605006946534620F00700854688
:1002300018B020B5FFF7B6FFBDE820404FF000062C
:100240004FF000074FF000084FF0000BAC46ACE851
:10025000C009ACE8C009ACE8C009ACE8C00921F0AD
:1002600007018D46704710B50446AFF30080204665
:10027000BDE81040FFF781BF004870471000002024
:1002800001491820ABBEFEE72600020070470000BF
:10029000FFE7FEE77047000081B0EFF3108072B611
:1002A0000090FFE7FEE7000083B0019000208DF88A
:1002B0000300019890F8210002280DD0FFE7019972
:1002C00004208863FFE70199002081F82000FFE700
:1002D00001208DF80B0021E001980168086820F0EA
:1002E0000E00086001980168086820F001000860AD
:1002F0000198C16B026C012090404860FFE70199B2
:10030000012081F82100FFE70199002081F82000F9
:10031000FFE79DF803008DF80B00FFE79DF80B0049
:1003200003B0704780B588B0079000208DF81B009F
:10033000079890F82100022807D0FFE707990420CA
:10034000886301208DF81B0076E007980168086833
:1003500020F00E00086007980168086820F001008E
:100360000860079800680821C4F20201884203D19E
:10037000FFE70120059047E0079800681C21C4F2C0
:100380000201884203D1FFE71020049039E007986A
:1003900000683021C4F20201884204D1FFE74FF423
:1003A000807003902AE0079800684421C4F202019B
:1003B000884204D1FFE74FF4805002901BE0079879
:1003C00000685821C4F20201884204D1FFE74FF4CB
:1003D000803001900CE0079801686C22C4F20202A0
:1003E0004FF08070914208BF4FF480100190FFE7FA
:1003F00001980290FFE702980390FFE703980490AA
:10040000FFE704980590FFE705980421C4F2020174
:1004100008600799012081F82100FFE70799002073
:1004200081F82000FFE70798406B20B1FFE70798AD
:10043000416B8847FFE7FFE79DF81B0008B080BDD0
:1004400090B00F900E9100200D900990FFE70E984C
:1004500000680D99C840002800F07F81FFE70D99E2
:10046000012088400C900E9800680C9908400B9071
:100470000B980C99884240F06C81FFE70E98406819
:100480000590002851D0FFE7059801283AD0FFE7F2
:10049000059802283FD0FFE7059803285FD0FFE7C3
:1004A0000598112832D0FFE70598122838D0FFE7C9
:1004B00005980021C1F21101884236D0FFE7059866
:1004C0000021C1F2120188422FD0FFE705980021D8
:1004D000C1F22101884228D0FFE705980021C1F22E
:1004E0002201884221D0FFE705980021C1F23101A5
:1004F00088421AD0FFE705980021C1F232018842F4
:1005000013D02FE00E98C06809902CE00E98C068B8
:100510000430099027E00E98C0680830099022E066
:100520000E98C0680C3009901DE00E98806818B9CC
:10053000FFE70420099011E00E988068012806D199
:10054000FFE7082009900C980F99086105E0082042
:1005500009900C980F994861FFE7FFE703E000203E
:10056000099000E0FFE70B98FF2803D8FFE70F98FA
:10057000049003E00F9804300490FFE7049808907B
:100580000B98FF2804D8FFE70D988000039006E041
:100590000D996FF01F0000EB81000390FFE70398B7
:1005A000079008980068079A0F219140884309999D
:1005B00091400843089908600E98C079C006002849
:1005C00040F1C680FFE7FFE741F21800C4F20200E5
:1005D000016841F001010160006800F0010006902F
:1005E0000698FFE70D9820F003000821C4F20101EE
:1005F00040580A900D9800F0030081000F2000FA87
:1006000001F10A9888430A900F9840F60001C4F25D
:100610000101884203D1FFE70020029026E00F98F5
:1006200040F60041C4F20101884203D1FFE70120F6
:10063000019018E00F9841F20001C4F201018842D4
:1006400003D1FFE7022000900AE00F9941F2004237
:10065000C4F201020420914208BF03200090FFE78A
:1006600000980190FFE701980290FFE702980D992A
:1006700001F00301890000FA01F10A9808430A9089
:100680000A980D9921F003010822C4F20102885052
:100690000E988079C006002809D5FFE70B9A40F232
:1006A0000841C4F2010108681043086008E00B9A91
:1006B00040F20841C4F20101086890430860FFE776
:1006C0000E9880798006002809D5FFE70B9A40F242
:1006D0000C41C4F2010108681043086008E00B9A5D
:1006E00040F20C41C4F20101086890430860FFE742
:1006F0000E9880798007002809D5FFE70B9A40F211
:100700000441C4F2010108681043086008E00B9A34
:1007100040F20441C4F20101086890430860FFE719
:100720000E988079C00748B1FFE70B9A40F200416C
:10073000C4F2010108681043086008E00B9A40F217
:100740000041C4F20101086890430860FFE7FFE739
:10075000FFE70D9801300D9079E610B0704700006A
:1007600040F2B800C2F200000068704740F2040096
:10077000C2F20000027840F2B801C2F2000108683B
:10078000104408607047000080B542F20001C4F2D6
:100790000201086840F010000860032000F086F8AD
:1007A0000F2000F005F800F03BF8002080BD0000AD
:1007B00080B582B0009040F20000C2F200000068F4
:1007C00040F20401C2F200010A784FF47A71B1FBE1
:1007D000F2F1B0FBF1F000F07FFD20B1FFE7012066
:1007E0008DF8070018E000980F280DD8FFE7009952
:1007F0004FF0FF30002200F03FF8009840F208016F
:10080000C2F20001086003E001208DF8070003E058
:1008100000208DF80700FFE79DF8070002B080BDBB
:1008200082B0FFE741F21800C4F20200016841F013
:1008300001010160006800F0010001900198FFE7EC
:10084000FFE741F21C00C4F20200016841F0805150
:100850000160006800F0805000900098FFE702B04F
:100860007047000080B582B08DF807009DF9070041
:1008700001F034FB02B080BD80B586B08DF8170062
:10088000049103920020029001F040FB02909DF938
:100890001700019002980499039A01F089F8014623
:1008A000019801F03BFB06B080BD000080B582B02E
:1008B0000190019801F054FB02B080BD7047000028
:1008C00080B584B002900191029820B9FFE7012021
:1008D0008DF80F001BE1019842F20001C4F2020101
:1008E000096801F00701884216D9FFE742F20000CB
:1008F000C4F20200016821F00701019A114301606E
:10090000006800F007000199884204D0FFE7012049
:100910008DF80F00FBE0FFE70298007880070028C1
:100920002AD5FFE7029800784007002809D5FFE79D
:1009300041F20401C4F20201086840F4E06008607A
:10094000FFE7029800780007002809D5FFE741F289
:100950000401C4F20201086840F460500860FFE737
:1009600041F20401C4F20201086820F0F000029A8A
:10097000926810430860FFE702980078C0070028DB
:1009800060D0FFE70298406801280ED1FFE741F2EE
:100990000000C4F2020000688003002804D4FFE7CE
:1009A00001208DF80F00B2E021E002984068022893
:1009B0000ED1FFE741F20000C4F20200006880019E
:1009C000002804D4FFE701208DF80F009FE00DE020
:1009D00041F20000C4F2020000688007002804D43D
:1009E000FFE701208DF80F0091E0FFE7FFE741F2FC
:1009F0000401C4F20201086820F00300029A526860
:100A000010430860FFF7ACFE0090FFE741F20400DE
:100A1000C4F20200006800F00C0002994968B0EBD3
:100A2000810F0ED0FFE7FFF79BFE0099401A41F2BD
:100A30008931884204D3FFE703208DF80F0066E078
:100A4000E4E7FFE7019842F20001C4F202010968FD
:100A500001F00701884216D2FFE742F20000C4F21B
:100A60000200016821F00701019A1143016000684A
:100A700000F007000199884204D0FFE701208DF8BB
:100A80000F0044E0FFE702980078400700280CD5EB
:100A9000FFE741F20401C4F20201086820F4E060BB
:100AA000029AD26810430860FFE7029800780007B6
:100AB00000280DD5FFE741F20401C4F202010868E5
:100AC00020F46050029A126940EAC2000860FFE711
:100AD00000F052F841F20401C4F202010968C9B2FF
:100AE0000A0941F6B871C0F60001895CC84040F2BD
:100AF0000001C2F20001086040F20800C2F20000EA
:100B00000068FFF755FE00208DF80F00FFE79DF805
:100B10000F0004B080BD00004C21C4F2422101202E
:100B20000860704740F20000C2F2000000687047A1
:100B300080B5FFF7F7FF41F20401C4F20201096832
:100B4000C1F3022241F6C871C0F60001895CC840B9
:100B500080BD000080B5FFF7E5FF41F20401C4F25B
:100B600002010968C1F3C22241F6C871C0F6000152
:100B7000895CC84080BD000086B0002005900490CC
:100B800003900290019041F20400C4F20200006858
:100B90000590059800F00C000146009100283FD018
:100BA000FFE70098042804D0FFE70098082806D043
:100BB00037E041F20020C0F27A00019037E005985A
:100BC000C0F3834141F6D070C0F60000405C029053
:100BD0009DF81600C007C0B1FFE741F20400C4F25F
:100BE00002000068C0F3404141F6E070C0F600002A
:100BF000405C0490029841F20021C0F27A0148431F
:100C00000499B0FBF1F0039007E0029840F6001160
:100C1000C0F23D0148430390FFE70398019006E0CE
:100C2000FFE741F20020C0F27A000190FFE701984F
:100C300006B0704780B541F20800C4F202000068B7
:100C40000006002809D5FFE7FFF738FE41F20A0148
:100C5000C4F2020180200870FFE780BD80B586B035
:100C60000490049820B9FFE701208DF817002EE3C7
:100C700004980078C007002800F0AE80FFE741F23A
:100C80000400C4F20200006800F00C00042813D035
:100C9000FFE741F20400C4F20200006800F00C001B
:100CA00008281BD1FFE741F20400C4F202000068EB
:100CB000C003002812D5FFE741F20000C4F2020091
:100CC00000688003002808D5FFE70498406820B931
:100CD000FFE701208DF81700F9E27CE0FFE70498B8
:100CE0004068B0F5803F09D1FFE741F20001C4F24E
:100CF0000201086840F48030086032E004984068DF
:100D000068B9FFE741F20001C4F20201086820F46B
:100D100080300860086820F48020086020E0049893
:100D20004068B0F5A02F0DD1FFE741F20001C4F2F9
:100D30000201086840F480200860086840F48030B0
:100D400008600CE041F20001C4F20201086820F4DE
:100D500080300860086820F480200860FFE7FFE723
:100D6000FFE7FFE704984068D0B1FFE7FFF7F8FC22
:100D70000390FFE741F20000C4F202000068800324
:100D800000280CD4FFE7FFF7EBFC0399401A652815
:100D900004D3FFE703208DF8170098E2EAE719E093
:100DA000FFF7DEFC0390FFE741F20000C4F202000F
:100DB0000068800300280CD5FFE7FFF7D1FC0399FA
:100DC000401A652804D3FFE703208DF817007EE260
:100DD000EAE7FFE7FFE7FFE70498007880070028CD
:100DE00040F18D80FFE741F20400C4F20200006888
:100DF00010F00C0F13D0FFE741F20400C4F2020020
:100E0000006800F00C00082829D1FFE741F2040037
:100E1000C4F202000068C003002820D4FFE741F2BA
:100E20000000C4F2020000688007002809D5FFE72F
:100E300004980069012804D0FFE701208DF817000D
:100E400045E241F20001C4F20201086820F0F80016
:100E5000049A526940EAC2000860FFE74EE0049835
:100E6000006958B3FFE70021C4F242210120086065
:100E7000FFF776FC0390FFE741F20000C4F20200A6
:100E80000068800700280CD4FFE7FFF769FC03998E
:100E9000401A032804D3FFE703208DF8170016E259
:100EA000EAE741F20001C4F20201086820F0F8000C
:100EB000049A526940EAC20008601EE00021C4F2B0
:100EC000422100200860FFF74BFC0390FFE741F24E
:100ED0000000C4F202000068800700280CD5FFE77C
:100EE000FFF73EFC0399401A032804D3FFE70320D1
:100EF0008DF81700EBE1EAE7FFE7FFE7FFE704986B
:100F000000780007002848D5FFE70498806918B3E7
:100F1000FFE740F28041C4F2422101200860FFF760
:100F20001FFC0390FFE741F22400C4F202000068B6
:100F3000800700280CD4FFE7FFF712FC0399401A42
:100F4000032804D3FFE703208DF81700BFE1EAE789
:100F5000012000F065FD1FE040F28041C4F2422113
:100F600000200860FFF7FCFB0390FFE741F224003C
:100F7000C4F202000068800700280CD5FFE7FFF7E5
:100F8000EFFB0399401A032804D3FFE703208DF8F1
:100F900017009CE1EAE7FFE7FFE7049800784007C5
:100FA000002840F1D880FFE700208DF8070041F2CB
:100FB0001C00C4F202000068C000002813D4FFE740
:100FC000FFE741F21C00C4F20200016841F08051C9
:100FD0000160006800F0805000900098FFE7012059
:100FE0008DF80700FFE747F20000C4F20000006838
:100FF000C005002822D4FFE747F20001C4F2000137
:10100000086840F480700860FFF7AAFB0390FFE7D0
:1010100047F20000C4F200000068C00500280CD4AC
:10102000FFE7FFF79DFB0399401A652804D3FFE70C
:1010300003208DF817004AE1EAE7FFE7FFE704988D
:10104000C068012809D1FFE741F22001C4F2020182
:10105000086840F00100086031E00498C06868B991
:10106000FFE741F22001C4F20201086820F001000C
:101070000860086820F0040008601FE00498C06859
:1010800005280DD1FFE741F22001C4F202010868F2
:1010900040F004000860086840F0010008600CE0BF
:1010A00041F22001C4F20201086820F0010008604A
:1010B000086820F004000860FFE7FFE7FFE7FFE7AC
:1010C0000498C068E0B1FFE7FFF74AFB0390FFE731
:1010D00041F22000C4F202000068800700280ED40C
:1010E000FFE7FFF73DFB0399401A41F2893188423F
:1010F00004D3FFE703208DF81700E8E0E8E71BE0E2
:10110000FFF72EFB0390FFE741F22000C4F202003C
:101110000068800700280ED5FFE7FFF721FB039941
:10112000401A41F28931884204D3FFE703208DF849
:101130001700CCE0E8E7FFE79DF80700012809D198
:10114000FFE741F21C01C4F20201086820F0805060
:101150000860FFE7FFE70498C069002800F0B3804B
:10116000FFE741F20400C4F20200006800F00C0046
:10117000082800F08280FFE70498C06902285CD14B
:10118000FFE76021C4F2422100200860FFF7E8FA7F
:101190000390FFE741F20000C4F202000068800102
:1011A00000280CD5FFE7FFF7DBFA0399401A032864
:1011B00004D3FFE703208DF8170088E0EAE70498DE
:1011C000006AB0F5803F0CD1FFE741F20401C4F2A0
:1011D0000201086820F40030049A92681043086005
:1011E000FFE741F20401C4F20201086820F4741020
:1011F000049B1A6A5B6A1A43104308606021C4F2B8
:10120000422101200860FFF7ABFA0390FFE741F2AB
:101210000000C4F202000068800100280CD4FFE73F
:10122000FFF79EFA0399401A032804D3FFE703202F
:101230008DF817004BE0EAE71EE06021C4F242217E
:1012400000200860FFF78CFA0390FFE741F20000EE
:10125000C4F202000068800100280CD5FFE7FFF708
:101260007FFA0399401A032804D3FFE703208DF87F
:1012700017002CE0EAE7FFE724E00498C0690128A2
:1012800004D1FFE701208DF8170020E041F20400AF
:10129000C4F2020000680290029800F480300499C1
:1012A000096A884208D1FFE7029800F47010049997
:1012B000496A884204D0FFE701208DF8170006E054
:1012C000FFE7FFE7FFE700208DF81700FFE79DF835
:1012D000170006B080BD000080B582B00190019873
:1012E00000F0BEFB02B080BD82B00190ADF80210EC
:1012F00002B0704781B0009001B0704780B592B0E5
:101300001190119800680068109011980068C068EA
:101310000F901198006840690E9000200D900C907D
:10132000109800F00F000D900D9888B9FFE79DF818
:101330004000800600280AD5FFE79DF83C008006A3
:10134000002804D5FFE7119800F060FCE9E1FFE711
:101350000D98002800F0C280FFE79DF83800C00714
:1013600038B9FFE7BDF83C0010F4907F00F0B6807C
:10137000FFE79DF84000C00758B1FFE79DF83D002A
:10138000C00730B1FFE71199486C40F00100486494
:10139000FFE79DF84000400700280BD5FFE79DF8C8
:1013A0003800C00730B1FFE71199486C40F00200E7
:1013B0004864FFE79DF84000800700280BD5FFE751
:1013C0009DF83800C00730B1FFE71199486C40F034
:1013D00004004864FFE79DF840000007002811D58D
:1013E000FFE79DF83C008006002805D4FFE79DF844
:1013F0003800C00730B1FFE71199486C40F0080091
:101400004864FFE71198406C002866D0FFE79DF81C
:101410004000800600280AD5FFE79DF83C008006C2
:10142000002804D5FFE7119800F0F0FBFFE71198C2
:1014300000684069C0F380100C901198406C000760
:10144000002804D4FFE70C9800283ED0FFE711984D
:1014500000F07EFB119800684069400600282FD5F7
:10146000FFE7FFE7FFE71198006850E8050F20F05D
:1014700040000B90FFE70B991198026842E80510B5
:101480000028F0D1FFE7FFE71198C06B98B1FFE7A4
:101490001198C16B41F63130C0F6000048631198D5
:1014A000C06BFEF73FFF28B1FFE71198C06B416B9F
:1014B0008847FFE703E01198FFF71CFFFFE703E011
:1014C0001198FFF717FFFFE706E01198FFF712FFEB
:1014D000119900204864FFE7FFE722E11198006BB3
:1014E000012840F0FE80FFE79DF84000C00600287C
:1014F00040F1F780FFE79DF83C00C006002840F16E
:10150000F080FFE7FFE700200A901198006800686C
:101510000A901198006840680A900A98FFE71198AD
:10152000006840694006002840F18180FFE711987B
:10153000C06B00684068ADF82600BDF826000028A2
:1015400074D0FFE7BDF826001199898D88426DDAC5
:10155000FFE7BDF826001199C8851198C06B806916
:10156000202858D0FFE7FFE7FFE71198006850E810
:10157000030F20F480700890FFE708991198026823
:1015800042E803100028F0D1FFE7FFE7FFE7FFE79D
:101590001198006850E8050F20F001000790FFE760
:1015A00007991198026842E805100028F0D1FFE77A
:1015B000FFE7FFE7FFE71198006850E8050F20F00C
:1015C00040000690FFE706991198026842E805106E
:1015D0000028F0D1FFE7FFE71199202081F84200B1
:1015E000119900200863FFE7FFE71198006850E8B1
:1015F000030F20F010000590FFE70599119802688D
:1016000042E803100028F0D1FFE7FFE71198C06B14
:10161000FEF74AFEFFE71199022048631198818D79
:10162000C28D891A89B2FFF75FFEFFE779E0119951
:10163000888DC98D401AADF812001198C08D002810
:101640004ED0FFE7BDF81200002849D0FFE7FFE7C2
:10165000FFE71198006850E8030F20F490700390A2
:10166000FFE703991198026842E803100028F0D1BF
:10167000FFE7FFE7FFE7FFE71198006850E8050F75
:1016800020F001000290FFE702991198026842E8F9
:1016900005100028F0D1FFE7FFE71199202081F81D
:1016A0004200119900200863FFE7FFE711980068E6
:1016B00050E8030F20F010000190FFE70199119806
:1016C000026842E803100028F0D1FFE7FFE7119914
:1016D000022048631198BDF81210FFF705FEFFE7DE
:1016E0001FE09DF84000000600280AD5FFE79DF89E
:1016F0003C000006002804D5FFE7119800F09AFB93
:101700000FE09DF84000400600280AD5FFE79DF84D
:101710003C004006002804D5FFE7119800F062FA6B
:10172000FFE712B080BD000080B582B00090009845
:1017300020B9FFE701208DF8070040E0009880699C
:1017400008B1FFE700E0FFE7009890F8410040B9DA
:10175000FFE70099002081F84000009800F034F87D
:10176000FFE70099242081F8410000980168C868CB
:1017700020F40050C860009800F0FEFA009801685C
:10178000086920F49040086100980168486920F0D9
:101790002A00486100980168C86840F40050C86099
:1017A000009900204864009A202182F84110009A94
:1017B00082F84210009948638DF80700FFE79DF812
:1017C000070002B080BD000080B58CB00B900020F7
:1017D0000A900990089007900B98006843F6000162
:1017E000C4F20101884243D1FFE7FFE741F218004C
:1017F000C4F20200016841F480410160006800F415
:10180000804006900698FFE7FFE741F21800C4F217
:101810000200016841F004010160006800F004006A
:1018200005900598FFE74FF400700790022008909C
:1018300003200A9040F60000C4F20100019007A9BD
:101840000291FEF7FDFD019802994FF48062079224
:101850000022039208920992FEF7F2FD039A2520D6
:1018600004901146FFF708F80498FEF7FBFFFFE726
:101870000CB080BD81B0009001B0704781B0009085
:1018800001B07047FFE7FEE780B58AB000200990FD
:10189000089007900690FFE741F21800C4F202009A
:1018A000016841F010010160006800F0100005902F
:1018B0000598FFE7FFE741F21800C4F20200016853
:1018C00041F020010160006800F0200004900498BD
:1018D000FFE7FFE741F21800C4F20200016841F09F
:1018E00004010160006800F0040003900398FFE722
:1018F000FFE741F21800C4F20200016841F008015C
:101900000160006800F0080002900298FFE74FF4C1
:101910006040069003200090079041F20000C4F25E
:10192000010006A90191FEF78BFD009801994FF681
:10193000FF120692079040F60000C4F20100FEF785
:101940007FFD009801994FF6FF720692079040F6CE
:101950000040C4F20100FEF773FD0AB080BD000034
:1019600080B582B040F27000C2F20000019043F6F0
:101970000001C4F2010101604FF4E1314160002136
:101980008160C16001610C2242618161C161FFF728
:10199000CBFE18B1FFE7FEF77FFCFFE702B080BD8A
:1019A000FFE7FEE780B5FFF745F9FFE7FEE7000038
:1019B00088B0079006910592079800F00700049000
:1019C0000498C0F10700052803D3FFE70420019025
:1019D00004E00498C0F107000190FFE7019803902C
:1019E00004980430062803D8FFE70020009003E0A5
:1019F000049803380090FFE7009802900698039936
:101A0000012202FA01F101390840029B9840059930
:101A10009A40013A1140084308B0704770470000EF
:101A200082B00190019840F20001C2F20001096801
:101A3000C90844F6D352C1F26202A1FB022189090E
:101A400048430090FFE700BFFFE70098411E009168
:101A50000028F8D1FFE702B070470000704700008F
:101A600080B582B0009000980138B0F1807F03D338
:101A7000FFE70120019019E0009801384EF21401AF
:101A8000CEF2000108604FF0FF300F2100F046FA5F
:101A90004EF21801CEF20001002008604EF2100252
:101AA000CEF20002072111600190FFE7019802B019
:101AB00080BD000080B5FEF759FE80BD80B590B0B6
:101AC00006A800902821FEF77FFB009800230593CD
:101AD0000493039302930193012206924FF4803101
:101AE000079108930A9202220D920E914FF4E01191
:101AF0000F91FFF7B3F818B1FFE7FEF7CDFBFFE753
:101B00000F20019002210291002003904FF4806287
:101B10000492059001A8FEF7D3FE18B1FFE7FEF787
:101B2000BBFBFFE7FEF7F8FF10B080BD7047000079
:101B300080B582B001900198406A00900099002021
:101B4000C8850099C8840098FFF7D4FB02B080BD17
:101B500084B00390FFE7FFE70398006850E8030FA5
:101B600020F490700290FFE702990398026842E81F
:101B700003100028F0D1FFE7FFE7FFE7FFE7039836
:101B8000006850E8050F20F001000190FFE701997F
:101B90000398026842E805100028F0D1FFE7FFE74C
:101BA0000398006B012814D1FFE7FFE7FFE70398D4
:101BB000006850E8030F20F010000090FFE7009944
:101BC0000398026842E803100028F0D1FFE7FFE71E
:101BD000FFE70399202081F8420003990020086361
:101BE00004B0704780B582B0019001980168C86860
:101BF00020F04000C8600199202081F84100019840
:101C0000FFF73CFE002002B080BD000080B586B02A
:101C10000490049890F84200222840F0A480FFE746
:101C200004988068B0F5805F15D1FFE704980069DB
:101C300088B9FFE7002003900498806A0290049816
:101C4000006840686FF35F20029908800499886AF1
:101C50000230886225E00498806A03900020029098
:101C600004988068B0F5805F08D0FFE7049880682A
:101C700050B9FFE70498006930B9FFE7049800689D
:101C800040680399087007E004980068406800F015
:101C90007F0003990870FFE70499886A0130886221
:101CA000FFE70499C88D0138C8850004002856D183
:101CB000FFE704980168C86820F02000C860049815
:101CC0000168C86820F48070C86004980168486999
:101CD00020F0010048610499202081F84200049915
:101CE000002048630498006B012830D1FFE7049975
:101CF00000200863FFE7FFE70498006850E8030F3F
:101D000020F010000190FFE701990498026842E872
:101D100003100028F0D1FFE7FFE70498006800688F
:101D2000C00600280ED5FFE7FFE7002000900498CA
:101D3000006800680090049800684068009000986F
:101D4000FFE7FFE70498818DFFF7CEFA03E00498E0
:101D5000FFF790FDFFE700208DF8170007E0002057
:101D60008DF8170003E002208DF81700FFE79DF8BB
:101D7000170006B080BD000080B584B003900398C2
:101D80000068006920F44050039A1168D26810433B
:101D90000861039988680A694969104308430290F9
:101DA00003980068C06841F20C61884302990843B7
:101DB00003990968C86003980068406920F440707E
:101DC000039A11689269104348610398006843F6CA
:101DD0000001C4F20101884204D1FFE7FEF7BAFE18
:101DE000019003E0FEF7A4FE0190FFE7019819219E
:101DF0004843039A116852689200B0FBF2FC48F223
:101E00001F52C5F2EB12ACFB02304309642003FB06
:101E100010CC322000EB0C10A0FB0202F02000EAF4
:101E2000521000EB0310C2F343121044886004B058
:101E300080BD000083B00190019890F841002128F6
:101E40003AD1FFE701988068B0F5805F13D1FFE7D2
:101E50000198006978B9FFE70198006A009000983E
:101E600000886FF35F200199096848600199086A4A
:101E70000230086208E0019A106A411C1162007881
:101E8000019909684860FFE70199C88C0138C88446
:101E9000000468B9FFE701980168C86820F0800075
:101EA000C86001980168C86840F04000C860FFE75A
:101EB00000208DF80B0003E002208DF80B00FFE7F7
:101EC0009DF80B0003B0704780B540F27000C2F27D
:101ED0000000FFF713FA80BDFFE7FEE781B08DF841
:101EE00003009DF9030000280ED4FFE79DF90310BD
:101EF00001F01F02012090404A094EF20011CEF27B
:101F0000000141F82200FFE701B070474EF60C5087
:101F1000CEF200000068C0F30220704782B08DF856
:101F2000070000919DF9070000280AD4FFE70098F8
:101F300000019DF907104EF20042CEF200028854D3
:101F40000BE0009800019DF8071001F00F014EF61C
:101F50001452CEF200028854FFE702B0704700002E
:101F600083B00290029800F0070000904EF60C51EA
:101F7000CEF200010868019001984FF6FF02104070
:101F800001900198009A40EA02200022C0F2FA5221
:101F9000104301900198086003B0704780B582B08B
:101FA00000200190FEF7F0FBFFF788FDFFF76CFCC7
:101FB000FFF7D6FCFFE7FEE700000000000000008E
:101FC00001020304060708090000000001020304DF
:101FD00002030405060708090A0B0C0D0E0F10106A
:101FE000010200000820000800000020100000008E
:101FF000280100081820000810000020B00600008A
:1020000044010008000000000024F400010000006A
:082010001000000000000000B8
:04000005080000ED02
:00000001FF
