:020000040800F2
:1080000068080020358200080BAD00088FAA000820
:1080100009AD0008139400087DB4000800000000BA
:108020000000000000000000000000004DAF00084C
:10803000BD940008000000004BAF00084FAF0008DF
:108040004F8200084F8200084F8200084F820008CC
:108050004F8200084F8200084F8200084F820008BC
:108060004F8200084F8200084F8200084F820008AC
:108070004F8200084F8200084F8200084F8200089C
:108080004F8200084F8200084F8200084F8200088C
:108090004F8200084F8200084F8200084F8200087C
:1080A0004F8200084F8200084F8200084F8200086C
:1080B000B9AF00084F8200084F8200084F820008C5
:1080C0004F8200084F8200084F8200084F8200084C
:1080D0004F82000875B400084F8200084F820008E4
:1080E0004F8200084F8200084F82000800F002F81B
:1080F00000F090F80AA090E8000C82448344AAF1B2
:108100000107DA4501D100F085F8AFF2090EBAE8AF
:108110000F0013F0010F18BFFB1A43F001031847BB
:1081200094420000B4420000103A24BF78C878C1DD
:10813000FAD8520724BF30C830C144BF04680C606D
:10814000704700000023002400250026103A28BFB5
:1081500078C1FBD8520728BF30C148BF0B607047B9
:108160006E2900F08D81702900F0D182662904F01B
:108170008380652904F08080672904F07D8061296F
:1081800004F07C8003681B0A28BF41F08001692944
:1081900000F03A81642900F03781752900F03481BC
:1081A0006F2900F05F82782900F09D82E92900F0B4
:1081B000F981E42900F0F681F52900F0F381EF2937
:1081C00000F05C82F82900F09C820368DB0928BF7C
:1081D00041F08001632900F09D87732900F0A28798
:1081E000E32900F0AD87F32900F0B2870020704743
:1081F0001FB501F003F804000020002103F0EAFDA0
:10820000401C60600020002103F0CEFDE0601FBD37
:1082100010B510BD00F0C4FF1146FFF7E9FF03F0F1
:108220003FF901F0A1F803B4FFF7F2FF03BC01F03E
:10823000E9F800000948804709480047FEE7FEE7E3
:10824000FEE7FEE7FEE7FEE7FEE7FEE7FEE7FEE706
:1082500004480549054A064B70470000B5AF0008C1
:10826000ED800008680200206808002068040020F3
:10827000680400207CB51D4616460C00009007D00F
:108280004142A14202D32044401E01E04FF0FF30A2
:10829000064B7B442A4669460190304600F009F9B6
:1082A000002C02D0009A002111707CBD4302000016
:1082B00010B5431C02E010F8011B71B18107FAD11F
:1082C0004FF0013202C88C1A8C4314EAC211F9D063
:1082D000C01A0A0603D0C01E10BDC01A10BD0A0481
:1082E00001D0801E10BD0902FCD0401E10BD4FF011
:1082F000000200B5134694469646203922BFA0E8F6
:108300000C50A0E80C50B1F12001BFF4F7AF090701
:1083100028BFA0E80C5048BF0CC05DF804EB8900F2
:1083200028BF40F8042B08BF704748BF20F8022B35
:1083300011F0804F18BF00F8012B7047704770474D
:10834000704770B5044685690068C10601D53026BE
:1083500000E02026C00707D070BDD4E901213046D7
:108360009047206A401C20626D1EF6D570BD70B526
:10837000044685690078C00707D170BDD4E90121A2
:1083800020209047206A401C20626D1EF6D570BDEB
:1083900009684A0501D540B27047C905FCD500B24D
:1083A000704709684A0501D5C0B27047C905FCD5B8
:1083B00080B2704770B50C460546012A05D0287872
:1083C000800600D5EA69002302E0012305E05B1C7A
:1083D000934202D2E05C0028F9D1A869E618C01ADD
:1083E000A861286A184428622846FFF7AAFF04E01B
:1083F000D5E9012114F8010B9047B442F8D328467F
:10840000FFF7B5FF70BD00002DE9F04106460024DE
:1084100010687529314616A510D0FFF7B9FF00285E
:1084200002DA404213A507E031688A0701D512A598
:1084300002E0490704D511A5012401E0FFF7B1FFCF
:1084400000210A2206F1240709E0B0FBF2FCB0FB90
:10845000F2F302FB1C00303078541846491C002807
:10846000F3D123462A463046BDE8F04100F063BA16
:10847000000000002D0000002B0000002000000084
:1084800011680268006A530501D508700AE0D30537
:1084900001D5088006E0130603D5C217C1E9000222
:1084A00000E008600120704701694A1C02610878F9
:1084B000704700B58FB0CDE9013100210591054924
:1084C0007944CDE903101146684600F02BF90FB04E
:1084D00000BD0000E5FFFFFFD1E900239A4202D270
:1084E000531C0B60107070472DE9FF5F15468A46DC
:1084F0000446DFF8AC80F8440027D8E900103E4677
:10850000CDE9001010E03AF816106A4602A800F013
:1085100023FE411C07D02178890603D5E26939186A
:1085200091420DD80744761C2078800602D5E06978
:10853000B84205DDAE42E6DB3AF816000028E2D18B
:10854000A069C01BA0612046FFF7FBFED8E9001020
:10855000CDE90010002017E03AF818106A4602A88A
:1085600000F0FAFDB0F1FF3F81460BD000250DF180
:10857000080B05E0D4E901211BF8050090476D1CAC
:108580004D45F7D308F10100B0428046E4DB206A94
:10859000384420622046FFF7EAFEBDE8FF9F000056
:1085A000863D00002DE9F0418046D21D22F00702F1
:1085B0000025D2E90002F52915A614D0011E72F19A
:1085C000000106DA0023D0EB030063EB020211A6E0
:1085D00008E0D8F800108B0701D50FA602E0490784
:1085E00001D50EA601251146002408F1240704E058
:1085F00000F05CF930323A55641C50EA0102F7D1C0
:108600002B46324621464046BDE8F04100F093B982
:10861000000000002D0000002B00000020000000E2
:1086200030B4002100F1240408E002F00705D2086C
:10863000303542EA4372DB086554491C52EA0305AF
:10864000F3D10468002310A2250708D504F0200404
:108650000C4304D0C46901230CA2641EC46130BC65
:1086600000F069B910B5044621461068FFF799FE7D
:1086700002462046BDE810400023D1E7D21D22F07B
:108680000701D1E90023CBE7000000003000000023
:10869000F0B40D460188090502D5214C7C4402E066
:1086A0001F4C7C440E34002100F1240608E002F047
:1086B0000F071209E75D42EA03721B097754491C50
:1086C00052EA0307F3D102780023120704D5702D74
:1086D00006D009B1022311342246F0BC00F02BB9B8
:1086E00001231034F8E770B504460D4621461068A2
:1086F000FFF757FE024629462046BDE8704000239A
:10870000C6E7D21D22F00703D3E90023C0E70368C0
:10871000126843F0200303600823C3610023B7E716
:10872000E83B00002DE9F05F894604464FF0000A5F
:10873000DFF874B1FB44C0F820A02046E168884708
:10874000002874D0252806D0D4E901219047206A5A
:10875000401C2062F1E700265F462046E16888471A
:108760002028054607DB312D05D2781910F8200C9A
:1087700008B10643F1E7B00701D526F00406C4F8B6
:108780001CA00027C4F818A02A2D09D0284603F001
:1087900003FB38B304EB8708303DC8F8185019E0E4
:1087A00059F8041B204604EB87029161E168884771
:1087B000012F054618D1E069002820DA26F02006AE
:1087C0001DE0D8F8180000EB800005EB40003038C1
:1087D000C8F818002046E1688847054603F0DCFA2F
:1087E0000028EED1012F0AD02E2D08D12046E168B5
:1087F00088477F1C0546022F46F02006C4DBA0698F
:10880000002803DA404246F00106A061F00701D0DB
:1088100026F010066C2D0BD0682D09D04C2D39D0C8
:108820006A2D35D0742D35D07A2D33D016E038E04E
:10883000E1682F4620468847B842054609D16C2F8B
:1088400026D04FF48060E1680643204688470546FD
:1088500004E06C2F1AD04FF4807006430DB3A5F1DD
:108860004100192802D8203546F400664A462946B8
:10887000204626604E46FFF773FC80B101280BD0DE
:10888000F61D26F0070000F1080956E74020E4E74E
:108890008020D8E70020D6E706F104094DE72846F6
:1088A00052E7206ABDE8F09F783B000030B5B0F198
:1088B0000A0271F100034FEA900E4EEA817EB0EB9E
:1088C0000E0061EB91014FEA101E4EEA017E10EBA3
:1088D0000E0041EB11114FEA102E4EEA016E10EB23
:1088E0000E0041EB11214FEA104E4EEA014E10EB03
:1088F0000E0041EB1141401841F100014FEAD00058
:1089000040EA41704FEAD1014FEA810444EA907491
:1089100010EB800544EB01046D1944EB0404521B79
:10892000A3414FF0000348BF0A3200D530BD401CC0
:1089300041F1000130BD2DE9F0470D4699469246C0
:10894000044600F124080168880604D5E06921F096
:108950001001216000E00120A84201DD471B00E07A
:108960000027A1697A1902EB0900081AA061207892
:10897000C00602D42046FFF7E4FC002608E0D4E954
:1089800001211AF806009047206A401C761C2062DC
:108990004E45F4DB2078C0060AD52046FFF7D1FC0F
:1089A00006E0D4E9012130209047206A401C206273
:1089B000381EA7F10107F4DC07E0D4E9012118F81B
:1089C00005009047206A401C2062281EA5F1010581
:1089D000F3DC2046FFF7CBFC2078000602D502200E
:1089E000BDE8F0870120FBE72DE9FF4F0C461E464E
:1089F0004FF0FF378BB0D2E90001DDF860800A90BC
:108A00008A46C1F30A5505B93D46002108464FF094
:108A10000000BAF1000F00F4400005DA00EB80001E
:108A20004FF4400101EA50004FEA9059B9F1010FAB
:108A300000DDB9460A9850EA4A000ED044F61050BC
:108A4000A5F2FF3545432F14B8F1000F1ED0754233
:108A5000291E1EDDC9F100021CE0B8F1010F4FF024
:108A6000000001D0302103E0F24305E02154401C16
:108A7000B042FBDB30460022002121540B99C1F8A3
:108A80000880C1E900200FB0BDE8F08FBD1B6D1C50
:108A9000DEE74A4600DA694206A800F0F3FB06ABBF
:108AA00093E8070003AB83E8070050460A9902F0F9
:108AB00097FD8DE80700A0F500501F38009003983F
:108AC000002D0ADD42F21F014A460844002303A993
:108AD0000390684603F000F809E0A0F500504A460C
:108AE0001F38002303A90390684603F00AF88DE8B5
:108AF00007000004000C03D04FF0FF30410800E0F5
:108B00001046B8F1000F03D00022009215461EE077
:108B1000751E05D4FFF7CAFE303262556D1EF9D5B9
:108B2000B3460122084302D000227F1C04E02078D3
:108B3000302801D100227F1E002A099784D01DE031
:108B4000112D07DAFFF7B2FE303262556D1C50EA84
:108B50000102F5D1084302D00098C8B10EE000210F
:108B6000681E05E0235C625C63542254401E491C6D
:108B70008142F7DBAB46A81B401E0990002004F899
:108B80000B000B98099AC0F80880C0E9002B7AE71F
:108B900011264FF0000857E72DE9F04F88460446AC
:108BA000D21D22F0070191B0D1E90001CDE90A01FF
:108BB00003F0DEF802460B98C00F01D02D2007E02D
:108BC0002068810701D52B2002E0202101EAC000A6
:108BD000032A099001D0072A05DB034641462046B7
:108BE00000F010FB0BE12078800601D5E06900E081
:108BF0000620B8F1650F814606D0B8F1660F18D08F
:108C0000B8F1670F70D131E00020B9F1110F009079
:108C100001DB112301E009F101030AAA01A90CA853
:108C2000FFF7E2FEDDE90C70002609F1010583463D
:108C300047E001204B4600904FF000470AAA01A9E7
:108C40000CA8FFF7D1FEDDE90DB00C995D460026BA
:108C500010B909F101000D18B9EB050003D4C0F1FA
:108C6000FF3609F10105A5EB09002BE0B9F1010F71
:108C700001DA4FF001090020B9F1110F00904846C8
:108C800001DD112300E003460AAA01A90CA8FFF7A1
:108C9000ABFEDDE90C704D460026834620780007C8
:108CA0000AD4AB4500DA5D4601A8012D04DD411967
:108CB00011F8011C302907D04F4502DA17F1040FD3
:108CC00004DA012082460FE06D1EEEE7002F02DC81
:108CD000ED1B3E4403E0781CA84200DD7D1CB81B60
:108CE00000F1010A4FF000472078000703D4AA459D
:108CF00001DB4FF0FF3A0021B7F1004F0DF14308BF
:108D00008DF8431024D002202B23002F01DA7F425C
:108D10002D230A21021EA0F1010000DC5FB197FBA8
:108D2000F1FC97FBF1F201FB1C7C17460CF1300CB7
:108D300008F801CDEEE7A8F10100037021880905CC
:108D400001D5452100E06521A0F1010800F8011CD2
:108D500009980FA9A1EB0807FF1D00B101204119D7
:108D600001EBEA70A1693844081A401EA06120781E
:108D7000C00602D42046FFF7E4FA099828B1D4E9E6
:108D800001219047206A401C20622078C00622D52D
:108D90002046FFF7D6FA1EE0002E04DBB34502DDC5
:108DA00001A8805D00E03020D4E901219047206ACD
:108DB000401C2062761CAAF101005FEA000A0AD179
:108DC00000F01CFAC0680168405CD4E901219047BA
:108DD000206A401C2062281EA5F10105DCDC07E0AA
:108DE000D4E9012118F8010B9047206A401C206249
:108DF000381EA7F10107F3DC2046FFF7B8FA03207D
:108E000011B041E62DE9F04F04460D46D21D22F087
:108E1000070089B0D0E900974846394602F0A8FF1C
:108E20000246F80F01D02D2307E02068810701D505
:108E30002B2302E0202101EAC0038DF820300BB182
:108E4000012000E00020032A824601D0072A04DB2B
:108E50002946204600F0D6F93FE12078800601D46B
:108E60000D2500E0E569C7F30A560D2D49DA00210A
:108E70004FEA175B08464FF00000002F00F4400057
:108E800007DA00EB80004FF4400100EBD07001EAFC
:108E900060008115012901DD4FF0FF3100224FEA0A
:108EA000850CBCF1180F06D31346ACF118004FF037
:108EB0008052C24003E04FF4801323FA0CF30CF10C
:108EC0000C0CBCF1200F04D3ACF1200C09FA0CF00F
:108ED00001E007FA0CF000294FF0004801DD18B955
:108EE0000FE00ED140450CD319EB02095F4121B9C7
:108EF000404502D19F4329EA0209BBEB175F00D02E
:108F0000761C2088000502D57B48784402E07A4828
:108F10007844193808AA302302F80A30037C0AF191
:108F20000101002E0AF1020A53546A4602DC4FF096
:108F3000300101E04FF031014FF001088DF80010D1
:108F400002D0A6F2FF3603E059EA470100D06B4E8B
:108F5000002D02DC2178090704D54FF002082E21EC
:108F60008DF80110C44600210BE0C7F303433F0115
:108F7000C35C491C6D1E02F80830052908F1010880
:108F800001DA002DF1DC00210CE000EB1973491C23
:108F90001B786D1E082902F808304FEA091908F1FC
:108FA000010801DA002DF0DC21688B0602D516E0FD
:108FB000A8F10108E04505DD02EB080313F8013CC8
:108FC000302BF5D0B8F1000F09DD02EB080313F8E0
:108FD000013C2E2B03D1090701D4A8F10108002D73
:108FE00005DD3E2102F808106D1E08F10108407CE5
:108FF000002E02F8080008F1010804DA2D2076425C
:1090000002F8080002E02B2002F808000A214FF4C1
:109010007A70864208F101080BDB96FBF0F33033DF
:1090200002F8083096FBF0F308F1010800FB136624
:1090300001E0642E0CDB642096FBF0F3303302F881
:10904000083096FBF0F308F1010800FB136601E01D
:109050000A2E06DB96FBF1F0303002F8080008F12A
:10906000010896FBF1F001FB1060303002F80800B7
:10907000A16908F1010808EB050202EB0A00081AD1
:10908000A0612078C00602D42046FFF75AF9216A71
:1090900008AE01EB0A00206204E0D4E9012116F8D1
:1090A000010B9047BAF1010AF7D22078C00602D529
:1090B0002046FFF746F96E4609E016F8010B3E28F8
:1090C0000FD0D4E901219047206A401C2062B8F1FA
:1090D0000108F2D22046FFF74AF909B00320BDE8A3
:1090E000F08F206A2844206203E0D4E90121302077
:1090F00090476D1EEBD3F8E7C633000002FCFFFF7C
:1091000010B5436913B1AFF3008001E0FFF752F9E6
:10911000012010BD127800F124010A7000224A706B
:109120000122EDE711684FF0FF32E9E710B543691E
:1091300013B1AFF3008001E0FFF7D6F9012010BDB5
:10914000128800F1240182840022C2840122EDE70A
:1091500011684FF0FF32E9E72DE9F04116460C4661
:10916000054600F043F8036893F80101012807D091
:10917000FF2C12D8185D80B101202C70BDE8F08161
:10918000D3F807013246214603F20713C7182846D1
:10919000BC46BDE8F041002360474FF0FF30EDE7EB
:1091A000754600F0EBF8AE4605006946534620F0E0
:1091B0000700854618B020B5FFF74AF8BDE8204003
:1091C0004FF000064FF000074FF000084FF0000B83
:1091D000AC46ACE8C009ACE8C009ACE8C009ACE8F2
:1091E000C00921F007018D467047000010B500F05E
:1091F00005F8001D10BD00BFDD2B000000487047C2
:10920000300000202DE9F0411F4604460326016886
:10921000072A01F4006004DB08B116A505E016A5D5
:1092200003E008B115A500E015A521F010002060AD
:10923000A069C01EA0610FB1401EA0612046FFF7CB
:1092400080F84FB1D4E9012138469047206A401C8C
:109250002062C01C206206E0206AFAE7D4E90121FE
:1092600015F8010B9047761EF8D22046FFF77FF8DD
:10927000BDE8F0814E414E006E616E00494E4600E1
:10928000696E66002DE9F047814616468AB035487A
:1092900078440DC88DE80D0032487844801C03AC3A
:1092A0000DC884E80D0041F69B300844372190FB3F
:1092B000F1F290FBF1F5A5F1800501FB12041B3CD6
:1092C00002D56442012000E00020DFF898A080462B
:1092D0000027FA44AAF1BE0A0EE0E0070AD032469F
:1092E000684607EB470101230AEB810102F009FC04
:1092F0008DE8070064107F1C002CEED1194F7F44CD
:10930000AE3F19E0E80715D007EB04100DF1180A7D
:1093100090E80E008AE80E00C068F04201D198196A
:1093200008903246012306A903A802F0EAFB03AB2A
:1093300083E807006D10641C002DE3D14FF001039A
:1093400032466946B8F1000F03A802D002F0C4FB10
:1093500001E002F0D6FBC9E90001C9F808200AB013
:10936000BDE8F087D030000010B50446AFF30080B0
:109370002046BDE81040FEF756BF00000048704789
:10938000100000204FF0013C50F8042B51F8043B32
:109390009A4221D1A2EB0C03934313EACC1317D1C9
:1093A00050F8042B51F8043B9A4215D1A2EB0C0360
:1093B000934313EACC130BD150F8042B51F8043B20
:1093C0009A4209D1A2EB0C03934313EACC13DBD0EE
:1093D0004FF00000704700BFD01A01BAB1FA81F116
:1093E00001F0180122FA01F0CB40DBB2C0B2C01A82
:1093F000C1F120012CFA01F3D11A914311EAC311F2
:10940000E6D1704701491820ABBEFEE726000200F6
:109410007047FEE7E9484FF48071002200F0D4B9AC
:10942000E6484FF48071012200F0CEB910B506284D
:109430000AD80446FFF7F4FF042C09D805200021C0
:10944000002400F009F804E0FFF7E4FF012400E045
:109450000024204610BD0000B0B5054608460C4665
:1094600002F02AFE134902F03BFE02F009FE642CD2
:109470000BD8691E04290FD8DFE801F003030303AA
:109480000F000D4909688863B0BD0B4801210068D1
:109490008163816381638163B0BD0749096824B931
:1094A00001228A638A638A638A6388638863886324
:1094B000E9E700BF66760A44C00000207047EFF37A
:1094C000108072B6FEE7000070B5114C114D2021DE
:1094D00000222046A847104E0A20B04720462021EF
:1094E0000122A8470A20B047204620210022A84791
:1094F0000A20B04709480A4C0068C16841F00401DD
:10950000C16008A0217801F0F9FF207870BD00BF8C
:1095100000080140C997000891B4000878000020B5
:109520000C0000200A2044697374616E63653A2060
:1095300025640D0A0000000010B590F821100229E2
:1095400012D10168D0E90F230C6824F00E040C60DE
:109550000C6824F001040C60012101FA03F353604C
:1095600080F82110002102E0042181630121002202
:1095700080F82020084610BDB0B590F821100229CF
:109580001CD103681F4C01221968A34221F00E016F
:109590001960196821F001011960194912D01A4C9B
:1095A000A34211D0194CA34210D0194CA34210D0A1
:1095B000184CA34210D14FF4803415E0042181638C
:1095C00001211BE001240FE010240DE04FF4807412
:1095D0000AE04FF4805407E001F168054FF0807411
:1095E000AB4208BF4FF480140C60002180F82010BB
:1095F00080F82120426B0AB1904700210846B0BD97
:1096000004000240080002401C00024030000240FA
:1096100044000240580002402DE9FC4F5E4A0423FA
:109620004FF0000A4FF001084FF00009904208BFC8
:109630000323009300250C6834FA05F208BFBDE847
:10964000FC8F08FA05FE14EA0E0F00F0A1804F68A7
:10965000032F16D9112F26D0122F28D0514A974206
:1096600013D0514A974210D0504A97420DD0504AD9
:1096700097420AD04F4A974207D04F4A974204D0A8
:1096800022E0DFE807F002181B1F8C6844B1012CB0
:1096900014BFC0F814E0C0F810E04FF0080913E060
:1096A0004FF0040910E0CC6804F104090CE0CC6828
:1096B00004F10C0908E0D1F80C9005E0CC6804F145
:1096C000080901E04FF0000954460746082D4FF005
:1096D0000F0228BF203C28BF04373B6802FA04F67B
:1096E00009FA04F4B34323433B60CB79DB064FD53F
:1096F000614A2A4C1368A4F57E7C43F00103136091
:1097000013682E4A03F0010390420193019B25F058
:1097100003035CF803B008D0294A904207D0294AD5
:10972000009E904208BF022602E0002600E00126CB
:109730000AF00C030F22AF0802FA03F406FA03F34F
:10974000164E174A2BEA040423434CF827304F687F
:10975000FB02B36854BF23EA0E0443EA0E04B4606C
:10976000BB02136854BF23EA0E0443EA0E041460DC
:10977000BB03736854BF23EA0E0443EA0E0474600B
:10978000FB03336854BF23EA0E0243EA0E02326041
:109790000AF1040A01354EE70014014000040140BB
:1097A0000C040140000011100000121000002110F4
:1097B00000002210000031100000321000080140AB
:1097C000000C014000100140002A08BF090401619B
:1097D0007047000005480068704700BF1A480349F9
:1097E00000780A6810440860704700BF64020020D7
:1097F00080B59248016841F010010160032000F03B
:1098000073F8012000F004F800F020F8002080BD7B
:1098100070B50D4E04464FF47A713078B1FBF0F01C
:10982000C8490968B1FBF0F000F044FB01250F2C9A
:1098300008D838B94FF0FF3021460022002500F04B
:109840002DF87460284670BD0000002082B00A48E0
:10985000016841F001010160016801F0010101911D
:109860000199416841F080514160406800F08050AA
:109870000090009802B0704718100240002809D4E8
:10988000734601F093FA9E46034A42EAD00020F064
:1098900003000160704700BF00E100E0F0B5184B25
:1098A0004FF0FF361C68C4F30224E51E84F0070461
:1098B00038BF002506FA05F7BA43042C28BF042454
:1098C00006FA04F4A14300F00F04A940043C11433C
:1098D000044A234409010244002848BF03F10C0252
:1098E0001170F0BD00E400E005494FF6FF030A687F
:1098F0001A4060F30A22034810430860704700BF13
:109900000CED00E00000FA05704700002DE9F84377
:1099100000286CD0884649490446086800F00700D2
:1099200040450AD2086820F0070040EA08000860B5
:10993000086800F00700404559D12068904B8946DF
:10994000810711D5410703D5196841F4E061196019
:10995000010703D5196841F460511960A1681A68BC
:1099600022F0F00211431960C00737D1D9F8000086
:1099700000F0070040450DD9D9F8000020F007009D
:1099800040EA0800C9F80000D9F8000000F007001C
:1099900040452CD12068410705D5E1681A6822F4BA
:1099A000E06211431960000706D52069196821F4A7
:1099B000605141EAC00018601C4600F0C7F82168F9
:1099C0001F4AC1F30311515CC8405E4908604F480B
:1099D0000068FFF71DFF0020BDE8F88360680228DB
:1099E00008D0012825D153F8041C890306D401208E
:1099F000BDE8F88353F8041C8901F8D519681D46A1
:109A000021F0030108431860FFF7E4FE064641F227
:109A10008837606829682B4601F00C01B1EB800F94
:109A2000A4D0FFF7D7FE801BB842F2D90320BDE8CF
:109A3000F88353F8041C8907D9D5DFE700200240DA
:109A40007CC3000870B5FFF7C5FE2F4D044628689B
:109A500040F0010028602868800705D4FFF7BAFEAF
:109A6000001B0228F7D914E02868102161F3C70011
:109A70002860FFF7AFFE0446002041F28836686098
:109A8000686810F00C0F06D0FFF7A4FE001BB04270
:109A9000F6D9032070BD2B483A4901601B48006885
:109AA000FFF7B6FE08B1012070BDFFF793FE044634
:109AB000286820F0807028602868800105D5FFF7AD
:109AC00089FE001B0228F7D9E3E700206860FFF752
:109AD00081FE0446286820F410202860286880034E
:109AE00006D5FFF777FE011B03206429F6D970BD68
:109AF000286820F480202860686A40F080706862DE
:109B00000020A86070BD00BF0010024004000020CB
:109B100001480121016070474C004242E348184966
:109B2000094A00680968C1F30221515CC8407047C6
:109B3000DE481349044A00680968C1F3C221515C38
:109B4000C8407047080000208CC3000810B50C49BD
:109B50000C480A6802F00C03082B07D1C2F38343B8
:109B600009A4D203E35C02D40C48584310BD096831
:109B700009A25843C1F34041515CB0FBF1F010BD64
:109B80000410024000127A000203040506070809C7
:109B90000A0B0C0D0E0F10100102000000093D0011
:109BA00010B5044C2068000603D5FFF7ADFE8020F9
:109BB000A07010BD081002402DE9FC41002800F003
:109BC0009C8004460078B74EC0071FD0706800F034
:109BD0000C00042814D001F028F902D17068C003E9
:109BE0000ED46068002800F01481B0F5A02F00F0BA
:109BF0002181B0F5803F00F0218101F097F820E14C
:109C00003068800302D56068002876D0207880070D
:109C100016D5706810F00C0F05D001F006F924D1AC
:109C20007068C00321D43068800702D520690128FC
:109C300063D16069316821F0F80141EAC000306009
:109C40002078000741D5A06910B397480121C0F8DA
:109C50008014FFF7BFFD0546706A800728D4FFF720
:109C6000B9FD401B0228F7D9F8E021698E48002988
:109C700000F08E8001210160FFF7ACFD05463068E1
:109C80008007D6D4FFF7A6FD401B0228F7D9E5E0F0
:109C900085480021C0F88014FFF79CFD0546706AD6
:109CA000800712D5FFF796FD401B0228F7D9D5E0B3
:109CB0007E484FF4FA510068B0FBF1F0019000BF0C
:109CC0000198411E00280191F9D12078400717D44E
:109CD000E7697FB101F0A9F83CD1012F0DD0216ACD
:109CE000706800F480328A4207D1616A00F4701013
:109CF000884202D10020BDE8FC810120BDE8FC8142
:109D0000F06910F0805808D1F06940F08050F0619F
:109D1000F06900F0805000900098654F3868C005E9
:109D20000FD4386840F480703860FFF753FD054663
:109D30003868C00505D4FFF74DFD401B6428F7D9EE
:109D40008CE0E068A0B3052844D0012846D001F09B
:109D500025F846E05449002088460866FFF73AFD9A
:109D60000546022F0AD147463068800179D5FFF7B2
:109D700031FD411B03200229F6D9BCE73068800180
:109D8000B8D5FFF727FD411B03200229F6D9B2E71A
:109D900000210160FFF71EFD0546306880077FF552
:109DA0004FAFFFF717FD411B03200229F5D9A2E7AA
:109DB00000F0F4FF3062FFF70DFD054641F28837F1
:109DC000306A80071CD5FFF705FD411B0320B9420F
:109DD000F6D990E7306A40F004003062306A40F013
:109DE00001003062FFF7F6FC054641F28837306A21
:109DF000800705D4FFF7EEFC401BB842F7D92DE0F1
:109E0000B8F1000F7FF464AFF06920F08050F0618A
:109E10005EE700F08BFF3060FFF7DCFC0546306842
:109E200080037FF5F3AEFFF7D5FC411B03206429C7
:109E3000F5D960E7306840F480203060306840F445
:109E400080303060FFF7C6FC0546306880033FF580
:109E5000DDAEFFF7BFFC401B6428F6D90320BDE848
:109E6000FC81206AB0F5803F05D1A168726822F4B8
:109E7000003211437160616A726822F474121143F6
:109E80000843706001203866FFF7A4FC0446306880
:109E900080013FF52FAFFFF79DFC011B0320022936
:109EA000F5D928E7001002400000424208000020D7
:109EB00000700040411E0020B0EB116F1CBF01205C
:109EC0007047044AF023516003490B7007219060EA
:109ED0001160704710E000E023ED00E0704770472C
:109EE00010B590F83C300222012B20D080F83D20A4
:109EF00002680B68546824F070041C439368B2F144
:109F0000804F546008D0354CA24205D0344CA24258
:109F100002D0344CA24204D1496823F08003194393
:109F200091600022012180F83C2080F83D1010460D
:109F300010BD00BF58B110B500F0BDFF03D100F057
:109F40009AFF00F007F800F0EEFF00F010BF0120CC
:109F50007047000082B00068224988420DD01F4936
:109F6000884214D10B48016841F002010160006889
:109F700000F002000190019809E00648016841F0F4
:109F800004010160006800F004000090009802B035
:109F9000704700BF1C10024090F83D1001291CBF03
:109FA00001207047022180F83D100068B0F1804F19
:109FB00008D0EB49884205D0EA49884202D0EA49F4
:109FC000884204D1724600F00CFF964603D07246D8
:109FD00000F0B6FF96460020704700BF0004004026
:109FE000002C01400008004010B500F05EFF52D088
:109FF00084F83D0001204FF6777384F83C00206818
:10A0000082689A4382600A68C2B1102A16D0202A58
:10A0100014D0302A12D0402A17D0502A1ED0602ADD
:10A0200025D0B2F5005F2ED0B2F5805F30D0702A17
:10A0300032D100F013FF41F0770128E0816821F070
:10A040007001114341F0070121E000F054FF206846
:10A05000816841F0470121F0300118E000F04BFF2A
:10A060002068816841F0570121F020010FE04B6822
:10A07000CA68194601F0C4F82068816841F0670198
:10A0800021F0100103E000F0E9FE41F4804181601D
:10A09000002000F029FF10BD0120FAE770B504464A
:10A0A0001FA001F02BFA294884422BD1007F0228FF
:10A0B00028D1274D254C04212E78204600F0C0FAE7
:10A0C0000EB3246800216162226A22F0A00222629B
:10A0D000226A226229704FF6FF726968884288BF3F
:10A0E0000022511A084401F0BAFE1A4A1A4B01F034
:10A0F000C9FE01F085FE194901300870E06820F0C2
:10A100000400E06070BD21680A6A22F0A0020A62C1
:10A11000012268602A70086A40F02000086270BD61
:10A120000A204920616D20696E20746865204841CD
:10A130004C5F54494D5F49435F436170747572656C
:10A1400043616C6C6261636B0D0A00007800002053
:10A15000700000209CC420B07268913F0C00002069
:10A16000F8B500F0DBFE04BF0220F8BD00F0B1FE40
:10A1700061D8DFE801F002101F3BD5E90012EB685F
:10A18000206801F013F8206850F8181F21F00C0126
:10A190000160A9684BE0D5E90012EB68206801F086
:10A1A00041F8206850F8181F21F440610160A96847
:10A1B00009023CE02268136A106A20F48070106281
:10A1C000D5E90067D5E9021060F30717104650F88B
:10A1D0001C5F25F0F3053D430560750865F34923D1
:10A1E0001362026822F00C02026020E021684FF244
:10A1F000FF070A6A086A20F480500862D5E9003037
:10A20000D5E9026500025B0820EA0707084663F308
:10A210004D3265F30F3750F81C5F25F473453D430D
:10A2200005600A62016821F4406101603102026840
:10A23000114301600020002184F83C10F8BD58B1A2
:10A2400010B500F038FE03D100F015FE00F006F85E
:10A2500000F069FE00F08BBD01207047FEB500687C
:10A2600000210591B0F1804F22D1A348426842F00D
:10A2700001024260426802F001020192019A026802
:10A2800042F004020260006800F004000190022025
:10A29000CDE903110290019802A90648FFF7BCF925
:10A2A0001C2002210022FFF7F9FA1C20FFF7E6FA32
:10A2B00006B080BD0008014010B5044661B1082910
:10A2C0000FD0042919BF04F1450004F1410204F143
:10A2D000430004F13F0208E004F1420004F13E02B1
:10A2E00003E004F1440004F14002137802780120F5
:10A2F000012B08BF012A00D010BD022061B108293E
:10A300000DD0042919BF84F8410084F8450084F871
:10A310003F0084F8430004E000F0D2FD01E000F0CB
:10A3200093FD4FEAB100032884BF012010BD0B4A02
:10A3300000F066FD2068B0F1804F08D0BD4988422A
:10A3400005D0BB49884202D0BB49884202D100F007
:10A3500048FD01D000F0F4FD002010BD94C30008BA
:10A3600000040040002C01400008004010B50446E5
:10A3700000680169890712D5C16889070FD56FF098
:10A3800002010161012121778069800702D000F07C
:10A39000A8FD01E000F074FD00202077206801692D
:10A3A000490713D5C168490710D56FF00401016151
:10A3B00002212177806910F4407F02D000F091FDE6
:10A3C00001E000F05DFD00202077206801690907A9
:10A3D00012D5C16809070FD56FF00801016104218A
:10A3E0002177C069800702D000F07BFD01E000F01A
:10A3F00047FD0020207720680169C90613D5C16890
:10A40000C90610D56FF01001016108212177C069DC
:10A4100010F4407F02D000F064FD01E000F030FD58
:10A420000020207720680169C90709D0C168C907E1
:10A4300006D06FF001010161204600F0FFF82068AE
:10A440000169090609D5C168090606D56FF08001C2
:10A4500001612046FFF742FD20680169490609D5E0
:10A46000C168490606D56FF040010161204600F041
:10A47000FEF820680169890602D5C168890600D402
:10A4800010BD6FF0200101612046BDE81040FFF7CC
:10A4900026BD000070B586B00068664D00210491AD
:10A4A000A84226D114480226016841F00401016047
:10A4B000016801F0040101910199016841F008016E
:10A4C0000160006800F00800019080200596039666
:10A4D0000290019802AC05F582302146FFF79CF806
:10A4E0000120214605960396029005F58430FFF77A
:10A4F00093F806B070BD00BF18100240704700000E
:10A50000B0B500F00BFD04BF0220B0BD00F0E1FCCF
:10A5100037D8DFE801F0020A12222068294600F04D
:10A5200097FD206850F8181F0EE02068294600F0BB
:10A53000B5FD206850F8181F16E02068294600F085
:10A54000D9FD206850F81C1F41F008010160016826
:10A5500021F00401016029690FE02068294600F01C
:10A56000F3FD206850F81C1F41F400610160016890
:10A5700021F48061016029690902026811430160C8
:10A580000020002184F83C10B0BD58B110B500F097
:10A5900092FC03D100F06FFC00F006F800F0C3FC61
:10A5A00000F0E5BB012070477047704710B50446C6
:10A5B000B9B1082906D0042914BF04F1410004F1FF
:10A5C0003F0001E004F140000078012811D1022091
:10A5D000082910D0042914BF84F8410084F83F00F2
:10A5E0000BE094F83E00012803D1022084F83E00DD
:10A5F00003E0012010BD84F84000206800F012FC48
:10A6000020680B49884201D100F023FCB0F1804F53
:10A6100007D0084A904204D0884202D006498842B6
:10A6200002D100F0DEFB01D000F08AFC002010BD5A
:10A63000002C01400004004000080040704700006A
:10A640004FEAB101032984BF00207047DFE801F021
:10A65000020B05080068343007E000683C3004E075
:10A660000068403001E0006838300068704770478B
:10A67000704770477CB5044600680268C168456948
:10A6800013073FD001F4907605F0010576193DD00F
:10A69000D60705D0CE0503D5666C46F00106666484
:10A6A000560704D51DB1666C46F00206666496072F
:10A6B00004D51DB1666C46F004066664002B07D510
:10A6C00001F020035B1903D0636C43F0080363645B
:10A6D000636C002B00F0E080920605D5890603D557
:10A6E000204600F0DFFD20684069616C00F040000A
:10A6F00001F00801401847D12046FFF7BAFF0020BB
:10A700006064C9E0930601D58B0654D4236B012BFA
:10A7100003D1D30601D5CB0652D4130601D50B06BF
:10A7200011D4520640F1B880490640F1B580C168A5
:10A7300021F04001C160202084F841002046BDE89E
:10A740007C4000F0A3B994F84110212940F0A48086
:10A75000A168B1F5805F03D12169002900F09D80D7
:10A76000216A4A1C226209784160E18C0139E18446
:10A77000090440F09180C16821F08001C160C16886
:10A7800041F04001C1607CBD204600F06AFD00F050
:10A7900040FB4DD500F011FBFCD1E06B002847D009
:10A7A00042494163FEF7E8FE002875D0E06B416B3B
:10A7B000BDE87C4008472046BDE87C4000F072BD03
:10A7C000002101910168019141680191019940695D
:10A7D000400632D4E08DA18DE28D002A5CD081420A
:10A7E0005AD0081A216851E8031F226821F4907199
:10A7F00042E80313002BF5D1216851E8051F2268B8
:10A8000021F0010142E80513002BF5D1202184F845
:10A81000421000212163216851E8031F226821F0C2
:10A82000100142E80313002BF5D1022161632DE0F2
:10A830002046BDE87C40FFF71CBFE06B016849681B
:10A840008AB24AB3A38D9A4226D2E1858069202834
:10A8500017D000F0E2FA20F4807000F036FBF8D157
:10A8600000F06CFAFCD100F0A8FAFCD1202084F8AA
:10A8700042000020206300F0DDFAFCD1E06BFEF71F
:10A880005BFE02206063A08DE18D401A81B22046FC
:10A89000BDE87C40FFF7ECBE7CBD216A31F8022B9D
:10A8A0006FF35F22216242605FE700BF57B200088A
:10A8B00090B110B5044690F8410008B900F03AFB99
:10A8C00000F0E8FA2068016921F4904101614169D2
:10A8D00021F02A0100F014BB0120704770B586B04A
:10A8E000006827490026CDE90466CDE90266884262
:10A8F00029D02449884241D199489A4C016841F4B1
:10A9000080410160016801F4804100F021FA4FF4B8
:10A9100000700290019802AD20462946FEF77CFEA9
:10A9200000202946CDE903004FF4806002902046C4
:10A93000FEF772FE252000210022FEF7AFFF252042
:10A94000FEF79CFF1AE08648864C416841F40031CE
:10A950004160416801F4003100F0FAF904200290EE
:10A96000019802AD20462946FEF756FE08202946EA
:10A97000CDE9036602902046FEF74EFE06B070BD9C
:10A98000004400400038014010B590F84230202BC0
:10A9900006D139B132B10024046300F025FD02E094
:10A9A000022400E00124204610BD000010B5CC496F
:10A9B000884218BF10BD0A480078232809D10949E8
:10A9C0004FF0006000680C6880F30888FFF73AF8E1
:10A9D000A047C34802490122BDE81040FFF7D4BF99
:10A9E000E0010020040000082DE9F843044690F837
:10A9F000410020281CBF0220BDE8F8838846B1B181
:10AA00001746A2B100201D466064212084F8410051
:10AA1000FEF7E0FEE7840646A784A068B0F5805FF5
:10AA200001D1206930B14FF00009474604E0012010
:10AA3000BDE8F8830027C146E08CB8B120468021EC
:10AA400032462B4600F0E9FCB8B927B117F8010BE4
:10AA50002168486006E039F8021B206800276FF380
:10AA60005F214160E08C0138E084E5E72046402129
:10AA700032462B4600F0D1FC10B10320BDE8F8832C
:10AA8000202084F841000020BDE8F8837047FEE7ED
:10AA90002DE9F04786B04FF000083148314C0022D4
:10AAA000CDE90488016841F010010160016801F0FE
:10AAB000100101910199016841F0200101600168D4
:10AAC00001F0200101910199016841F00401016048
:10AAD000016801F0040101910199016841F0080148
:10AAE00001604FF49071006800F008000190019837
:10AAF0002046FEF769FE4FF003094FF460401A4FFD
:10AB00000290CDF80C9002AD04F500602946B847DC
:10AB10004FF651002946CDF80C9002902046B847D8
:10AB2000202001264FF0020A294602902046059671
:10AB3000CDE9036AB8474FF6FE702946CDF80C9070
:10AB4000029004F58060B84703A8294680E84005D4
:10AB50004FF4807002902046B84706B0BDE8F087F9
:10AB600018100240000801401996000810B586B080
:10AB7000154800214FF6FE7247234FF08044CDE97F
:10AB800004118161C0E90043C0E902120161FFF7CD
:10AB900056FB08B1FEF793FC0B4804A9FFF7A0F998
:10ABA00008B1FEF78CFC002001210422CDE9000150
:10ABB000CDE9020004486946FFF7D2FA08B1FEF772
:10ABC0007EFC06B010BD00BF7800002010B58EB02E
:10ABD00000241C210D94CDE90B44CDE9084401A8C3
:10ABE000FDF785FB21488021214A81614DF65901FD
:10ABF000C0E900240461C0E90241FFF79BF908B1F4
:10AC0000FEF75DFC4FF480500A9018480AA9FFF740
:10AC1000EBF908B1FEF753FC1448FFF7B6FC08B196
:10AC2000FEF74DFC00241148CDE9084408A9FFF7C0
:10AC300057F908B1FEF743FC60200594CDE90244C2
:10AC400004220190094801A9FFF75AFC08B1FEF758
:10AC500036FC064801A90822FFF752FC08B1FEF7AE
:10AC60002EFC0248FFF716FC0EB010BDC0000020FD
:10AC700000040040FEB51348EC4B0021472205912B
:10AC8000CDE90311CDE900118161C0E90031C0E9CE
:10AC900002120161FFF74EF908B1FEF710FC4FF404
:10ACA00080500290074802A9FFF79EF908B1FEF70D
:10ACB00006FC04486946FFF713F908B1FEF7FFFBED
:10ACC00006B080BD0801002010B50548054C00F015
:10ACD0001FF818B1BDE81040FEF7F1BB10BD00BF72
:10ACE000500100200038014010B50548054C00F027
:10ACF0000FF818B1BDE81040FEF7E1BB10BD00BF72
:10AD00009801002000440040FEE7FEF749FFFEE7FF
:10AD100000210C224FF4E133C0E90043C0E90211E5
:10AD2000C0E90412C0E90611FFF7C2BD306820F483
:10AD300080303060306820F480207047206850E810
:10AD4000050F216820F0010041E80502002A704744
:10AD500001910199016841F004010160006800F06F
:10AD60000400019003200590022003907047012009
:10AD700084F8460084F83E0084F83F0084F84000E0
:10AD800084F8410084F8420084F8430084F84400C9
:10AD900084F8450084F83D00002010BD306A20F0A2
:10ADA00001003062306A20F00400704700F01F019B
:10ADB0000122C0B202FA01F17047206850E8050F85
:10ADC000216820F0400041E80502002A7047016830
:10ADD00051E8051F026821F0010142E80513002B2C
:10ADE0007047816801F0070106297047016851E842
:10ADF000031F026821F0100142E80313002B704783
:10AE000052F820202068C3681A43C260012200F073
:10AE10000FB92068406940067047206850E8030F6A
:10AE200021687047012200F003B9706800F00C003F
:10AE300008287047206850E8030F216820F01000B0
:10AE400041E80302002A704784F8400084F8440077
:10AE500070474A6C42F400424A647047D1E90123CA
:10AE6000C9681A4342EA0121826822F47F421143F1
:10AE7000816081687047002084F83C00204670475C
:10AE80004DF808ED2046FFF739FB20465DF808EB4A
:10AE9000FFF78BBB242084F841002068C16821F4AF
:10AEA0000051C160204600F05DBA90F83C20044695
:10AEB0000220012A7047044690F83D0000287047A0
:10AEC00084F83E0084F84200704741E80302002AFB
:10AED00070470D4601204FEAB201032984F83C0077
:10AEE00070472046FFF7DAB8002184F83C100121B2
:10AEF00084F83D1070474B68CA68194600F044B9A1
:10AF00004161C16841F40051C160002020216064AA
:10AF100084F8411084F84210606310BD044690F834
:10AF20003C00012870470220211D84F83D00206864
:10AF300000F048B8002084F840002046FFF7CEBC5F
:10AF4000016841F001010160704770477047FEF7EA
:10AF500045BCB0B590B04FF4E010002402250F902E
:10AF60004FF48030CDE90B44CDE909440D950E90A6
:10AF7000CDE90704012006900A9006A8FEF71CFE02
:10AF800018B1EFF3108072B6FEE74FF480600594BD
:10AF90000221CDE903400F20CDE9010501A8FEF70C
:10AFA000B5FC18B1EFF3108072B6FEE7FEF7B0FD06
:10AFB00010B0B0BD704700000148FFF7D7B900BF1F
:10AFC0007800002070B58C4A0368904216D0B0F12A
:10AFD000804F05D0894CA04202D0864CA04203D1BC
:10AFE0004C6823F070032343B0F1804F0AD0834CA8
:10AFF000A04207D07F4CA04204D007E04C6823F069
:10B0000070032343CC6823F4407323434E6923F039
:10B0100080030C688D68334390420360C56284628C
:10B0200001D1096911630121416170BD000800402F
:10B0300010B501F01F010123046A8B4002FA01F1EF
:10B0400024EA03030362026A1143016210BD000097
:10B05000F0B5036A026A684E22F0010223F002038F
:10B0600002628C680A68456823438469B0420CD147
:10B07000D1E9057625F44075D1F80CC023F00C0316
:10B080003D4335432CF00406334324F073044560FC
:10B0900022438261496841630362F0BDF0B5036AEF
:10B0A000026A554E22F0100223F02003B0420262E1
:10B0B0008C680A68456843EA041384690FD1D1E9B2
:10B0C000057625F44065D1F80CC023F0C0033E435B
:10B0D00045EA86056FF0400606EA0C16334324F471
:10B0E000E644456044EA0222826149688163036262
:10B0F000F0BD00BFF0B5036A026A3F4E22F48072D1
:10B1000023F40073B04202628C680A68456843EA1F
:10B110000423C4690ED1CE6825F4405CD1E90575DD
:10B1200023F440633D43360240F2FF47BE434CEAFE
:10B130000515334324F0730445602243C261496816
:10B14000C1630362F0BD00BFF0B5026A036A2A4F13
:10B1500023F48053B842036245680C688B68C66963
:10B1600004D14F6925F4804545EA8715456026F4EA
:10B17000E64545EA0424C4614968016422F40051AB
:10B1800041EA03310162F0BD10B5036A046A24F09C
:10B1900001040462846924F0F00444EA021282612A
:10B1A00023F00A021143016210BD000070B5046A69
:10B1B000056AB0F1804F25F001050562856908D068
:10B1C0000C4EB04205D00C4EB04202D00B4EB042F5
:10B1D0000CD125F003052A4363F3071201F00A019D
:10B1E000826124F00A021144016270BD45F001023F
:10B1F000F2E700BF00040040002C014000080040BE
:10B2000010B5036A046A24F010040462846924F40B
:10B21000704444EA0232826123F0A00242EA011142
:10B22000016210BDB0B5046A056A120201F00A019C
:10B2300025F0100505624FF2FF05AA4363F30F32B4
:10B24000836923F473431A43826124F0A00242EA23
:10B2500001110162B0BD406A0021C185C184FFF7C0
:10B2600008BA016851E8031F026821F4907142E8AE
:10B270000313002BF5D14DF808EDFFF7A8FD5DF89D
:10B2800008EBF8D1016B012906D14DF808EDFFF765
:10B29000ADFD5DF808EBF8D1202180F842100021C7
:10B2A0000163704781B090F84210222920D1836851
:10B2B0000246B3F5805F08D152F8281F52F8183CB7
:10B2C000002B43D003685B6809E052F8281F13B9CC
:10B2D0000369002BF6D003685B6803F07F030B70F3
:10B2E000116801311160C18D0139C185090401D096
:10B2F00001B070470168CA6822F02002CA60CA68BB
:10B3000022F48072CA604A6922F001024A61202157
:10B3100080F8421000214163026B012A1ED10163B3
:10B320004DF808EDFFF762FD5DF808EBF8D1016814
:10B330000A68D20606D5002200920A68009249687F
:10B3400000910099818D01B0FFF792B902685268AF
:10B350006FF35F2221F8022B8162C4E701B0FFF78F
:10B3600025BB0000B0B50446006804F108030ECB0D
:10B37000056925F4405519432A4341F20C650261E1
:10B38000C2686369AA4319431143C1604169A26954
:10B3900021F44071114341611149884202D0FEF706
:10B3A000BDFB01E0FEF7C4FB19214843D4E90012BC
:10B3B0000C4C9200B0FBF2F06422B0FBF2F303FB02
:10B3C0000400322404EB0010B0FBF2F000F0F002B5
:10B3D00000F00F0002EB031210448860B0BD00BF04
:10B3E000003801409CFFFF0F0023C2854364816247
:10B3F0002221828580F842100168006918B1C8686E
:10B4000040F48070C860486940F001004861C86835
:10B4100040F02000C860002070472DE9F0411D4633
:10B4200090460F4604465E1C206800683840B842CB
:10B430001DD0002EF8D02DB1FEF7CCF9A0EB0800FE
:10B44000A842F1D9FFF7E9FC20F4D070FFF73DFDE9
:10B45000F8D1FFF773FCFCD12020002184F84100D3
:10B4600084F8401084F842000320BDE8F0810020F9
:10B47000BDE8F0815848FFF7FDB800BFFEE70000C7
:10B480001C49002209684A624A6A8242FCD370471A
:10B490001849002209684A624A6A8242FCD370470E
:10B4A000FEF7A6F9FFF755FDFFF7F2FAFFF70CFCE0
:10B4B000FFF78CFBFFF75AFBFFF716FCFFF7DAFBF1
:10B4C0000C48FEF769FD424C04212046FFF76EF858
:10B4D00020460821FFF76AF807480421FEF7ECFE32
:10B4E00000F02CF8FDF7F0FFFDF7A0FF9620FFF726
:10B4F000C7FFF7E7080100207800002083B0B8B547
:10B50000044605A80B4D0EC005AB802122462846F7
:10B510000093FCF7AFFE2846FCF7CAFE82B206484D
:10B5200029464FF0FF33FFF75FFABDE8B84003B09C
:10B53000704700BFE101002098010020B0B51DA0B8
:10B54000FFF7DCFF224C0025652D07D02068C5637E
:10B55000C5630220FFF79CFF0135F5E7FDF760FFAB
:10B560001E20FFF795FFFDF755FFFDF7ADFF1948CA
:10B570000078FDF75BFF206841F2A2558563856383
:10B58000856385631E20FFF783FF05200021FDF7FB
:10B5900063FF206843F216610122C563C5638163BE
:10B5A0008163816381630C480C49BDE8B040FFF7BB
:10B5B000EBB900BF0A205374617274696E67204151
:10B5C00070706C69636174696F6E0D0A0000000031
:10B5D000C00000200C00002050010020E0010020ED
:10B5E0005FEA400C08BF91F0000F4FEA8C234FEA4E
:10B5F000C12243EA51514FEA1C5018BF00F5F040F8
:10B600004FEA300018BF41F000415FEA6C5C00F087
:10B610002980BCF1FF3F08BF40F080407047130C09
:10B6200006BF12044FF0100C4FF0000C130E04BFB5
:10B6300012020CF1080C130F04BF12010CF1040CE0
:10B64000930F04BF92000CF1020CD30F04BF520001
:10B650000CF1010C11464FF00002A0F11F00A0EB0D
:10B660000C00704711F0004F08BF704731F00041E7
:10B670003FF4D5AF0B0C06BF09044FF0100C4FF090
:10B68000000C0B0E04BF09020CF1080C0B0F04BFD9
:10B6900009010CF1040C8B0F04BF89000CF1020CA2
:10B6A000CB0F04BF49000CF1010CCCF1200322FAAE
:10B6B00003F341EA030102FA0CF2A0EB0C0000F1E3
:10B6C0000100704723F07F4720F07F4C80EA0300A1
:10B6D00000F00040ACEB070303F57C5303F1FF03DC
:10B6E0002DE9804909B44FEA144324EA03484FEA9C
:10B6F000154B25EA0B4E0FF2042606EB13273E7876
:10B7000003FB0667C7F5000707FB06F64FEAD646B8
:10B7100006F102064FEA543707FB066CCCF1005CD9
:10B720004FEA1C472CEA074C0CFB06F507FB06F416
:10B7300004EB15464FEA961649085FEA320234BF19
:10B7400000204FF000404FEAD13706FB07FC4FEADC
:10B750001C4C0CFB0BF7D21B03FB0CF761EB070136
:10B760000CFB0EF7B0EB074072EB17420CFB08F72F
:10B7700034BFA2EB0742B2EB074261EB17414FEA3D
:10B780000C444FEA910706FB07FC4FEA1C4C0CFBEC
:10B790000BF7B0EBC74072EB573203FB0CF734BF2B
:10B7A000A2EBC742B2EBC74261EB57310CFB0EF77D
:10B7B000B0EBC70072EB57720CFB08F734BFA2EB7B
:10B7C000C702B2EBC70261EB57714FEA816141EAF0
:10B7D00092114FEA826242EA90124FEA806004EBD3
:10B7E000CC04039F4FEAD13706FB07FC4FEA1C4C01
:10B7F0000CFB0BF7D21B03FB0CF761EB07010CFBF7
:10B800000EF7B0EB074072EB17420CFB08F734BFA2
:10B81000A2EB0742B2EB074261EB17414FEA8C55AE
:10B8200004EB9C244FEA910706FB07FC4FEA1C4CF3
:10B830000CFB0BF7B0EBC74072EB573203FB0CF776
:10B8400034BFA2EBC742B2EBC74261EB57310CFBEE
:10B850000EF7B0EBC70072EB57720CFB08F734BF62
:10B86000A2EBC702B2EBC70261EB57714FEA8161ED
:10B8700041EA92114FEA826242EA90124FEA8060F6
:10B8800015EB4C2544F100044FEAD13706FB07FCC9
:10B890004FEA1C4C0CFB0BF7D21B03FB0CF761EBC4
:10B8A00007010CFB0EF7B0EB074072EB17420CFBE5
:10B8B00008F734BFA2EB0742B2EB074261EB174136
:10B8C0004FEA813141EA92414FEA823242EA9042A4
:10B8D0004FEA80304FEA0C7615EB1C1544F100045A
:10B8E00048EA03434EEA0B484FF0000EB2EB080C57
:10B8F00071EB030724BF624639464EEB0E0E4FF044
:10B90000000B0018524149414BEB0B0BB2EB080CFA
:10B9100071EB03077BF1000B24BF624639464EEB07
:10B920000E0E4FF0000B0018524149414BEB0B0B30
:10B93000B2EB080C71EB03077BF1000B24BF6246EE
:10B9400039464EEB0E0E51EA020718BF46F00106CB
:10B9500016EB0E7655F1000254F1000103D5BDE857
:10B960008901BDE80088BDE88901BDE80048B61935
:10B97000524141EB0101A3F10103704780807F7EBA
:10B980007D7C7B7A79787776767574737271717055
:10B990006F6E6E6D6C6C6B6A6A6968686766666507
:10B9A0006464636362616160605F5F5E5E5D5D5C95
:10B9B0005C5B5B5A5A595958585757565655555506
:10B9C0005454535352525251515050504F4F4F4E66
:10B9D0004E4D4D4D4C4C4C4B4B4B4A4A4A494949B4
:10B9E00048484847474747464646454545444444F6
:10B9F0004443434343424242424141419C46002B1F
:10BA000030D477002BD04FEA37071CB503B44FF082
:10BA100010004FF01001BAF1000F06D0BCF1000F7A
:10BA2000DCBF40F0080040F008014FF000000FBC00
:10BA3000BDE810400BF1010BBBF1010F08BF5FEA3D
:10BA4000170722BF12F1010211F101014FF000416D
:10BA500043F1000300F0004043EA00007047F9D3CF
:10BA60005708D0E746EA06464FEA164613F1400F5C
:10BA70001FDD13F1200FDFBF16430A4600212033DC
:10BA80005B42BED0C3F1200746EA06464FEA16469F
:10BA900002FA07F746EA070622FA03F2C3F1200783
:10BAA00001FA07F742EA070221FA03F14FF0000317
:10BAB000A7E746EA020646EA06464FEA164646EA7F
:10BAC0000106BCBF46EA0646360C4FF000034FF0B5
:10BAD00000024FF0000194E72DE9804C70B49A46C3
:10BAE000934691E8380007C831EA400C48BF34EA71
:10BAF000430C03D5FFF7E6FDFFF780FFF0BCBDE880
:10BB0000008C2DE9804C70B49A46934691E8380039
:10BB100007C810F0804F08BF13F0804F03D100F02A
:10BB200005F8FFF76BFFF0BCBDE8008C20F07F4705
:10BB300023F07F4C80EA030000F0004007EB0C0389
:10BB4000A3F57C53A3F1FE0392F0000F00F0B38045
:10BB500095F0000F00F077802DE901494FEA114080
:10BB600021EA00484FEA144624EA064700FB06FC97
:10BB700008FB06F607FB08F818EB06484CEB164CDA
:10BB800000FB07F718EB07484CEB17404FEA124B46
:10BB900022EA0B4E4FEA154625EA06470BFB06FC48
:10BBA0000EFB06F607FB0EFE1EEB064E4CEB164C8C
:10BBB0000BFB07F71EEB074E4CEB174B18EB0B0874
:10BBC00040F1000018EB0E0B58EB000840F10000AC
:10BBD0008F1A4FF000014FF000063CBFC943661BAF
:10BBE00014BFB5EB040C00213CBFC943F61B4FEA60
:10BBF000174427EA04454FEA1C472CEA074C04FB8C
:10BC0000076205FB07F70CFB05F616EB074642EB50
:10BC1000174204FB0CFC16EB0C4642EB1C421BEBE0
:10BC2000060658EB020241414EEA8E0E46EA9E0697
:10BC300001D5BDE80189B619524141EB0101A3F1DB
:10BC40000103BDE801894FEA144524EA05464FEA9D
:10BC5000114721EA074C05FB07F406FB07F70CFB2D
:10BC600006F111EB074144EB174405FB0CFC11EB0B
:10BC70000C4144EB1C444FEA124722EA074C05FBF7
:10BC800007F206FB07F70CFB06F616EB074642EB3E
:10BC9000174205FB0CFC16EB0C4642EB1C456A18E0
:10BCA00054F1000148BF7047B619524141EB010100
:10BCB000A3F10103704795F0000F37D04FEA11420E
:10BCC00021EA02464FEA144724EA074C02FB07F137
:10BCD00006FB07F70CFB06F414EB074441EB174196
:10BCE00002FB0CFC14EB0C4441EB1C414FEA1547E2
:10BCF00025EA074C02FB07F506FB07F70CFB06F6E7
:10BD000016EB074645EB174502FB0CFC16EB0C4601
:10BD100045EB1C42121951F1000148BF7047B6199A
:10BD2000524141EB0101A3F1010370474FEA144571
:10BD300024EA05464FEA114721EA074C05FB07F1C3
:10BD400006FB07F70CFB06F212EB074241EB17412B
:10BD500005FB0CFC12EB0C4251EB1C414FF00006B2
:10BD600048BF7047921841EB0101A3F101037047EE
:10BD7000490050EAC12018BF04204A0D18BF40F006
:10BD8000010040F2FF72B2EB515F08BF40F00200C9
:10BD9000012808BF0520704730380A2801D2012049
:10BDA000704700207047000010B500290AD00878BD
:10BDB000002807D005487844FDF7E4FA002801D0B0
:10BDC000002010BD0248784410BD00001E0600008F
:10BDD0001606000010B500290AD00878002807D000
:10BDE00005487844FDF7CEFA002801D0002010BDA8
:10BDF0000248784410BD00000E0600000606000050
:10BE00004FEA41034FEA5353A3F58063D3F11E0376
:10BE1000C8BFD3F1210C0CDD4FF0004242EAC12231
:10BE200042EA505232FA03FC8CEAE17CACEBE1705E
:10BE30007047102BC4BF0020704703F5787CBCF11D
:10BE4000FF3F04D06FF0004282EA2100704770B5D6
:10BE500000F0C2F84992248000207047F2E7B0FA5F
:10BE600080F310FA03F10AD0C3F11D0303F58063D8
:10BE70004FEA03524FEA415002EBD12170474FF095
:10BE80000000704770B5DFF848C11CEA111E1EBFE4
:10BE90001CEA13159EEA0C0F95EA0C0F00F06F8058
:10BEA00081EA03044EEAD47EAE4421EA4C1123EA2F
:10BEB0004C1341F4801143F48013AEF17F7EA1FB5B
:10BEC000024CA0FB0365361955EB0C05A1FB034C96
:10BED0004CF10003A0FB021C16EB0C06654153F16C
:10BEE0000003094218BF46F0010613F4007F0BD18E
:10BEF0004FEA03314FEA053041EA155140EA165046
:10BF000034036FF003020AE04FEAC3214FEAC52071
:10BF100041EA555140EA5650F4026FF0020202EB3A
:10BF20002E4201EB025585EACE710AD05FEA440C3D
:10BF300018BF24F0004450F1000041F1000120EA54
:10BF4000D47040F2FE7C624500D270BDA84214BF9E
:10BF50004FF080444FF04044002E08BF0024BEF153
:10BF6000806FA8BFA1F1C041BDE8704080F282801F
:10BF700001F1C04101F000414FF0000070470CEAB0
:10BF800013159EEA0C0F18BF95EA0C0F06D081EA34
:10BF9000030E4FF000000EF0004170BD00F01CF8E1
:10BFA0008900013E00F007B800F009B84FEA430CE1
:10BFB0005FEA5C5C08D081EA030100F05BB84FEAFD
:10BFC000410C5FEA5C5CF6D102494FF0000070471B
:10BFD0000000FF070000F87F0EF1020E2EF0030EA6
:10BFE0005EF8046B364205D4012A43EB030515F5D0
:10BFF000001F12D8012841EB010C1CF5001F0CD8C2
:10C000000ED14FEAD17C0CEB4C0C0CF1020C15F567
:10C01000001F08BF4CEBD37C04E04FF0080C01E09C
:10C020004FEAD37C0CEB4C0526FA05F606F0070622
:10C03000B6F1040C06D20EEB860CBDE870404CF055
:10C04000010C6047DFE80CF0090B02024FF00041E1
:10C05000A1F500214FF0000070BD194610460128DF
:10C0600051EB010418BFD4F5001484BF002001F087
:10C07000004170BD0808A0F500114FEA310170477A
:10C0800041000B0ED3F19E0208D950F400034FEA91
:10C09000032323FA02F048BF4042704710B500F076
:10C0A000A0F800BF49922480002070476FF0004242
:10C0B00082EA200070470000B0FA80F310FA03F221
:10C0C000C3F19D030AD0D90501EB1220530638BFF6
:10C0D000704700F1010008BF20F001007047000028
:10C0E0004FF47F0C1CEAD0121EBF1CEAD11392EA57
:10C0F0000C0F93EA0C0F00F0478090EA010F48BF45
:10C1000042F480724FF0004C4CEA00204CEA0121CE
:10C1100002EB0302A0FB0113A2F50002002918BFE5
:10C1200043F001035B0028BF4FEA330342EB224296
:10C130005FEA132C4CEBC2502EBFBCEB436FB2F541
:10C140007C0F70474FEA036CBCF1004F08BF20F032
:10C150000100B2F57C0F38BF70470BD582F0FF02AB
:10C1600012F5803FC8BF704700F1C040D8BF00F053
:10C170000040704700F5000C5FEA4C0C48BF704768
:10C18000B0F1C04000F073B80CEAD11390EA010F8F
:10C1900048BF42F48072624538BF634504D280EAEA
:10C1A000010000F00040704710B500F01AF800BF21
:10C1B0008900013E00F007B800F009B85FEA410CC1
:10C1C0005FEA1C6C08D080EA010000F050B85FEA1A
:10C1D000400C5FEA1C6CF6D14FF00040A0F58000E7
:10C1E00070470EF1020E2EF0030E5EF8044B24424F
:10C1F00004D44FEA4102B2F17F4F11D84FEA400315
:10C20000B3F17F4F0CD80ED14FEAD07C0CEB4C0C25
:10C210000CF1020CB2F17F4F08BF4CEBD17C04E073
:10C220004FF0080C01E04FEAD17C0CEB4C0324FAF0
:10C2300003F404F00704B4F1040C06D20EEB840CF2
:10C24000BDE810404CF0010C6047DFE80CF0070837
:10C2500002024FF00040A0F5800010BD08464200E9
:10C2600018BFD2F1807288BF00F0004010BDFF21DE
:10C2700041EAD050C0057047FCF78EBCFCF7C2BD48
:10C280000000000000000000303132333435363712
:10C29000383941424344454640305800303132330A
:10C2A000343536373839616263646566403078000A
:10C2B000040000080000000000000002000100006F
:10C2C0001030313233343536373839616263646562
:10C2D0006678700030313233343536373839414280
:10C2E000434445465850000002400000000000A0B2
:10C2F0000000000005400000000000C80000000031
:10C300000C4000000000409C0000000019400000AC
:10C310000020BCBE0000000034400000BFC91B8EDE
:10C3200000000004B5400000504BCFD06607E2CFBC
:10C33000010000006C4100003E8251AADFEEA734EC
:10C3400001000000D9420000DCB5A0E23A301F979E
:10C35000FFFFFFFFB4450000FD25A0C8E9A3C14FC2
:10C36000FFFFFFFFFF3F0000000000800000000013
:10C37000FF3F0000000000800000000000000000FF
:10C380000000000001020304060708090000000085
:10C390000102030402000000040000000800000085
:10C3A00010000000FDFFFFFFFBFFFFFFF7FFFFFF97
:10C3B000EFFFFFFF00C50008000000201000000094
:10C3C0002881000810C5000810000020580800004F
:10C3D000448100081C00000043000000F8FFFFFF3C
:10C3E0000C0000000E0000000F0000002E000000F6
:10C3F0001001000043000000F8FFFFFF0040404034
:10C400004040404040404141414141404040404027
:10C4100040404040404040404040404040050202D3
:10C420000202020202020202020202020220202092
:10C4300020202020202020020202020202029090EE
:10C4400090909090101010101010101010101010EC
:10C450001010101010101010020202020202888840
:10C46000888888880808080808080808080808084C
:10C470000808080808080808020202024000000034
:10C4800000000000000000000000000000000000AC
:10C49000000000000000000000000000000000009C
:10C4A000000000000000000000000000000000008C
:10C4B000000000000000000000000000000000007C
:10C4C000000000000000000000000000000000006C
:10C4D000000000000000000000000000000000005C
:10C4E000000000000000000000000000000000004C
:10C4F000000000000000000000000000000000003C
:10C5000001000000100000000024F4000A000000F8
:04000005080080ED82
:00000001FF
