:020000040800F2
:1080000000500020099700089192000899920008FA
:108010009B9200089D9200089F92000800000000BB
:10802000000000000000000000000000A192000815
:10803000A392000800000000A5920008A792000883
:108040005197000851970008519700085197000870
:108050005197000851970008519700085197000860
:108060005197000851970008519700085197000850
:108070005197000851970008519700085197000840
:108080005197000851970008519700085197000830
:108090005197000851970008519700085197000820
:1080A0005197000851970008519700085197000810
:1080B000B1920008519700085197000851970008A5
:1080C00051970008519700085197000851970008F0
:1080D00051970008C1920008519700085197000875
:1080E00051970008519700085197000800000000C0
:1080F0000000000000000000000000000000000080
:0C81000000000000000000005FF808F123
:1081100010B5054C237833B9044B13B10448AFF3C1
:1081200000800123237010BD4C00002000000000DF
:1081300048BB000808B5034B1BB103490348AFF324
:10814000008008BD000000005000002048BB00086F
:1081500070B54FF0FF0C4CF4E06C1CEA11541DBFDD
:108160001CEA135594EA0C0F95EA0C0F00F0DEF8A8
:108170002C4481EA030621EA4C5123EA4C5350EA8D
:10818000013518BF52EA033541F4801143F48013DE
:1081900038D0A0FB02CE4FF00005E1FB02E506F06F
:1081A0000042E0FB03E54FF00006E1FB03569CF0C4
:1081B000000F18BF4EF0010EA4F1FF04B6F5007FCA
:1081C00064F5407404D25FEA4E0E6D4146EB06063C
:1081D00042EAC62141EA55514FEAC52040EA5E50C5
:1081E0004FEACE2EB4F1FD0C88BFBCF5E06F1ED86F
:1081F000BEF1004F08BF5FEA500E50F1000041EBA6
:10820000045170BD06F0004646EA010140EA020052
:1082100081EA0301B4EB5C04C2BFD4EB0C0541EA74
:10822000045170BD41F480114FF0000E013C00F389
:10823000AB8014F1360FDEBF002001F0004170BDAD
:10824000C4F10004203C35DA0C341BDC04F11404C6
:10825000C4F1200500FA05F320FA04F001FA05F252
:1082600040EA020001F0004221F0004110EBD3701F
:1082700021FA04F642EB06015EEA430E08BF20EA4B
:10828000D37070BDC4F10C04C4F1200500FA04F3EE
:1082900020FA05F001FA04F240EA020001F0004180
:1082A00010EBD37041F100015EEA430E08BF20EAF3
:1082B000D37070BDC4F1200500FA05F24EEA020E3B
:1082C00020FA04F301FA05F243EA020321FA04F06A
:1082D00001F0004121FA04F220EA020000EBD37021
:1082E0005EEA430E08BF20EAD37070BD94F0000F21
:1082F0000FD101F00046400041EB010111F4801F55
:1083000008BF013CF7D041EA060195F0000F18BF05
:10831000704703F00046520043EB030313F4801F41
:1083200008BF013DF7D043EA0603704794EA0C0FFB
:108330000CEA135518BF95EA0C0F0CD050EA410611
:1083400018BF52EA4306D1D181EA030101F000418E
:108350004FF0000070BD50EA410606BF10461946B6
:1083600052EA430619D094EA0C0F02D150EA0136C2
:1083700013D195EA0C0F05D152EA03361CBF104603
:1083800019460AD181EA030101F0004141F0FE41A2
:1083900041F470014FF0000070BD41F0FE4141F426
:1083A000780170BD4FF0FF0C1CEAD0521EBF1CEAD2
:1083B000D15392EA0C0F93EA0C0F6FD01A4480EA63
:1083C000010C400218BF5FEA41211ED04FF000634C
:1083D00043EA501043EA5111A0FB01310CF0004078
:1083E000B1F5000F3EBF490041EAD3715B0040EA9E
:1083F000010062F17F02FD2A1DD8B3F1004F40EB6E
:10840000C25008BF20F00100704790F0000F0CF040
:10841000004C08BF49024CEA502040EA51207F3A04
:10842000C2BFD2F1FF0340EAC250704740F40000DF
:108430004FF00003013A5DDC12F1190FDCBF00F0D0
:1084400000407047C2F10002410021FA02F1C2F17E
:10845000200200FA02FC5FEA310040F1000053EA1A
:108460004C0308BF20EADC70704792F0000F00F068
:10847000004C02BF400010F4000F013AF9D040EA6E
:108480000C0093F0000F01F0004C02BF490011F402
:10849000000F013BF9D041EA0C018FE70CEAD15300
:1084A00092EA0C0F18BF93EA0C0F0AD030F0004C80
:1084B00018BF31F0004CD8D180EA010000F0004034
:1084C000704790F0000F17BF90F0004F084691F0F2
:1084D000000F91F0004F14D092EA0C0F01D142022C
:1084E0000FD193EA0C0F03D14B0218BF084608D1F5
:1084F00080EA010000F0004040F0FE4040F400003F
:10850000704740F0FE4040F44000704781F0004169
:1085100002E000BF83F0004330B54FEA41044FEA68
:10852000430594EA050F08BF90EA020F1FBF54EA03
:10853000000C55EA020C7FEA645C7FEA655C00F09F
:10854000E2804FEA5454D4EB5555B8BF6D420CDD70
:108550002C4480EA020281EA030382EA000083EAF3
:10856000010180EA020281EA0303362D88BF30BD93
:1085700011F0004F4FEA01314FF4801C4CEA1131E9
:1085800002D0404261EB410113F0004F4FEA033348
:108590004CEA133302D0524263EB430394EA050FD3
:1085A00000F0A780A4F10104D5F1200E0DDB02FA42
:1085B0000EFC22FA05F2801841F1000103FA0EF2D6
:1085C000801843FA05F359410EE0A5F120050EF19C
:1085D000200E012A03FA0EFC28BF4CF0020C43FACD
:1085E00005F3C01851EBE37101F0004507D54FF0DA
:1085F000000EDCF1000C7EEB00006EEB0101B1F52A
:10860000801F1BD3B1F5001F0CD349085FEA30006F
:108610004FEA3C0C04F101044FEA445212F5800F7A
:1086200080F09A80BCF1004F08BF5FEA500C50F117
:10863000000041EB045141EA050130BD5FEA4C0CFA
:10864000404141EB0101013C28BFB1F5801FE9D257
:1086500091F0000F04BF01460020B1FA81F308BF7A
:108660002033A3F10B03B3F120020CDA0C3208DD46
:1086700002F1140CC2F10C0201FA0CF021FA02F121
:108680000CE002F11402D8BFC2F1200C01FA02F191
:1086900020FA0CFCDCBF41EA0C019040E41AA2BFB6
:1086A00001EB0451294330BD6FEA04041F3C1CDA7E
:1086B0000C340EDC04F11404C4F1200220FA04F09E
:1086C00001FA02F340EA030021FA04F345EA030148
:1086D00030BDC4F10C04C4F1200220FA02F001FA0A
:1086E00004F340EA0300294630BD21FA04F029468C
:1086F00030BD94F0000F83F4801306BF81F4801125
:108700000134013D4EE77FEA645C18BF7FEA655C97
:1087100029D094EA050F08BF90EA020F05D054EA69
:10872000000C04BF1946104630BD91EA030F1EBF6E
:108730000021002030BD5FEA545C05D14000494172
:1087400028BF41F0004130BD14F580043CBF01F565
:10875000801130BD01F0004545F0FE4141F470014B
:108760004FF0000030BD7FEA645C1ABF1946104626
:108770007FEA655C1CBF0B46024650EA013406BF27
:1087800052EA033591EA030F41F4002130BD00BFE6
:1087900090F0000F04BF0021704730B54FF48064A3
:1087A00004F132044FF000054FF0000150E700BF24
:1087B00090F0000F04BF0021704730B54FF4806483
:1087C00004F1320410F0004548BF40424FF0000170
:1087D0003EE700BF42004FEAE2014FEA31014FEAB3
:1087E00002701FBF12F07F4393F07F4F81F0605102
:1087F000704732F07F4208BF704793F07F4F04BF4D
:1088000041F40021704730B54FF4607401F0004529
:1088100021F000411CE700BF50EA010208BF704789
:1088200030B54FF000050AE050EA010208BF70477A
:1088300030B511F0004502D5404261EB41014FF4E3
:10884000806404F132045FEA915C3FF4D8AE4FF0EB
:1088500003025FEADC0C18BF03325FEADC0C18BFCE
:10886000033202EBDC02C2F1200300FA03FC20FA1F
:1088700002F001FA03FE40EA0E0021FA02F114446C
:10888000BDE600BF4A0011D212F5001211D20DD57B
:108890006FF47873B3EB62520ED44FEAC12343F006
:1088A000004343EA505323FA02F070474FF00000B0
:1088B000704750EA013002D14FF0FF3070474FF05F
:1088C0000000704780F0004002E000BF81F00041EE
:1088D00042001FBF5FEA410392EA030F7FEA226C66
:1088E0007FEA236C6AD04FEA1262D2EB1363C1BFF6
:1088F000D218414048404140B8BF5B42192B88BF65
:10890000704710F0004F40F4000020F07F4018BF87
:10891000404211F0004F41F4000121F07F4118BFA7
:10892000494292EA030F3FD0A2F1010241FA03FC4F
:1089300010EB0C00C3F1200301FA03F100F0004337
:1089400002D5494260EB4000B0F5000F13D3B0F1FF
:10895000807F06D340084FEA310102F10102FE2A6E
:1089600051D2B1F1004F40EBC25008BF20F00100DE
:1089700040EA03007047490040EB0000013A28BF7D
:10898000B0F5000FEDD2B0FA80FCACF1080CB2EB00
:108990000C0200FA0CF0AABF00EBC250524218437E
:1089A000BCBFD0401843704792F0000F81F4000123
:1089B00006BF80F400000132013BB5E74FEA4103F6
:1089C0007FEA226C18BF7FEA236C21D092EA030F62
:1089D00004D092F0000F08BF0846704790EA010FDC
:1089E0001CBF0020704712F07F4F04D1400028BF09
:1089F00040F00040704712F100723CBF00F50000EB
:108A0000704700F0004343F0FE4040F40000704720
:108A10007FEA226216BF08467FEA236301464202CC
:108A200006BF5FEA412390EA010F40F480007047DF
:108A30004FF0000304E000BF10F0004348BF404285
:108A40005FEA000C08BF704743F0964301464FF0C1
:108A500000001CE050EA010208BF70474FF000031D
:108A60000AE000BF50EA010208BF704711F000435E
:108A700002D5404261EB41015FEA010C02BF84462E
:108A80000146002043F0B64308BFA3F18053A3F58D
:108A90000003BCFA8CF2083AA3EBC25310DB01FAD4
:108AA00002FC634400FA02FCC2F12002BCF1004F58
:108AB00020FA02F243EB020008BF20F001007047E9
:108AC00002F1200201FA02FCC2F1200250EA4C003D
:108AD00021FA02F243EB020008BF20EADC70704783
:108AE00042000ED2B2F1FE4F0BD34FF09E03B3EB18
:108AF000126209D44FEA002343F0004323FA02F044
:108B000070474FF00000704712F1610F01D142022F
:108B100002D14FF0FF3070474FF00000704700BFA8
:108B20002DE9F04188B0002404940594069407943C
:108B3000334B9A6942F010029A619A6902F010026E
:108B40000092009A9A6942F020029A619A6902F0B2
:108B500020020192019A9A6942F004029A619A698C
:108B600002F004020292029A9A6942F008029A61A3
:108B70009B6903F008030393039B224E22464FF4A4
:108B80000061304601F030F81F4D22464FF48071ED
:108B9000284601F029F84FF4604304930327059712
:108BA00004A91A4800F00EFF4FF6730304930597CB
:108BB00004A9284600F006FF4FF2FE330493059700
:108BC00004A9304600F0FEFE4FF4006304934FF01A
:108BD0000108CDF8148006940227079704A93046AF
:108BE00000F0F0FE4FF480730493CDF814800694E7
:108BF000079704A9284600F0E5FE08B0BDE8F0811B
:108C000000100240000C014000080140001001402B
:108C100072B6FEE700B595B0282200210DEB0200E8
:108C200002F08AFF002305930693079308930993A4
:108C3000019302930393049309230A934FF480331F
:108C40000B9301220E9210920222119212934FF472
:108C5000E01313930AA801F063F8D8B90F23059322
:108C600002210691002307934FF480620892099332
:108C700005A801F08DFA78B9012301934FF4007330
:108C8000029301A801F072FB40B901F051FA15B04E
:108C90005DF804FBFFF7BCFFFFF7BAFFFFF7B8FF73
:108CA00008B500F07DFDFFF7B5FFFFF739FF00F0D5
:108CB00085FC00F021FC00F09BFC00F045FB00F07F
:108CC00009FB00F01FF872B60B4801F05BFF0B4C7C
:108CD0000421204602F0E6FA0821204602F0E2FADA
:108CE0000821074802F04CFB00F062FA62B600F07F
:108CF000FBF900F043FAFAE71C010020D400002041
:108D00008C00002000B583B00023ADF804308DF84E
:108D1000063000931848194A02604FF0FF32426053
:108D2000836001F0CDFDE8B900228DF804208DF8B4
:108D300005208DF8062001A90F4801F0DAFCA0B942
:108D400001238DF800308DF801308DF802300022BB
:108D50008DF803206946084801F02CFD40B903B0A6
:108D60005DF804FBFFF754FFDEE7FFF751FFE7E78D
:108D7000FFF74EFFF3E700BF680000200028004027
:108D800002680C4B9A4200D0704700B583B000F0E7
:108D900031FF094BDA6942F00062DA61DB6903F006
:108DA00000630193019B054B0122C3F83C2403B0EF
:108DB0005DF804FB00280040001002400000424221
:108DC000014630B1034B1A6800235362536A8B4249
:108DD000FCD370471C01002038B572B62022FF2159
:108DE000114802F0A9FE00254FF0E0231D610F4C51
:108DF000636843F0007363602022FF210C4802F097
:108E00009BFE4FF00063A3601A685B6882F30888DA
:108E100085F3148801220321064801F0A9FD00F022
:108E200005FF00F039FD38BD80E100E000ED00E015
:108E300080E200E06800002010B5104C00224FF4E2
:108E40000061204600F0D0FE0A20FFF7B9FF0122A2
:108E50004FF40061204600F0C7FE0A20FFF7B0FF84
:108E600000224FF40061204600F0BEFE044B1A6859
:108E7000D36843F00803D36010BD00BF000C01406D
:108E80008C000020014B1B6898637047D4000020C1
:108E9000014B1B6898637047D4000020014B1B688E
:108EA00098637047D4000020014B1B68986370479B
:108EB000D4000020034B1B6800229A639A639A63D4
:108EC0009A637047D400002070B504460D460846EA
:108ED000FFF7B2FD1949FFF765FAFFF701FE642DB0
:108EE00029D886B2631E042B27D8DFE803F00307D6
:108EF0000B0F13003046FFF7C5FF1EE03046FFF7AB
:108F0000C7FF1AE03046FFF7C9FF16E03046FFF70B
:108F1000CBFF12E015B9FFF7CDFF0EE03046FFF7AB
:108F2000B1FF3046FFF7B4FF3046FFF7B7FF3046DA
:108F3000FFF7BAFF01E0FFF7BDFF70BD66760A4498
:108F400008B501224FF48071014800F04DFE08BDC4
:108F50000008014008B500224FF48071014800F07C
:108F600043FE08BD00080140F8B507460E4600253F
:108F700009E01920FFF724FF0134A4B2B4F57A7F89
:108F8000F7D30135ADB2B54212D237F82540002CE7
:108F9000F4D0FFF7D5FF002404E03220FFF710FFE4
:108FA0000134A4B2B4F57A7FF7D3FFF7D3FFE8E733
:108FB000F8BD0000014B1B68D8637047D400002047
:108FC000014B1B68D8637047D400002064291FD868
:108FD00038B504460846FFF72FFD0E49FFF7E2F9C2
:108FE000FFF77EFD85B2012C07D0022C09D004B119
:108FF00038BD2846FFF7DEFFFAE72846FFF7E0FF17
:10900000F6E72846FFF7D6FF2846FFF7D9FFEFE738
:10901000704700BF66760A442D4B984200D07047D7
:1090200010B50446037F042B00D010BD294B1B78DC
:1090300093B9082101F0D5FD274B1860254B01227B
:109040001A702268136A23F4007313622268136A89
:1090500043F400731362E8E7082101F0C2FD1F4BDF
:109060001860236800225A621B4B1B68984222D961
:10907000C01A1B4B18601A4B1868FFF789FB12A324
:10908000D3E90023FFF764F8FFF7FCFBC3B2013319
:10909000144A13700F4B00221A702268136A23F4CB
:1090A0000073136223681A6A1A622268D36823F075
:1090B0000803D360B9E79842DDD2C31A03F58033C1
:1090C000074A1360D7E700BF9CC420B07268913F85
:1090D0008C000020880000208000002084000020F8
:1090E0007C0000200100002008B5FFF7A5FE014B21
:1090F000187808BD0100002010B519280FD81E4BA4
:109100000A221A70192834D8FFF71AFF1A4B1B7855
:109110006BBB194B1B7873B3FFF71CFF2BE01728B1
:1091200003D8154B08221A70ECE7152803D8124B08
:1091300006221A70E6E7132803D80F4B04221A7090
:10914000E0E7112803D80C4B02221A70DAE70E2848
:10915000D8D8094B00221A70D4E7074B1878FFF7CC
:109160002FFE0134A4B2B4F57A7FF6D3D1E7002400
:10917000F9E7FFF7EFFE10BD0000002038B50B4BFC
:109180001C78012C01D0204638BD05460F280AD88E
:10919000FFF7B2FF082D01D90024F4E700210520D4
:1091A000FFF792FEF8E7FFF7D5FEECE78A00002014
:1091B00008B500220321064801F0DAFB0F2105481B
:1091C000FFF7D2FE01220449044802F07EFC08BDEC
:1091D00068000020040000208900002064010020B5
:1091E00008B5064B01221A703C210520FFF76CFEE2
:1091F00050210220FFF7EAFE08BD00BF8A000020D0
:1092000010B50024054B1C7021460520FFF75CFEBD
:1092100021460220FFF7DAFE10BD00BF8A000020C1
:1092200008B50D4B834200D008BD0C4B1B78532B67
:109230000FD0732B0AD0232B05D0012207490648F3
:1092400002F043FCF0E7FFF7C7FDF6E7FFF7C8FFC2
:10925000F3E7FFF7D5FFF0E7640100208900002065
:1092600082B00A4B9A6942F001029A619A6902F04F
:1092700001020092009ADA6942F08052DA61DB69F9
:1092800003F080530193019B02B07047001002402D
:1092900008B501F05BF8FEE7FEE7FEE7FEE7FEE754
:1092A00070477047704708B500F08CFA08BD0000A1
:1092B00008B5024801F0B2FC08BD00BF8C000020D8
:1092C00008B5024802F0A2FA08BD00BF6401002000
:1092D0007047000000B587B0002304930593009306
:1092E00001930293039317484FF080420260472294
:1092F000426083604FF6FE72C2600361836101F0D9
:10930000DDFDB0B900230493059304A90D4802F0D4
:10931000E1F888B90023009301220192029303939C
:1093200008226946074801F0C1FE40B907B05DF860
:1093300004FBFFF76DFCE5E7FFF76AFCEAE7FFF7E0
:1093400067FCF3E78C00002000B587B00023029390
:10935000039304930593009301931548154A026003
:109360004722426083604FF6FE72C26003618361F0
:1093700001F04CFD90B94FF48053029302A90C48C0
:1093800001F002FF68B90023009301936946084881
:1093900002F0A0F840B907B05DF804FBFFF738FC15
:1093A000E9E7FFF735FCEEE7FFF732FCF3E700BF34
:1093B0001C0100200008004000B587B00023029384
:1093C0000393049305930368B3F1804F02D007B071
:1093D0005DF804FB03F50433DA6942F00102DA6157
:1093E000DA6902F001020092009A9A6942F00802DA
:1093F0009A619B6903F008030193019B4FF480631A
:10940000029302A90A4800F0DDFA0A4A536823F4DD
:10941000407343F0E06343F4007353600022022181
:109420001C2000F0F3F91C2000F028FACFE700BF61
:10943000000C01400000014082B003680E4A9342D4
:1094400004D00E4A93420CD002B070470C4BDA693C
:1094500042F00202DA61DB6903F002030093009B31
:10946000F2E7074BDA6942F00402DA61DB6903F0E4
:1094700004030193019BE7E700040040000800405B
:109480000010024010B586B00023029303930493AA
:1094900005930268154B9A4201D006B010BD03F542
:1094A00003339A6942F004029A619A6902F0040255
:1094B0000092009A9A6942F008029A619B6903F04F
:1094C00008030193019B80230293022403940594D3
:1094D00002A9074800F076FA012302930394059449
:1094E00002A9044800F06EFAD7E700BF000400406C
:1094F00000080140000C014000B58FB000230A9322
:109500000B930C930D930893099301930293039388
:1095100004930593069307932648274A0260436005
:1095200083604DF65902C26003618023836101F0BC
:109530006DFC60BB4FF480530A930AA91D4801F0EB
:1095400023FE38BB1B4801F08DFC30BB0023089381
:10955000099308A9174801F0BDFF08BB60230193D8
:10956000002302930393059304220DEB020111489B
:1095700001F002FDB8B9082201A90E4801F0FCFC77
:10958000A0B90C48FFF77EFF0FB05DF804FBFFF7B2
:109590003FFBCFE7FFF73CFBD4E7FFF739FBD5E70D
:1095A000FFF736FBDAE7FFF733FBE4E7FFF730FBC3
:1095B000E7E700BFD40000200004004008B50A48D7
:1095C0000A4B03604FF4E133436000238360C360C0
:1095D00003610C2242618361C36102F05BF800B950
:1095E00008BDFFF715FBFBE76401002000380140D0
:1095F00008B50A480A4B03604FF4E1334360002387
:109600008360C36003610C2242618361C36102F025
:1096100041F800B908BDFFF7FBFAFBE7AC010020F9
:109620000044004030B589B00023049305930693AD
:1096300007930368304A934204D0304A934233D0B0
:1096400009B030BD2E4B9A6942F480429A619A6902
:1096500002F480420092009A9A6942F004029A61F0
:109660009B6903F004030193019B4FF4007304937F
:109670000223059303230793224D04A9284600F0F3
:10968000A1F94FF48063049300240594069404A97F
:10969000284600F097F922462146252000F0B6F82A
:1096A000252000F0EBF8CBE7154BDA6942F40032E5
:1096B000DA61DA6902F400320292029A9A6942F09F
:1096C00004029A619B6903F004030393039B042340
:1096D000049302230593032307930A4C04A920460D
:1096E00000F070F90823049300230593069304A95E
:1096F000204600F067F9A3E700380140004400402D
:109700000010024000080140FFF7E2FD0B480C4941
:109710000C4A002302E0D458C4500433C4188C42CD
:10972000F9D3094A094C002301E013600432A24234
:10973000FBD302F0DDF9FFF7B3FA70470000002019
:109740004C000020A8BB00084C000020F8010020BD
:10975000FEE7000010B504460E4B18784FF47A73FC
:10976000B3FBF0F30C4A1068B0FBF3F000F0A6F87E
:1097700068B90F2C01D901200AE0002221464FF0E0
:10978000FF3000F043F8054B1C60002000E0012092
:1097900010BD00BF44000020400000204800002011
:1097A00008B5074A136843F010031360032000F064
:1097B0001BF80F20FFF7CEFFFFF752FD002008BD7A
:1097C00000200240034A1168034B1B780B441360CE
:1097D000704700BFF401002044000020014B1868CE
:1097E000704700BFF4010020074AD36823F4E06308
:1097F0001B041B0C000200F4E060034343F0BF6352
:1098000043F40033D360704700ED00E000B5194B1E
:10981000DB68C3F30223C3F1070CBCF1040F28BFBC
:109820004FF0040C03F1040EBEF1060F18D9033BF0
:109830004FF0FF3E0EFA0CFC21EA0C0199400EFAA3
:1098400003F322EA0303194300280BDB0901C9B221
:1098500000F1604000F5614080F800135DF804FB02
:109860000023E5E700F00F000901C9B2024B1954CB
:10987000F4E700BF00ED00E014ED00E0002807DB96
:1098800000F01F02400901239340024A42F82030B1
:10989000704700BF00E100E0BFF34F8F0549CA6881
:1098A00002F4E062044B1343CB60BFF34F8F00BF61
:1098B000FDE700BF00ED00E00400FA050138B0F15B
:1098C000807F0BD24FF0E0235861054AF02182F8E7
:1098D00023100020986107221A6170470120704709
:1098E00000ED00E090F82130DBB2022B06D004231B
:1098F0008363002380F820300120704702681368DA
:1099000023F00E0313600268136823F00103136051
:10991000036CC16B012202FA03F34B6080F8212033
:10992000002380F8203018467047000008B590F8F2
:109930002130DBB2022B03D004238363012008BD56
:109940000268136823F00E0313600268136823F0A3
:10995000010313600368194A934214D014329342EE
:109960001FD0143293421ED0143293421ED01432B0
:1099700093421ED01432934202D04FF0807203E023
:109980004FF4801200E001220D4B5A60012380F851
:109990002130002380F82030436B6BB198470020C2
:1099A000CDE71022F0E74FF48072EDE74FF48052DC
:1099B000EAE74FF48032E7E70020C0E70800024002
:1099C0000000024070B582B00024A446A6E0804D9D
:1099D000AA4210D007D97F4DAA420CD005F5803598
:1099E000AA4208D013E0A5F58015AA4203D005F5D8
:1099F0007025AA4207D18A68002A58D0012A51D07E
:109A00004361082403E0A5F58015AA42F3D0BEF116
:109A1000FF0F4ED80646BEF1FF0F4CD84FEA8C021E
:109A200033680F25954023EA050304FA02F2134335
:109A300033604B6813F0805F6ED0674B9A6942F0D9
:109A400001029A619B6903F001030193019B4FEAB4
:109A50009C02951C614B53F825600CF003039D009C
:109A60000F23AB4026EA03065D4B984229D003F54D
:109A70008063984200F08E8003F58063984200F086
:109A80008B8003F58063984219D004231AE0CC68D8
:109A9000BDE7CC680434BAE7CC680834B7E7CC68D3
:109AA0000C34B4E703610824B1E70024AFE70424D1
:109AB000ADE7061DAFE7ACF108029200B0E7032363
:109AC00000E00023AB4033430232444D45F82230DE
:109AD0004B6813F4801F61D0424A936843EA0E0337
:109AE00093604B6813F4001F5ED03E4AD36843EA8C
:109AF0000E03D3604B6813F4003F5BD0394A5368C0
:109B000043EA0E0353604B6813F4803F58D0354A44
:109B1000136843EA0E0313600CF1010C0A6832FA71
:109B20000CF353D0012303FA0CF302EA030E33EAD9
:109B30000202F1D14A68122A3FF649AF122A3FF6D3
:109B400066AF01A555F822F0F79900088F9A000832
:109B5000999A0008AB9A00080F9A00080F9A00081B
:109B60000F9A00080F9A00080F9A00080F9A000831
:109B70000F9A00080F9A00080F9A00080F9A000821
:109B80000F9A00080F9A00080F9A0008939A00088D
:109B90009F9A0008012395E7022393E7114A9368EF
:109BA00023EA0E0393609CE70E4AD36823EA0E0370
:109BB000D3609FE70B4A536823EA0E035360A2E782
:109BC000084A136823EA0E031360A5E702B070BDCC
:109BD000000022100000311000100240000001407F
:109BE00000080140000401400AB101617047090406
:109BF00001617047014B01221A62704700000E425A
:109C000082B0084B1B68084AA2FB03235B0A00FBD7
:109C100003F3019300BF019B5A1E0192002BF9D15F
:109C200002B0704740000020D34D621070B5FFF7BE
:109C3000D5FD0446364A136843F001031360344BE4
:109C40001B6813F0020F07D1FFF7C8FD001B0228A5
:109C5000F5D90324204670BD2D4D2B6823F0F80361
:109C600043F080032B60FFF7B9FD044600236B60CF
:109C7000274B5B6813F00C0F08D0FFF7AFFD001BFC
:109C800041F288339842F3D90324E3E7214B224A77
:109C90001A60224B1868FFF75DFD044608B10124E5
:109CA000D8E7FFF79BFD0546194A136823F0807338
:109CB0001360174B1B6813F0007F06D0FFF78EFD73
:109CC000401B0228F5D90324C4E7114E002373601A
:109CD000FFF784FD0546336823F4102333600C4BF3
:109CE0001B6813F4003F06D0FFF778FD401B642883
:109CF000F5D90324AEE7064B1A6822F480221A60D5
:109D00005A6A42F080725A6200229A60A2E700BF4B
:109D1000001002404000002000127A00480000209D
:109D2000002800F0F18170B582B00446036813F09A
:109D3000010F2CD0994B5B6803F00C03042B1DD052
:109D4000964B5B6803F00C03082B12D06368B3F5E5
:109D5000803F41D0002B55D103F1804303F50433FC
:109D60001A6822F480321A601A6822F480221A607B
:109D700037E08A4B5B6813F4803FE7D0874B1B6862
:109D800013F4003F03D06368002B00F0BF81236809
:109D900013F0020F75D0814B5B6813F00C0F5FD08E
:109DA0007E4B5B6803F00C03082B54D02369002B17
:109DB00000F08A807A4B01221A60FFF70FFD0546FA
:109DC000764B1B6813F0020F75D1FFF707FD401BA0
:109DD0000228F5D903209EE1704A136843F48033CA
:109DE0001360636843B3FFF7F9FC05466B4B1B68D0
:109DF00013F4003FCBD1FFF7F1FC401B6428F5D9E9
:109E0000032088E1B3F5A02F09D0644B1A6822F42F
:109E100080321A601A6822F480221A60E1E703F1A6
:109E20008043A3F53C331A6842F480221A601A6812
:109E300042F480321A60D4E7FFF7D0FC0546574B56
:109E40001B6813F4003FA2D0FFF7C8FC401B642836
:109E5000F5D903205FE1514B5B6813F4803FA5D136
:109E60004E4B1B6813F0020F03D02369012B40F007
:109E70004F814A4A136823F0F803616943EAC1033A
:109E80001360236813F0080F33D0A369002B5CD054
:109E9000434B0122C3F88024FFF7A0FC05463F4B4B
:109EA0005B6A13F0020F21D1FFF798FC401B0228D8
:109EB000F5D903202FE1394A136823F0F8036169CB
:109EC00043EAC1031360DCE7354B00221A60FFF759
:109ED00085FC0546314B1B6813F0020FD1D0FFF70C
:109EE0007DFC401B0228F5D9032014E10120FFF777
:109EF00087FE236813F0040F00F09680274BDB6980
:109F000013F0805F34D1254BDA6942F08052DA6178
:109F1000DB6903F080530193019B0125214B1B68F2
:109F200013F4807F26D0E368012B3DD0002B53D162
:109F300003F1804303F504331A6A22F001021A6226
:109F40001A6A22F004021A6233E0154B0022C3F8A9
:109F50008024FFF743FC0546104B5B6A13F0020FA9
:109F6000C7D0FFF73BFC401B0228F5D90320D2E005
:109F70000025D3E70B4A136843F480731360FFF79F
:109F80002DFC0646074B1B6813F4807FCBD1FFF7EF
:109F900025FC801B6428F5D90320BCE0001002409A
:109FA00000004242007000405F4A136A43F0010320
:109FB0001362E36833B3FFF711FC06465A4B1B6A82
:109FC00013F0020F2FD1FFF709FC801B41F28833F9
:109FD0009842F3D903209EE0052B09D0524B1A6A10
:109FE00022F001021A621A6A22F004021A62E0E701
:109FF0004D4B1A6A42F004021A621A6A42F00102D8
:10A000001A62D6E7FFF7EAFB0646474B1B6A13F0D6
:10A01000020F08D0FFF7E2FB801B41F28833984221
:10A02000F3D9032077E0E5B9E369002B72D03E4A0B
:10A03000526802F00C02082A56D0022B17D03B4B74
:10A0400000221A66FFF7CAFB0446374B1B6813F061
:10A05000007F47D0FFF7C2FB001B0228F5D9032081
:10A0600059E0314AD36923F08053D361DCE72F4BA9
:10A0700000221A66FFF7B2FB05462B4B1B6813F054
:10A08000007F06D0FFF7AAFB401B0228F5D903206A
:10A0900041E0236AB3F5803F1AD023494B6823F48B
:10A0A0007413226A606A024313434B601F4B012200
:10A0B0001A66FFF793FB04461B4B1B6813F0007FE7
:10A0C0000ED1FFF78BFB001B0228F5D9032022E0FD
:10A0D000154A536823F40033A1680B435360DCE74F
:10A0E000002018E0002016E0012B16D00E4B5B6814
:10A0F00003F48031226A914211D103F47013626A31
:10A1000093420ED1002006E001207047012002E0BA
:10A11000012000E0002002B070BD0120FBE701201B
:10A12000F9E70120F7E700BF0010024000004242BB
:10A13000014B0122DA647047000042420F4B5B681A
:10A1400003F00C02082A01D00D487047C3F3834284
:10A150000C49885C13F4803F0BD0084B5B68C3F359
:10A160004043094AD35C064A02FB00F0B0FBF3F01F
:10A170007047064B03FB00F0704700BF0010024021
:10A1800000127A0078BB000888BB000800093D0077
:10A19000002800F0A08070B50D460446524B1B68A5
:10A1A00003F007038B420BD24F4A136823F00703D7
:10A1B0000B431360136803F007038B4240F08D805C
:10A1C000236813F0020F17D013F0040F04D0474A8E
:10A1D000536843F4E0635360236813F0080F04D01E
:10A1E000424A536843F460535360404A536823F033
:10A1F000F003A1680B435360236813F0010F31D0C3
:10A200006368012B20D0022B25D0384A126812F047
:10A21000020F64D035494A6822F0030213434B60B1
:10A22000FFF7DCFA0646314B5B6803F00C0362680B
:10A23000B3EB820F16D0FFF7D1FA801B41F28833BF
:10A240009842F0D9032045E0284A126812F4003FF2
:10A25000E0D101203EE0254A126812F0007FD9D1FA
:10A26000012037E0204B1B6803F00703AB420AD9FB
:10A270001D4A136823F007032B431360136803F090
:10A280000703AB422DD1236813F0040F06D0174A01
:10A29000536823F4E063E1680B435360236813F0D1
:10A2A000080F07D0114A536823F46053216943EA29
:10A2B000C1035360FFF742FF0C4B5B68C3F303130A
:10A2C0000B4AD35CD8400B4B18600B4B1868FFF758
:10A2D00041FA002070BD012070470120FAE70120FB
:10A2E000F8E70120F6E700BF00200240001002401E
:10A2F00060BB00084000002048000020014B1868A7
:10A30000704700BF4000002008B5FFF7F7FF044B7F
:10A310005B68C3F30223034AD35CD84008BD00BF87
:10A320000010024070BB000808B5FFF7E7FF044BC0
:10A330005B68C3F3C223034AD35CD84008BD00BFA7
:10A340000010024070BB00087047000008B5064BC3
:10A350009B6813F0800F00D108BDFFF7F5FF024B9B
:10A3600080229A72F8E700BF0010024070B582B0F8
:10A370000446036813F0010F36D03F4BDB6913F03E
:10A38000805F49D13C4BDA6942F08052DA61DB6987
:10A3900003F080530193019B0125384B1B6813F494
:10A3A000807F3BD0344B1B6A13F4407313D0626838
:10A3B00002F440729A420ED02F4A136A23F440707E
:10A3C0002F490126C1F840640026C1F8406410629C
:10A3D00013F0010F36D1284A136A23F440736168E1
:10A3E0000B431362002D3ED1236813F0020F06D0F9
:10A3F000214A536823F44043A1680B435360236808
:10A4000013F0100F34D01C4A536823F48003E16822
:10A410000B43536000202CE00025BEE7174A136869
:10A4200043F480731360FFF7D9F90646134B1B689A
:10A4300013F4807FB6D1FFF7D1F9801B6428F5D9DA
:10A44000032016E0FFF7CAF906460B4B1B6A13F010
:10A45000020FC0D1FFF7C2F9801B41F28833984246
:10A46000F3D9032005E0D36923F08053D361BBE720
:10A47000002002B070BD00BF00100240007000401C
:10A480000000424208B502284ED0102803D001280F
:10A4900028D0002008BD2B4B5A68186810F0807037
:10A4A000F8D0C2F383432849C85C12F4803F15D02A
:10A4B000244B5B68C3F34043244AD25C244BB3FB78
:10A4C000F2F303FB00F01F4B5B6813F4800FE1D144
:10A4D0004000204BA3FB00304008DBE71E4B03FB92
:10A4E00000F0F0E7174B1B6A40F202321A40B2F557
:10A4F000817F24D003F44073B3F5007F04D0B3F51B
:10A50000407F09D00020C5E70E4A526A12F0020FC0
:10A51000F5D049F64040BDE70A4B186810F400300A
:10A52000B8D04FF22440B5E7FFF7FEFE054B5B685D
:10A53000C3F3813301335B00B0FBF3F0AAE74FF4C0
:10A540000040A7E7001002408CBB00089CBB00083D
:10A5500000127A00ABAAAAAA00093D0010B4026852
:10A5600094691FFA84FCD369916988B2844505D047
:10A57000D06980B240EA014010BC704798B240EA0E
:10A580000440F9E70368186A5B6A9BB243EA00403B
:10A590007047030903EB830300F00F0000EB430057
:10A5A000C0B2704700F5FA6C022921D801EB4103D3
:10A5B000C1EBC3011E4BA3FB011302EB5303634426
:10A5C00000F2CF7003EB90031A4AA2FB0020A3EB2A
:10A5D000501303EBD01304331748A0FB03201A1ABF
:10A5E00000EB52008008C0EBC000181AC0B27047E0
:10A5F00001EB4103C1EBC3010D4BA3FB011302EBC4
:10A600005303634403EB9C030A4AA2FB0C2CA3EB09
:10A610005C1303EBDC1302330748A0FB03201A1A78
:10A6200000EB52008008C0EBC000181ADEE700BF44
:10A63000398EE3381F85EB512549922438B50446FD
:10A64000FFF7CCF8054623685A6812F0200F07D1AF
:10A65000FFF7C4F8401BB0F57A7FF4D9032004E07B
:10A660005A6842F010025A60002038BD38B50446DE
:10A670000268536823F010035360FFF7AFF80546F4
:10A6800023685B6813F0200F07D1FFF7A7F8401B82
:10A69000B0F57A7FF4D9032000E0002038BD38B54A
:10A6A00005460C46FFF7CAFF08B1012038BD2B68EC
:10A6B000220C9A612B68A4B2DC612846FFF7D6FF12
:10A6C0000028F3D00120F1E738B505460C46FFF726
:10A6D000B5FF08B1012038BD2B68220C1A622B6827
:10A6E000A4B25C622846FFF7C1FF0028F3D0012026
:10A6F000F1E770B5002857D00D460646002955D021
:10A70000037C012B54D00123037402234374BAB990
:10A7100008784B78C3EB03139C004FF4616303FB91
:10A7200000448878044421463046FFF7B8FF0546C8
:10A73000C8B104237374002333740125284670BD07
:10A740000878FFF726FF4FF4616400FB04F4687893
:10A75000FFF71FFFC0EB001004EB8004A878FFF7A1
:10A7600018FF0444DFE73268536823F005035360A1
:10A770003046FFF707FFB0F1FF3F01D0844204D815
:10A780000123737400233374D8E700F5A83101F571
:10A79000C0713046FFF798FF0028F1D0042373748E
:10A7A000002333740125C9E70125C7E70125C5E763
:10A7B0000225C3E700285AD038B50D4604460029C3
:10A7C00057D0037C012B56D001230374022343741A
:10A7D000BAB9CB78C3734B7843738B788373A27BFE
:10A7E000617BE07BFFF7DEFE207328702046FFF7D9
:10A7F000B5FE224B984211D80123637400202074C7
:10A8000038BDC878FFF7C5FEE0736878FFF7C1FE72
:10A810006073A878FFF7BDFEA073E0E7184DA5FBB5
:10A8200000352D0C174B03FB150529462046FFF775
:10A8300036FF28B104236374002323740120DFE76B
:10A840002046FFF79FFEB0F1FF3FD5D08542D3D918
:10A8500000F5A83101F5C0712046FFF735FF00284B
:10A86000CAD004236374002323740120C8E70120A5
:10A8700070470120C4E70220C2E700BF8F5F0100DC
:10A8800007452EC280510100C0B138B505460268A7
:10A89000536823F008035360FEF7A0FF04462B68BB
:10A8A0005B6813F0080F07D1FEF798FF001BB0F5A7
:10A8B0007A7FF4D9032000E0002038BD01207047E2
:10A8C000002850D010B50446437C4BB1022363747A
:10A8D0002046FFF7D9FF38B104236374012010BD6F
:10A8E0000374FEF74DFAF1E72046FFF7A7FE28BBF9
:10A8F0002268536823F007035360A36823B11B4AFF
:10A90000136B23F001031363184AD36A23F46073B3
:10A91000A1680B43D3626368B3F1FF3F12D0226892
:10A92000C3F30341916022689BB2D3602046FFF7D6
:10A930009DFE88B1042363740120D0E7042363746F
:10A940000120CCE70120FFF79DFD08B1431EE6E79B
:10A95000042363740120C2E70023E37301236373BC
:10A96000A3736374BBE70120704700BF006C004015
:10A97000890001F1804101F5D84192B20A60704727
:10A9800070B4036A026A22F00102026246688269B8
:10A9900022F073020C6844EA020523F002028B687D
:10A9A00013430D4CA04209D00B4CA0420DD0466081
:10A9B00085614A684263036270BC704723F00803F4
:10A9C000CA68134323F00403EEE726F440764A698D
:10A9D00032438E691643EAE7002C014030B4036A23
:10A9E000026A22F4807202624568C26922F0730230
:10A9F0000C68224323F400738C6843EA04230F4C51
:10AA0000A04209D00D4CA0420ED04560C2614A68F8
:10AA1000C263036230BC704723F40063CC6843EA2E
:10AA2000042323F48063EDE725F440554C6945EA9F
:10AA300004158C6945EA0415E7E700BF002C0140C6
:10AA400030B4036A026A22F4805202624468C26926
:10AA500022F4E6420D6842EA052223F400538D6891
:10AA600043EA0533074DA84206D04460C2614A68F4
:10AA70000264036230BC704724F480444D6944EAA8
:10AA80008514F2E7002C014010B4036A046A24F034
:10AA900001040462846924F0F00C4CEA021223F0F1
:10AAA0000A030B438261036210BC704730B4056A2D
:10AAB000046A24F010040462846924F4407C4CEAA3
:10AAC000022C2CF4704C1B039BB243EA0C0325F0C0
:10AAD000A005090101F0A00129438361016230BC96
:10AAE000704710B4036A046A24F010040462846995
:10AAF00024F4704C4CEA023223F0A00343EA011321
:10AB00008261036210BC704730B4056A046A24F4A1
:10AB100080740462C46924F0030C4CEA020C2CF02B
:10AB2000F00C1B01DBB243EA0C0325F400750902AB
:10AB300001F400712943C361016230BC704730B435
:10AB4000056A046A24F480540462C46924F4407CD5
:10AB50004CEA022C2CF4704C1B039BB243EA0C030E
:10AB600025F40055090301F400512943C361016232
:10AB700030BC7047836823F070030B4343F0070336
:10AB80008360704790F83D30DBB2012B22D1022365
:10AB900080F83D300368114A934210D0B3F1804FE2
:10ABA0000DD0A2F59432934209D002F5806293420F
:10ABB00005D01A6842F001021A60002070479A68B6
:10ABC00002F00702062A07D01A6842F001021A6052
:10ABD000002070470120704700207047002C014082
:10ABE00070470C2914D8DFE801F0071313130A1378
:10ABF00013130D13131310000368586B7047036889
:10AC0000986B70470368D86B70470368186C70477F
:10AC100000207047704770477047704710B5044672
:10AC200003681A6912F0020F11D0DA6812F0020FED
:10AC30000DD06FF002021A610123037703689B694C
:10AC400013F0030F70D0FEF7E7F900232377236892
:10AC50001A6912F0040F12D0DA6812F0040F0ED045
:10AC60006FF004021A610223237723689B6913F4AF
:10AC7000407F5FD02046FEF7CFF90023237723687B
:10AC80001A6912F0080F12D0DA6812F0080F0ED00D
:10AC90006FF008021A61042323772368DB6913F03D
:10ACA000030F4ED02046FEF7B7F900232377236821
:10ACB0001A6912F0100F12D0DA6812F0100F0ED0CD
:10ACC0006FF010021A61082323772368DB6913F4FD
:10ACD000407F3DD02046FEF79FF90023237723686D
:10ACE0001A6912F0010F03D0DA6812F0010F36D1A1
:10ACF00023681A6912F0800F03D0DA6812F0800F0F
:10AD000034D123681A6912F0400F03D0DA6812F0C8
:10AD1000400F32D123681A6912F0200F03D0DA688D
:10AD200012F0200F30D110BDFFF775FF2046FFF75E
:10AD300073FF8AE72046FFF76EFF2046FFF76CFFA0
:10AD40009BE72046FFF767FF2046FFF765FFACE76C
:10AD50002046FFF760FF2046FFF75EFFBDE76FF07C
:10AD600001021A612046FFF755FFC1E76FF080022C
:10AD70001A61204600F0E5FBC3E76FF040021A615C
:10AD80002046FFF74AFFC5E76FF020021A61204610
:10AD900000F0D6FBC7E7000003681B4A90420AD0C8
:10ADA000B0F1804F07D0A2F59432904203D002F563
:10ADB0008062904203D123F070034A681343124A21
:10ADC00090420AD0B0F1804F07D0A2F59432904261
:10ADD00003D002F58062904203D123F44073CA6825
:10ADE000134323F080034A69134303608B68C362F3
:10ADF0000B688362044B984202D001234361704781
:10AE00000B690363F9E700BF002C014040B310B5A4
:10AE1000044690F83D30F3B1022384F83D302146DA
:10AE200051F8040BFFF7B8FF012384F8463084F88B
:10AE30003E3084F83F3084F8403084F8413084F864
:10AE4000423084F8433084F8443084F8453084F844
:10AE50003D30002010BD80F83C30FEF7EDFADBE716
:10AE60000120704740B310B5044690F83D30F3B16F
:10AE7000022384F83D30214651F8040BFFF78CFF84
:10AE8000012384F8463084F83E3084F83F3084F85B
:10AE9000403084F8413084F8423084F8433084F8FC
:10AEA000443084F8453084F83D30002010BD80F8EF
:10AEB0003C30FFF795FEDBE70120704740B310B54B
:10AEC000044690F83D30F3B1022384F83D3021462A
:10AED00051F8040BFFF760FF012384F8463084F833
:10AEE0003E3084F83F3084F8403084F8413084F8B4
:10AEF000423084F8433084F8443084F8453084F894
:10AF00003D30002010BD80F83C30FEF755FADBE7FD
:10AF10000120704730B4036A026A22F01002026214
:10AF20004468826922F4E6420D6842EA052223F071
:10AF300020038D6843EA05130E4DA84209D00D4D3C
:10AF4000A8420ED0446082614A688263036230BCCA
:10AF5000704723F08003CD6843EA051323F04003D4
:10AF6000EDE724F440644D6944EA85048D6944EAC0
:10AF70008504E7E7002C014038B590F83C30012B00
:10AF800066D004460D46012380F83C300C2A5AD87E
:10AF9000DFE802F0075959591B5959593059595985
:10AFA00044000068FFF7ECFC2268936943F0080353
:10AFB00093612268936923F0040393612268936983
:10AFC00029690B43936100203EE00068FFF7A2FF70
:10AFD0002268936943F4006393612268936923F4C0
:10AFE0008063936122689369296943EA012393612D
:10AFF000002029E00068FFF7F1FC2268D36943F0E4
:10B000000803D3612268D36923F00403D361226863
:10B01000D36929690B43D361002015E00068FFF76D
:10B020000FFD2268D36943F40063D3612268D369BA
:10B0300023F48063D3612268D369296943EA012339
:10B04000D361002000E00120002384F83C3038BDAB
:10B050000220FCE770B4056A046A24F0010404626B
:10B060008469114EB0420DD0B0F1804F0AD0A6F5E0
:10B070009436B04206D006F58066B04202D044F065
:10B08000010202E024F00304224322F0F0021B013B
:10B09000DBB2134325F00A0201F00A011143836178
:10B0A000016270BC704700BF002C014038B590F8B9
:10B0B0003C30012B5AD004460D46012380F83C3029
:10B0C00052B1042A1AD0082A2BD00C2A3BD00120D6
:10B0D000002384F83C3038BDCB684A6809680068B2
:10B0E000FFF7B8FF2268936923F00C03936122688D
:10B0F0009369A9680B4393610020E9E7CB684A682C
:10B1000009680068FFF7D2FC2268936923F4406362
:10B11000936122689369A96843EA0123936100203F
:10B12000D6E7CB684A6809680068FFF7EDFC22683B
:10B13000D36923F00C03D3612268D369A9680B4358
:10B14000D3610020C4E7CB684A6809680068FFF74C
:10B15000F6FC2268D36923F44063D3612268D36983
:10B16000A96843EA0123D3610020B1E70220B2E7D6
:10B1700010B4846824F47F4C42EA03220A4342EA72
:10B180000C02826010BC704790F83C30012B78D0E4
:10B1900010B50446012380F83C30022380F83D308E
:10B1A0000268936823F47F4323F0770393600B686E
:10B1B000602B4CD029D8402B54D00CD9502B22D105
:10B1C000CA6849680068FFF75FFC50212068FFF7F4
:10B1D000D1FC002005E0202B0DD009D9302B0AD05E
:10B1E0000120012384F83D30002384F83C3010BD59
:10B1F0000BB1102B05D119462068FFF7BBFC0020CE
:10B20000EFE70120EDE70120EBE7B3F5805F34D0F5
:10B21000B3F5005F0CD1CB684A6889680068FFF716
:10B22000A7FF2268936843F4804393600020D8E727
:10B23000702B24D1CB684A6889680068FFF798FFB3
:10B240002268936843F0770393600020C9E7CA68D7
:10B2500049680068FFF745FC60212068FFF78AFC19
:10B260000020BEE7CA6849680068FFF70DFC40216E
:10B270002068FFF77FFC0020B3E70020B1E7012042
:10B28000AFE70220704701F01F01012303FA01FC20
:10B29000036A23EA0C030362036A02FA01F10B4317
:10B2A0000362704710B50446084651BB94F83E301F
:10B2B000DBB2013B18BF0123002B5BD1002839D141
:10B2C000022384F83E30012201462068FFF7DBFFAD
:10B2D00023682A4A93423DD02368284A93423ED0AD
:10B2E000B3F1804F3BD0A2F59432934237D002F5B0
:10B2F0008062934233D01A6842F001021A60002043
:10B3000039E0042908D008290DD094F84130DBB287
:10B31000013B18BF0123CFE794F83F30DBB2013B7C
:10B3200018BF0123C8E794F84030DBB2013B18BFD7
:10B330000123C1E7042805D0082807D0022384F898
:10B340004130C0E7022384F83F30BCE7022384F891
:10B350004030B8E75A6C42F400425A64BCE79A683D
:10B3600002F00702062A07D01A6842F001021A60AA
:10B37000002000E0012010BD0020FCE7002C01406F
:10B3800010B504460B4609BB90F83E00C0B26BBB3B
:10B3900094F84220D2B2012840F09480012A40F073
:10B3A00092809BBB022184F83E10002B3ED10221EB
:10B3B00084F842100C2B00F28780DFE803F0478509
:10B3C0008585668585856C8585857200042905D00F
:10B3D000082907D090F84100C0B2D8E790F83F00A4
:10B3E000C0B2D4E790F84000C0B2D0E7042B05D03B
:10B3F000082B07D094F84520D2B2CCE794F843202C
:10B40000D2B2C8E794F84420D2B2C4E7042B05D0E6
:10B41000082B07D0022184F84110C6E7022184F8E6
:10B420003F10C2E7022184F84010BEE7042B05D08C
:10B43000082B07D0022184F84510BBE7022184F8CD
:10B440004310B7E7022184F84410B3E72168CA68C3
:10B4500042F00202CA60012219462068FFF713FF7A
:10B4600023681B4A934222D0B3F1804F1FD0A2F52C
:10B47000943293421BD002F58062934217D01A682F
:10B4800042F001021A6000201DE02168CA6842F003
:10B490000402CA60DFE72168CA6842F00802CA6095
:10B4A000D9E72168CA6842F01002CA60D3E79A68F7
:10B4B00002F00702062A09D01A6842F001021A6057
:10B4C000002000E0012010BD1046FCE70020FAE754
:10B4D000002C014090F83C30012B2CD010B40123FB
:10B4E00080F83C30022380F83D3003685A689C683D
:10B4F00022F0700C0A6842EA0C025A6003680F4A94
:10B5000093420AD0B3F1804F07D0A2F59432934210
:10B5100003D002F58062934204D124F080044A688B
:10B5200014439C60012380F83D30002380F83C30B8
:10B53000184610BC70470220704700BF002C014025
:10B5400070477047026802F10C0353E8003F23F490
:10B5500090730C3242E800310029F3D1026802F105
:10B56000140353E8003F23F00103143242E8003192
:10B570000029F3D1036B012B05D0202380F8423042
:10B58000002303637047026802F10C0353E8003F95
:10B5900023F010030C3242E800310029F3D1ECE72C
:10B5A00090F84130DBB2212B01D002207047836834
:10B5B000B3F5805F17D0036A5A1C02621A780368D9
:10B5C0005A60C38C9BB2013B9BB2C3844BB90268E7
:10B5D000D36823F08003D3600268D36843F040034C
:10B5E000D360002070470369002BE4D1036A1B88F5
:10B5F0000268C3F308035360036A02330362E0E79F
:10B6000010B504460268136923F44053C1680B4324
:10B61000136183680269134342691A430168CB6866
:10B6200023F4B05323F00C031343CB600268536937
:10B6300023F4407381690B4353610268134B9A42B0
:10B6400020D0FEF761FE024602EB820202EB82028C
:10B6500063689B00B2FBF3F20D48A0FB023149097D
:10B66000642303FB11231B013233A0FB03235B097B
:10B6700003F0F00202EB011203F00F032168134400
:10B680008B6010BDFEF750FE0246DDE7003801403A
:10B690001F85EB5160B310B5044690F8413013B3E9
:10B6A000242384F841302268D36823F40053D36004
:10B6B0002046FFF7A5FF2268136923F49043136126
:10B6C0002268536923F02A0353612268D36843F444
:10B6D0000053D36000206064202384F8413084F854
:10B6E0004230606310BD80F84030FDF79BFFD7E724
:10B6F00001207047704708B50168CA6822F040020F
:10B70000CA60202280F84120FFF7F4FF002008BD26
:10B71000704708B5406A0023C385C384FFF7F8FF6C
:10B7200008BD704790F84230DBB2222B69D18368A4
:10B73000B3F5805F4FD0826AB3F5805F04D0002BF1
:10B7400056D10369002B53D103685B681370836A79
:10B7500001338362C38D9BB2013B9BB2C385002B37
:10B7600051D100B583B00268D36823F02003D360C1
:10B770000268D36823F48073D3600268536923F0AE
:10B7800001035361202380F8423000234363036B9D
:10B79000012B33D100230363026802F10C0353E849
:10B7A000003F23F010030C3242E800310029F3D1AE
:10B7B00003681A6812F0100F06D0002201921A686E
:10B7C00001925B680193019B818DFFF7AAFF002026
:10B7D00003B05DF804FB0269002AACD1826A0368F9
:10B7E0005B68C3F308031380836A02338362B1E7A3
:10B7F00003685B6803F07F031370A8E7FDF710FD93
:10B80000E5E70220704700207047000030B583B0A4
:10B81000044602681368D068516913F00F0505D11A
:10B8200013F0200F02D010F0200F19D12DB111F01C
:10B83000010119D110F4907F16D1216B01297DD01F
:10B8400013F0800F03D010F0800F40F0188113F038
:10B85000400F03D010F0400F40F0158103B030BD11
:10B860002046FFF75FFFF9E713F0010F06D010F451
:10B87000807F03D0626C42F00102626413F0040F17
:10B8800004D019B1626C42F00202626413F0020F3C
:10B8900004D019B1626C42F00402626413F0080F24
:10B8A00007D010F0200F00D119B1626C42F00802ED
:10B8B0006264626C002AD1D013F0200F02D010F025
:10B8C000200F29D123685B6903F04003626C12F0FA
:10B8D000080F00D163B32046FFF734FE23685B698D
:10B8E00013F0400F20D0226802F1140353E8003F08
:10B8F00023F04003143242E800310029F3D1E36B16
:10B9000073B1634A5A63E06BFEF710F80028A5D0C4
:10B91000E06B436B9847A1E72046FFF703FFD1E7B1
:10B920002046FFF7F5FE99E72046FFF7F1FE95E781
:10B930002046FFF7EDFE002363648FE713F0100F3E
:10B940003FF47EAF10F0100F3FF47AAF0023019365
:10B950001368019353680193019B536913F0400FDF
:10B9600051D0E26B13685B689BB2002B3FF476AF5B
:10B97000A18D99427FF672AFE3859369202B37D072
:10B98000226802F10C0353E8003F23F480730C3269
:10B9900042E800310029F3D1226802F1140353E890
:10B9A000003F23F00103143242E800310029F3D1B3
:10B9B000226802F1140353E8003F23F040031432DD
:10B9C00042E800310029F3D1202384F842300023DB
:10B9D0002363226802F10C0353E8003F23F01003B5
:10B9E0000C3242E800310029F3D1E06BFDF77AFF19
:10B9F00002236363A18DE38D9BB2C91A89B22046ED
:10BA0000FFF78FFE2AE7A18DE38D9BB2C91A89B299
:10BA1000E38D9BB2002B3FF421AF00293FF41EAF12
:10BA2000226802F10C0353E8003F23F490730C32B8
:10BA300042E800300028F3D1226802F1140353E8F1
:10BA4000003F23F00103143242E800300028F3D114
:10BA5000202384F8423000232363226802F10C0380
:10BA600053E8003F23F010030C3242E80030002876
:10BA7000F3D1022363632046FFF753FEEEE6204630
:10BA8000FFF78EFDEAE62046FFF735FEE6E600BF4B
:10BA900013B7000881628285C28500234364222394
:10BAA00080F84230036923B10268D36843F480739D
:10BAB000D3600268536943F0010353610268D3689D
:10BAC00043F02003D3600020704708B590F842305F
:10BAD000DBB2202B08D149B10AB9012008BD0023EF
:10BAE0000363FFF7D7FFF9E70220F7E70120F5E747
:10BAF00070B500260C4D0D4C641BA410A64209D154
:10BB000000F022F800260A4D0A4C641BA410A6423D
:10BB100005D170BD55F8043B98470136EEE755F85E
:10BB2000043B98470136F2E7A0BB0008A0BB000821
:10BB3000A0BB0008A4BB000803460244934200D106
:10BB4000704703F8011BF9E7F8B500BFF8BC08BC63
:10BB50009E467047F8B500BFF8BC08BC9E467047CB
:10BB600000000000000000000102030406070809AD
:10BB7000000000000102030402030405060708098F
:10BB80000A0B0C0D0E0F1010010200000203040539
:10BB9000060708090A0B0C0D0E0F10100102000019
:04BBA00035810008E3
:04BBA4001181000803
:10BBA8000F1000004D0AC800000064004D0AC800CC
:10BBB800000064004D0AC80000006400400CC80082
:10BBC800000064002D09C80000006400A908C8002E
:10BBD800000064002D09C800000064000000F401A2
:0CBBE8000024F400010000001000000028
:04000005080097094F
:00000001FF
