:020000040800F2
:10000000080B002035020008E7240008DB23000865
:10001000E5240008711600085F27000800000000B2
:10002000000000000000000000000000E5250008BE
:100030007316000800000000E3250008E925000809
:100040004F0200084F0200084F0200084F0200084C
:100050004F0200084F0200084F0200084F0200083C
:100060004F0200084F0200084F0200084F0200082C
:100070004F0200084F0200084F0200084F0200081C
:100080004F0200084F0200084F0200084F0200080C
:100090004F0200084F0200084F0200084F020008FC
:1000A0004F0200084F0200084F0200084F020008EC
:1000B0004F0200084F0200084F0200084F020008DC
:1000C0004F0200084F0200084F0200084F020008CC
:1000D0004F0200084F0200084F0200084F020008BC
:1000E0004F0200084F0200084F02000800F002F81B
:1000F00000F090F80AA090E8000C82448344AAF132
:100100000107DA4501D100F085F8AFF2090EBAE82F
:100110000F0013F0010F18BFFB1A43F0010318473B
:10012000E44C0000044D0000103A24BF78C878C1A8
:10013000FAD8520724BF30C830C144BF04680C60ED
:10014000704700000023002400250026103A28BF35
:1001500078C1FBD8520728BF30C148BF0B60704739
:100160006E2900F07B82702900F0BF83662903F0BE
:100170003F83652903F03C83672903F039836129B4
:1001800003F0388303681B0A28BF41F08001692906
:1001900000F02882642900F02582752900F022826F
:1001A0006F2900F04D83782900F08B83E92900F056
:1001B000E782E42900F0E482F52900F0E182EF29EA
:1001C00000F04A83F82900F08A830368DB0928BF1E
:1001D00041F08001632901F08B80732901F0908048
:1001E000E32901F09B80F32901F0A08000207047F3
:1001F0001FB501F0F1F804000020002103F0E2FA3D
:10020000401C60600020002103F0C6FAE0601FBDC2
:1002100010B510BD01F0B2F81146FFF7E9FF02F08A
:10022000C7FE01F08FF903B4FFF7F2FF03BC01F042
:1002300097F900000948804709480047FEE7FEE7B4
:10024000FEE7FEE7FEE7FEE7FEE7FEE7FEE7FEE786
:1002500004480549054A064B70470000712600080E
:10026000ED00000808050020080B0020080700200A
:1002700008070020B2F120030AD5C2F1200320FABA
:1002800002F001FA03F340EA030021FA02F1704799
:1002900021FA03F04FF00001704700007CB51D46C5
:1002A00016460C00009007D04142A14202D32044E0
:1002B000401E01E04FF0FF30064B7B442A46694662
:1002C0000190304600F0E3F9002C02D0009A0021A2
:1002D00011707CBDF703000010B5431C02E010F85C
:1002E000011B71B18107FAD14FF0013202C88C1A9B
:1002F0008C4314EAC211F9D0C01A0A0603D0C01EFA
:1003000010BDC01A10BD0A0401D0801E10BD090224
:10031000FCD0401E10BD032A40F2308010F0030CC8
:1003200000F0158011F8013BBCF1020F624498BF48
:1003300011F801CB00F8013B38BF11F8013BA2F1E5
:10034000040298BF00F801CB38BF00F8013B11F060
:10035000030300F02580083AC0F0088051F8043B00
:10036000083A51F804CBA0E80810F5E7121D5CBF6D
:1003700051F8043B40F8043BAFF30080D20724BFA0
:1003800011F8013B11F801CB48BF11F8012B24BF34
:1003900000F8013B00F801CB48BF00F8012B704783
:1003A00010B5203AC0F00B80B1E81850A0E8185002
:1003B000B1E81850A0E81850203ABFF4F5AF5FEA52
:1003C000027C24BFB1E81850A0E8185044BF18C9F7
:1003D00018C0BDE810405FEA827C24BF51F8043B9E
:1003E00040F8043B08BF7047D20728BF31F8023BF2
:1003F00048BF11F8012B28BF20F8023B48BF00F886
:10040000012B70474FF000020429C0F0128010F059
:10041000030C00F01B80CCF1040CBCF1020F18BFE0
:1004200000F8012BA8BF20F8022BA1EB0C0100F073
:100430000DB85FEAC17C24BF00F8012B00F8012B46
:1004400048BF00F8012B70474FF0000200B513467B
:1004500094469646203922BFA0E80C50A0E80C50E4
:10046000B1F12001BFF4F7AF090728BFA0E80C5095
:1004700048BF0CC05DF804EB890028BF40F8042B8E
:1004800008BF704748BF20F8022B11F0804F18BFFB
:1004900000F8012B704700004FF0013C50F8042B8E
:1004A00051F8043B9A4221D1A2EB0C03934313EA87
:1004B000CC1317D150F8042B51F8043B9A4215D1B4
:1004C000A2EB0C03934313EACC130BD150F8042B8B
:1004D00051F8043B9A4209D1A2EB0C03934313EA6F
:1004E000CC13DBD04FF00000704700BFD01A01BA28
:1004F000B1FA81F101F0180122FA01F0CB40DBB230
:10050000C0B2C01AC1F120012CFA01F3D11A9143F3
:1005100011EAC311E6D1704770477047704770B554
:10052000044685690068C10601D5302600E0202612
:10053000C00707D070BDD4E9012130469047206A3A
:10054000401C20626D1EF6D570BD70B504468569ED
:100550000078C00707D170BDD4E901212020904761
:10056000206A401C20626D1EF6D570BD09684A05E0
:1005700001D540B27047C905FCD500B27047096883
:100580004A0501D5C0B27047C905FCD580B2704795
:1005900070B50C460546012A05D02878800600D59E
:1005A000EA69002302E0012305E05B1C934202D2CA
:1005B000E05C0028F9D1A869E618C01AA861286A89
:1005C000184428622846FFF7AAFF04E0D5E9012174
:1005D00014F8010B9047B442F8D32846FFF7B5FF53
:1005E00070BD00002DE9F041064600241068752911
:1005F000314616A510D0FFF7B9FF002802DA4042B5
:1006000013A507E031688A0701D512A502E0490762
:1006100004D511A5012401E0FFF7B1FF00210A2252
:1006200006F1240709E0B0FBF2FCB0FBF2F302FB99
:100630001C00303078541846491C0028F3D123465A
:100640002A463046BDE8F04100F063BA00000000E1
:100650002D0000002B00000020000000116802683F
:10066000006A530501D508700AE0D30501D508805A
:1006700006E0130603D5C217C1E9000200E00860D6
:100680000120704701694A1C02610878704700B573
:100690008FB0CDE901310021059105497944CDE9BB
:1006A00003101146684600F02BF90FB000BD0000A2
:1006B000E5FFFFFFD1E900239A4202D2531C0B60F1
:1006C000107070472DE9FF5F15468A460446DFF833
:1006D000AC80F8440027D8E900103E46CDE9001070
:1006E00010E03AF816106A4602A800F023FE411CFA
:1006F00007D02178890603D5E269391891420DD8CF
:100700000744761C2078800602D5E069B84205DDF2
:10071000AE42E6DB3AF816000028E2D1A069C01B21
:10072000A0612046FFF7FBFED8E90010CDE90010DC
:10073000002017E03AF818106A4602A800F0FAFD07
:10074000B0F1FF3F81460BD000250DF1080B05E00D
:10075000D4E901211BF8050090476D1C4D45F7D3E6
:1007600008F10100B0428046E4DB206A3844206290
:100770002046FFF7EAFEBDE8FF9F0000223100009F
:100780002DE9F0418046D21D22F007020025D2E972
:100790000002F52915A614D0011E72F1000106DA37
:1007A0000023D0EB030063EB020211A608E0D8F8A7
:1007B00000108B0701D50FA602E0490701D50EA650
:1007C00001251146002408F1240704E000F05CF93B
:1007D00030323A55641C50EA0102F7D12B463246BA
:1007E00021464046BDE8F04100F093B9000000000A
:1007F0002D0000002B0000002000000030B400217C
:1008000000F1240408E002F00705D208303542EA7E
:100810004372DB086554491C52EA0305F3D10468AE
:10082000002310A2250708D504F020040C4304D0AF
:10083000C46901230CA2641EC46130BC00F069B914
:1008400010B5044621461068FFF799FE024620467F
:10085000BDE810400023D1E7D21D22F00701D1E905
:100860000023CBE70000000030000000F0B40D468C
:100870000188090502D5214C7C4402E01F4C7C44D0
:100880000E34002100F1240608E002F00F071209DF
:10089000E75D42EA03721B097754491C52EA0307D9
:1008A000F3D102780023120704D5702D06D009B1C8
:1008B000022311342246F0BC00F02BB9012310347E
:1008C000F8E770B504460D4621461068FFF757FE5D
:1008D000024629462046BDE870400023C6E7D21DE7
:1008E00022F00703D3E90023C0E70368126843F04E
:1008F000200303600823C3610023B7E7842F0000AF
:100900002DE9F05F894604464FF0000ADFF874B124
:10091000FB44C0F820A02046E1688847002874D036
:10092000252806D0D4E901219047206A401C206286
:10093000F1E700265F462046E16888472028054603
:1009400007DB312D05D2781910F8200C08B10643C9
:10095000F1E7B00701D526F00406C4F81CA0002773
:10096000C4F818A02A2D09D0284602F00DFF38B38C
:1009700004EB8708303DC8F8185019E059F8041BFB
:10098000204604EB87029161E1688847012F054604
:1009900018D1E069002820DA26F020061DE0D8F8FA
:1009A000180000EB800005EB40003038C8F8180054
:1009B0002046E1688847054602F0E6FE0028EED1B1
:1009C000012F0AD02E2D08D12046E16888477F1CD0
:1009D0000546022F46F02006C4DBA069002803DA92
:1009E000404246F00106A061F00701D026F0100653
:1009F0006C2D0BD0682D09D04C2D39D06A2D35D0F7
:100A0000742D35D07A2D33D016E038E0E1682F46CA
:100A100020468847B842054609D16C2F26D04FF4AE
:100A20008060E168064320468847054604E06C2F55
:100A30001AD04FF4807006430DB3A5F14100192878
:100A400002D8203546F400664A46294620462660EC
:100A50004E46FFF785FB80B101280BD0F61D26F02E
:100A6000070000F1080956E74020E4E78020D8E7B6
:100A70000020D6E706F104094DE7284652E7206A30
:100A8000BDE8F09F142F000030B5B0F10A0271F1FB
:100A900000034FEA900E4EEA817EB0EB0E0061EB50
:100AA00091014FEA101E4EEA017E10EB0E0041EB61
:100AB00011114FEA102E4EEA016E10EB0E0041EBC1
:100AC00011214FEA104E4EEA014E10EB0E0041EBA1
:100AD0001141401841F100014FEAD00040EA417055
:100AE0004FEAD1014FEA810444EA907410EB80058B
:100AF00044EB01046D1944EB0404521BA3414FF075
:100B0000000348BF0A3200D530BD401C41F100014E
:100B100030BD2DE9F0470D4699469246044600F156
:100B200024080168880604D5E06921F010012160DD
:100B300000E00120A84201DD471B00E00027A16979
:100B40007A1902EB0900081AA0612078C00602D4C5
:100B50002046FFF7E4FC002608E0D4E901211AF85A
:100B600006009047206A401C761C20624E45F4DB4C
:100B70002078C0060AD52046FFF7D1FC06E0D4E96C
:100B8000012130209047206A401C2062381EA7F1C6
:100B90000107F4DC07E0D4E9012118F805009047CB
:100BA000206A401C2062281EA5F10105F3DC2046C6
:100BB000FFF7CBFC2078000602D50220BDE8F087C5
:100BC0000120FBE72DE9FF4F0C461E464FF0FF3793
:100BD0008BB0D2E90001DDF860800A908A46C1F34B
:100BE0000A5505B93D46002108464FF00000BAF10C
:100BF000000F00F4400005DA00EB80004FF44001E4
:100C000001EA50004FEA9059B9F1010F00DDB946F1
:100C10000A9850EA4A000ED044F61050A5F2FF356B
:100C200045432F14B8F1000F1ED07542291E1EDD5A
:100C3000C9F100021CE0B8F1010F4FF0000001D033
:100C4000302103E0F24305E02154401CB042FBDBBD
:100C500030460022002121540B99C1F80880C1E9D7
:100C600000200FB0BDE8F08FBD1B6D1CDEE74A46CB
:100C700000DA694206A800F0F3FB06AB93E8070030
:100C800003AB83E8070050460A9902F0A0F98DE80B
:100C90000700A0F500501F3800900398002D0ADDD2
:100CA00042F21F014A460844002303A90390684604
:100CB00002F00AFC09E0A0F500504A461F38002364
:100CC00003A90390684602F014FC8DE807000004B5
:100CD000000C03D04FF0FF30410800E01046B8F19F
:100CE000000F03D00022009215461EE0751E05D4A9
:100CF000FFF7CAFE303262556D1EF9D5B3460122A8
:100D0000084302D000227F1C04E02078302801D163
:100D100000227F1E002A099784D01DE0112D07DADA
:100D2000FFF7B2FE303262556D1C50EA0102F5D178
:100D3000084302D00098C8B10EE00021681E05E00B
:100D4000235C625C63542254401E491C8142F7DBE1
:100D5000AB46A81B401E0990002004F80B000B981E
:100D6000099AC0F80880C0E9002B7AE711264FF0F5
:100D7000000857E72DE9F04F88460446D21D22F0BF
:100D8000070191B0D1E90001CDE90A0102F0E8FCC8
:100D900002460B98C00F01D02D2007E02068810784
:100DA00001D52B2002E0202101EAC000032A09908E
:100DB00001D0072A05DB03464146204600F010FB20
:100DC0000BE12078800601D5E06900E00620B8F14B
:100DD000650F814606D0B8F1660F18D0B8F1670FDD
:100DE00070D131E00020B9F1110F009001DB112327
:100DF00001E009F101030AAA01A90CA8FFF7E2FE2C
:100E0000DDE90C70002609F10105834647E0012069
:100E10004B4600904FF000470AAA01A90CA8FFF723
:100E2000D1FEDDE90DB00C995D46002610B909F13F
:100E300001000D18B9EB050003D4C0F1FF3609F12C
:100E40000105A5EB09002BE0B9F1010F01DA4FF024
:100E500001090020B9F1110F0090484601DD11236E
:100E600000E003460AAA01A90CA8FFF7ABFEDDE9E2
:100E70000C704D4600268346207800070AD4AB4507
:100E800000DA5D4601A8012D04DD411911F8011CAD
:100E9000302907D04F4502DA17F1040F04DA012098
:100EA00082460FE06D1EEEE7002F02DCED1B3E4494
:100EB00003E0781CA84200DD7D1CB81B00F1010A8C
:100EC0004FF000472078000703D4AA4501DB4FF01C
:100ED000FF3A0021B7F1004F0DF143088DF84310A0
:100EE00024D002202B23002F01DA7F422D230A2158
:100EF000021EA0F1010000DC5FB197FBF1FC97FB43
:100F0000F1F201FB1C7C17460CF1300C08F801CD06
:100F1000EEE7A8F1010003702188090501D54521FC
:100F200000E06521A0F1010800F8011C09980FA953
:100F3000A1EB0807FF1D00B10120411901EBEA7088
:100F4000A1693844081A401EA0612078C00602D466
:100F50002046FFF7E4FA099828B1D4E90121904727
:100F6000206A401C20622078C00622D52046FFF768
:100F7000D6FA1EE0002E04DBB34502DD01A8805D39
:100F800000E03020D4E901219047206A401C206213
:100F9000761CAAF101005FEA000A0AD100F01CFAEF
:100FA000C0680168405CD4E901219047206A401C78
:100FB0002062281EA5F10105DCDC07E0D4E901214F
:100FC00018F8010B9047206A401C2062381EA7F1D8
:100FD0000107F3DC2046FFF7B8FA032011B041E621
:100FE0002DE9F04F04460D46D21D22F0070089B0CE
:100FF000D0E900974846394602F0B2FB0246F80FA6
:1010000001D02D2307E02068810701D52B2302E0C2
:10101000202101EAC0038DF820300BB1012000E04F
:101020000020032A824601D0072A04DB29462046F5
:1010300000F0D6F93FE12078800601D40D2500E0CC
:10104000E569C7F30A560D2D49DA00214FEA175B0F
:1010500008464FF00000002F00F4400007DA00EBD4
:1010600080004FF4400100EBD07001EA6000811570
:10107000012901DD4FF0FF3100224FEA850CBCF160
:10108000180F06D31346ACF118004FF08052C2403F
:1010900003E04FF4801323FA0CF30CF10C0CBCF1B9
:1010A000200F04D3ACF1200C09FA0CF001E007FA90
:1010B0000CF000294FF0004801DD18B90FE00ED107
:1010C00040450CD319EB02095F4121B9404502D1DB
:1010D0009F4329EA0209BBEB175F00D0761C2088EA
:1010E000000502D57B48784402E07A4878441938F4
:1010F00008AA302302F80A30037C0AF10101002E0D
:101100000AF1020A53546A4602DC4FF0300101E052
:101110004FF031014FF001088DF8001002D0A6F217
:10112000FF3603E059EA470100D06B4E002D02DC88
:101130002178090704D54FF002082E218DF80110FF
:10114000C44600210BE0C7F303433F01C35C491CC5
:101150006D1E02F80830052908F1010801DA002D9A
:10116000F1DC00210CE000EB1973491C1B786D1EAB
:10117000082902F808304FEA091908F1010801DAD4
:10118000002DF0DC21688B0602D516E0A8F10108DD
:10119000E04505DD02EB080313F8013C302BF5D0E8
:1011A000B8F1000F09DD02EB080313F8013C2E2B08
:1011B00003D1090701D4A8F10108002D05DD3E2166
:1011C00002F808106D1E08F10108407C002E02F89C
:1011D000080008F1010804DA2D20764202F8080020
:1011E00002E02B2002F808000A214FF47A708642B0
:1011F00008F101080BDB96FBF0F3303302F80830FE
:1012000096FBF0F308F1010800FB136601E0642E81
:101210000CDB642096FBF0F3303302F8083096FBC9
:10122000F0F308F1010800FB136601E00A2E06DB6B
:1012300096FBF1F0303002F8080008F1010896FB47
:10124000F1F001FB1060303002F80800A16908F1EC
:10125000010808EB050202EB0A00081AA0612078D9
:10126000C00602D42046FFF75AF9216A08AE01EB06
:101270000A00206204E0D4E9012116F8010B90472E
:10128000BAF1010AF7D22078C00602D52046FFF74E
:1012900046F96E4609E016F8010B3E280FD0D4E956
:1012A00001219047206A401C2062B8F10108F2D267
:1012B0002046FFF74AF909B00320BDE8F08F206A05
:1012C0002844206203E0D4E90121302090476D1EBC
:1012D000EBD3F8E76227000002FCFFFF10B543697B
:1012E00013B1AFF3008001E0FFF752F9012010BD08
:1012F000127800F124010A7000224A700122EDE701
:1013000011684FF0FF32E9E710B5436913B1AFF34D
:10131000008001E0FFF7D6F9012010BD128800F12E
:10132000240182840022C2840122EDE711684FF07B
:10133000FF32E9E72DE9F04116460C46054600F07C
:1013400043F8036893F80101012807D0FF2C12D855
:10135000185D80B101202C70BDE8F081D3F8070141
:101360003246214603F20713C7182846BC46BDE89B
:10137000F041002360474FF0FF30EDE7754600F085
:10138000EBF8AE4605006946534620F00700854657
:1013900018B020B5FEF75CFFBDE820404FF0000616
:1013A0004FF000074FF000084FF0000BAC46ACE8E0
:1013B000C009ACE8C009ACE8C009ACE8C00921F03C
:1013C00007018D467047000010B500F005F8001DBC
:1013D00010BD00BFF123000000487047400000200E
:1013E0002DE9F0411F46044603260168072A01F44F
:1013F000006004DB08B116A505E016A503E008B1FE
:1014000015A500E015A521F010002060A069C01E00
:10141000A0610FB1401EA0612046FFF780F84FB1D8
:10142000D4E9012138469047206A401C2062C01C44
:10143000206206E0206AFAE7D4E9012115F8010BE1
:101440009047761EF8D22046FFF77FF8BDE8F0817E
:101450004E414E006E616E00494E4600696E660058
:101460002DE9F047814616468AB0354878440DC8C4
:101470008DE80D0032487844801C03AC0DC884E828
:101480000D0041F69B300844372190FBF1F290FBB0
:10149000F1F5A5F1800501FB12041B3C02D5644265
:1014A000012000E00020DFF898A080460027FA44E1
:1014B000AAF1BE0A0EE0E0070AD03246684607EB02
:1014C000470101230AEB810102F013F88DE80700C0
:1014D00064107F1C002CEED1194F7F44AE3F19E001
:1014E000E80715D007EB04100DF1180A90E80E007C
:1014F0008AE80E00C068F04201D19819089032467F
:10150000012306A903A801F0F4FF03AB83E8070059
:101510006D10641C002DE3D14FF001033246694683
:10152000B8F1000F03A802D001F0CEFF01E001F0F6
:10153000E0FFC9E90001C9F808200AB0BDE8F0875A
:101540006C24000010B50446AFF300802046BDE8CF
:101550001040FEF768BE00000048704720000020E1
:1015600001491820ABBEFEE72600020070470000CC
:1015700010B51E4800F0BAFF1D4C1E48617819B323
:101580006178A17801B3A17801291DD1617811B1E9
:101590006178012918D0184800F0A8FFA078C8B1D8
:1015A000A078012816D1154800F0A0FF04F108002A
:1015B00004F12801FEF770FF68B1002001F0D8FCAB
:1015C000002001F0B7FC0EA000F090FFBDE8104035
:1015D00001F0F8B810BD012001F0CAFC012001F0B3
:1015E000A9FC15A000F082FF01F01EFC394A00089A
:1015F0008000002082470008E2470008B13A000856
:101600000D0A56454E444F525F49443A2025642CFA
:10161000204D4F44554C455F49443A202564202DC8
:10162000204442475F4D53473A3E20496E76616CF5
:1016300069642068617368000D0A56454E444F5234
:101640005F49443A2025642C204D4F44554C455F5A
:1016500049443A202564202D204442475F4D53479A
:101660003A3E2056616C696420686173680000002E
:10167000FEE77047EFF3108072B6FEE7A148002145
:10168000C161A148016841F004010160016841F0B5
:1016900040010160704700BF9A490022CA619A491F
:1016A0000A6842F002020A604860086840F04000A0
:1016B0000860704725480168C90601D4002105E08B
:1016C0009049CA6942F00202CA61102102685207B9
:1016D00006D58C4A41F00401D36943F00103D3617C
:1016E0000269D20708D0874AD36943F00403D36163
:1016F000026922F00102026101607047F8B5134EE1
:10170000044600F0F7F90546671C3068C00709D0A9
:10171000002FFAD024B100F0EDF9401BA042F4D91B
:101720000320F8BD3068800644BF20203060306858
:10173000C00607D43069C00704D1306840075CBFD9
:101740000020F8BDFFF7B6FF0120F8BD0C200240D5
:1017500010B50223437122B108C90468013A23601D
:10176000F9E70168012209684271084610BD60B1BD
:1017700010B50446407920B900202071204600F0C1
:1017800007F801206071002010BD012070470000A3
:1017900081B000680749884209D10748016841F0D3
:1017A00040010160006800F040000090009801B026
:1017B000704700BF00300240141002402DE9F04194
:1017C000DFF84081054698F81800012801D1022071
:1017D00018E001202E680C4688F8180000F09DFEE5
:1017E000022E0AD150B9FFF749FF00F096FE464994
:1017F0000A6822F004020A6001E030B101200021F1
:1018000088F81810C0B2BDE8F0814FF0FF303E4FAD
:1018100020600120A9680E46EA6801EB82218E4211
:10182000EDD23046FFF738FF00F077FE396821F03F
:101830000201396020B9A96806F580660020EBE74F
:101840002660DCE70721016007494A6882600A6870
:1018500092074FF0000258BF6FF05A0202740968F5
:10186000C1F38201417470471C2002402648016880
:1018700041F0800101600020704700BF2DE9F84F62
:10188000DFF88080074698F81800012804BF02207E
:10189000BDE8F88F01209A4693460E4688F8180056
:1018A0004CF25030FFF72AFF38BB3846022F18BFE2
:1018B0000420012F08BF3846134FC4B200255FFA39
:1018C00085F900204C4518D9C8F81C004FEA0912C8
:1018D0005146386840F0010038605846FEF7CAFCAF
:1018E00026F819004CF25030FFF708FF396801352F
:1018F000002821F001013960E1D0002188F818109A
:10190000BDE8F88FE0040020102002400648C168BE
:1019100009065CBF0020704704490160044901606A
:10192000C068C0B2C0097047042002402301674567
:10193000AB89EFCD2DE9FC4F5E4A04234FF0000A3E
:101940004FF001084FF00009904208BF03230093B5
:1019500000250C6834FA05F208BFBDE8FC8F08FAD0
:1019600005FE14EA0E0F00F0A1804F68032F16D970
:10197000112F26D0122F28D0514A974213D0514A06
:10198000974210D0504A97420DD0504A97420AD001
:101990004F4A974207D04F4A974204D022E0DFE8EF
:1019A00007F002181B1F8C6844B1012C14BFC0F84B
:1019B00014E0C0F810E04FF0080913E04FF00409FC
:1019C00010E0CC6804F104090CE0CC6804F10C09C7
:1019D00008E0D1F80C9005E0CC6804F1080901E0BA
:1019E0004FF0000954460746082D4FF00F0228BF5C
:1019F000203C28BF04373B6802FA04F609FA04F4D5
:101A0000B34323433B60CB79DB064FD5624A2A4C74
:101A10001368A4F57E7C43F00103136013682E4A1B
:101A200003F0010390420193019B25F003035CF84E
:101A300003B008D0294A904207D0294A009E90421C
:101A400008BF022602E0002600E001260AF00C038F
:101A50000F22AF0802FA03F406FA03F3164E174AF0
:101A60002BEA040423434CF827304F68FB02B36889
:101A700054BF23EA0E0443EA0E04B460BB021368A9
:101A800054BF23EA0E0443EA0E041460BB037368D8
:101A900054BF23EA0E0443EA0E047460FB03336868
:101AA00054BF23EA0E0243EA0E0232600AF1040A2E
:101AB00001354EE700140140000401400C040140D0
:101AC0000000111000001210000021100000221070
:101AD000000031100000321000080140000C0140ED
:101AE00000100140024800686FF31F30704700BFCC
:101AF000002004E005480068704700BF1A48034909
:101B000000780A6810440860704700BF0005002094
:101B100080B58A48016841F010010160032000F09F
:101B200063F80F2000F004F800F020F8002080BDDA
:101B300070B50D4E04464FF47A713078B1FBF0F079
:101B4000C0490968B1FBF0F000F034FB01250F2C0F
:101B500008D838B94FF0FF3021460022002500F0A8
:101B60001DF87460284670BD1000002082B00A483D
:101B7000016841F001010160016801F0010101917A
:101B80000199416841F080514160406800F0805007
:101B90000090009802B0704718100240F0B5184B42
:101BA0004FF0FF361C68C4F30224E51E84F00704DE
:101BB00038BF002506FA05F7BA43042C28BF0424D1
:101BC00006FA04F4A14300F00F04A940043C1143B9
:101BD000044A234409010244002848BF03F10C02CF
:101BE0001170F0BD00E400E005494FF6FF030A68FC
:101BF0001A4060F30A22034810430860704700BF90
:101C00000CED00E00000FA05704700002DE9F843F4
:101C100000286CD0884649490446086800F007004F
:101C200040450AD2086820F0070040EA0800086032
:101C3000086800F00700404559D12068904B89465C
:101C4000810711D5410703D5196841F4E061196096
:101C5000010703D5196841F460511960A1681A6839
:101C600022F0F00211431960C00737D1D9F8000003
:101C700000F0070040450DD9D9F8000020F007001A
:101C800040EA0800C9F80000D9F8000000F0070099
:101C900040452CD12068410705D5E1681A6822F437
:101CA000E06211431960000706D52069196821F424
:101CB000605141EAC00018601C4600F0C7F8216876
:101CC0001F4AC1F30311515CC8405E4908604F4888
:101CD0000068FFF72DFF0020BDE8F8836068022848
:101CE00008D0012825D153F8041C890306D401200B
:101CF000BDE8F88353F8041C8901F8D519681D461E
:101D000021F0030108431860FFF7F4FE064641F294
:101D10008837606829682B4601F00C01B1EB800F11
:101D2000A4D0FFF7E7FE801BB842F2D90320BDE83C
:101D3000F88353F8041C8907D9D5DFE70020024057
:101D4000F438000870B5FFF7D5FE2F4D044628681B
:101D500040F0010028602868800705D4FFF7CAFE1C
:101D6000001B0228F7D914E02868102161F3C7008E
:101D70002860FFF7BFFE0446002041F28836686005
:101D8000686810F00C0F06D0FFF7B4FE001BB042DD
:101D9000F6D9032070BD2B483A4901601B48006802
:101DA000FFF7C6FE08B1012070BDFFF7A3FE044691
:101DB000286820F0807028602868800105D5FFF72A
:101DC00099FE001B0228F7D9E3E700206860FFF7BF
:101DD00091FE0446286820F41020286028688003BB
:101DE00006D5FFF787FE011B03206429F6D970BDD5
:101DF000286820F480202860686A40F0807068625B
:101E00000020A86070BD00BF001002401400002038
:101E100001480121016070474C004242E3481849E3
:101E2000094A00680968C1F30221515CC840704743
:101E3000DE481349044A00680968C1F3C221515CB5
:101E4000C8407047180000200439000810B50C493C
:101E50000C480A6802F00C03082B07D1C2F3834335
:101E600009A4D203E35C02D40C48584310BD0968AE
:101E700009A25843C1F34041515CB0FBF1F010BDE1
:101E80000410024000127A00020304050607080944
:101E90000A0B0C0D0E0F10100102000000093D008E
:101EA00010B5044C2068000603D5FFF7ADFE802076
:101EB000A07010BD081002402DE9FC41002800F080
:101EC0009C8004460078B74EC0071FD0706800F0B1
:101ED0000C00042814D000F051FB02D17068C0033C
:101EE0000ED46068002800F01481B0F5A02F00F037
:101EF0002181B0F5803F00F0218100F006FB20E158
:101F00003068800302D56068002876D0207880078A
:101F100016D5706810F00C0F05D000F02FFB24D1FF
:101F20007068C00321D43068800702D52069012879
:101F300063D16069316821F0F80141EAC000306086
:101F40002078000741D5A06910B397480121C0F857
:101F50008014FFF7CFFD0546706A800728D4FFF78D
:101F6000C9FD401B0228F7D9F8E021698E480029F5
:101F700000F08E8001210160FFF7BCFD054630684E
:101F80008007D6D4FFF7B6FD401B0228F7D9E5E05D
:101F900085480021C0F88014FFF7ACFD0546706A43
:101FA000800712D5FFF7A6FD401B0228F7D9D5E020
:101FB0007E484FF4FA510068B0FBF1F0019000BF89
:101FC0000198411E00280191F9D12078400717D4CB
:101FD000E7697FB100F0D2FA3CD1012F0DD0216A20
:101FE000706800F480328A4207D1616A00F4701090
:101FF000884202D10020BDE8FC810120BDE8FC81BF
:10200000F06910F0805808D1F06940F08050F0611C
:10201000F06900F0805000900098654F3868C00566
:102020000FD4386840F480703860FFF763FD0546D0
:102030003868C00505D4FFF75DFD401B6428F7D95B
:102040008CE0E068A0B3052844D0012846D000F019
:1020500081FA46E05449002088460866FFF74AFDA9
:102060000546022F0AD147463068800179D5FFF72F
:1020700041FD411B03200229F6D9BCE730688001ED
:10208000B8D5FFF737FD411B03200229F6D9B2E787
:1020900000210160FFF72EFD0546306880077FF5BF
:1020A0004FAFFFF727FD411B03200229F5D9A2E717
:1020B00000F050FA3062FFF71DFD054641F2883707
:1020C000306A80071CD5FFF715FD411B0320B9427C
:1020D000F6D990E7306A40F004003062306A40F090
:1020E00001003062FFF706FD054641F28837306A8D
:1020F000800705D4FFF7FEFC401BB842F7D92DE05E
:10210000B8F1000F7FF464AFF06920F08050F06107
:102110005EE700F0FAF93060FFF7ECFC0546306846
:1021200080037FF5F3AEFFF7E5FC411B0320642934
:10213000F5D960E7306840F480203060306840F4C2
:1021400080303060FFF7D6FC0546306880033FF5ED
:10215000DDAEFFF7CFFC401B6428F6D90320BDE8B5
:10216000FC81206AB0F5803F05D1A168726822F435
:10217000003211437160616A726822F47412114373
:102180000843706001203866FFF7B4FC04463068ED
:1021900080013FF52FAFFFF7ADFC011B03200229A3
:1021A000F5D928E700100240000042421800002044
:1021B00000700040411E0020B0EB116F1CBF0120D9
:1021C0007047044AF023516003490B700721906067
:1021D0001160704710E000E023ED00E090B110B511
:1021E000044690F8410008B900F0F5F900F0D6F97E
:1021F0002068016921F490410161416921F02A01BF
:1022000000F0DBB90120704770B586B0002100688E
:10221000CDE90411CDE90211B149884211D0A74995
:1022200088422ED199484FF48066016841F480417C
:102230000160016801F4804100F081F94FF4007001
:102240000BE092480826416841F400314160416842
:1022500001F4003100F073F904200290019803208A
:102260008B4C05900220039002AD20462946FFF7D3
:1022700061FB002029460490CDE902602046FFF76B
:1022800059FB06B070BD00BF2DE9F843054690F834
:10229000420020281CBF0220BDE8F8838946B1B166
:1022A0001646A2B1002022211C46686485F842101F
:1022B0002863FFF71FFCEE858046AE85A868B0F561
:1022C000805F01D1286928B100264F4604E0012033
:1022D000BDE8F88300274E46E88D18B32846202134
:1022E0004246234600F00EFA10BB5FB1A868B0F575
:1022F000805F0FD008B9286960B12868406800F095
:102300007F0009E02868002740686FF35F2026F807
:10231000020B03E02868406807F8010BE88D0138DC
:10232000E885D9E7202085F842000020BDE8F88341
:102330000320BDE8F8832DE9F843044690F84100F6
:1023400020281CBF0220BDE8F8838846B1B117469B
:10235000A2B100201D466064212084F84100FFF7EF
:10236000C9FBE7840646A784A068B0F5805F01D169
:10237000206930B14FF00009474604E00120BDE874
:10238000F8830027C146E08CB8B120468021324650
:102390002B4600F0B7F9B8B927B117F8010B21683F
:1023A000486006E039F8021B206800276FF35F21C0
:1023B0004160E08C0138E084E5E720464021324668
:1023C0002B4600F09FF910B10320BDE8F8832020D0
:1023D00084F841000020BDE8F883FEE780B5054899
:1023E00005490160FFF7C3F918B1BDE88040FFF768
:1023F00041B980BD4804002000300240F0B585B0EE
:1024000000200326224C234FCDE903001F4801681A
:1024100041F010010160016801F010010091009984
:10242000016841F020010160016801F02001009184
:102430000099016841F004010160016801F00401A4
:1024400000910099016841F008010160006800F006
:1024500008000090009802964FF46040019001AD92
:1024600004F500602946B8474FF6F3102946029656
:1024700001902046B8474FF6FF702946029601901A
:1024800004F58060B84705B0F0BD00BF18100240E9
:10249000000801403519000810B50748974C002185
:1024A0000C224FF4E13300F026F818B1BDE81040DB
:1024B000FFF7E0B810BD00BF500400200038014015
:1024C00010B5BF48054B064C00210C2200F013F854
:1024D00018B1BDE81040FFF7CDB810BD60E316009D
:1024E00000440040FEE7FFF7DBFCFEE740F234511A
:1024F000782200F047B9C0E90043C0E90211C0E901
:102500000412C0E90611FFF769BE306820F480307C
:102510003060306820F4802070474CF25030FFF774
:10252000EDB8206850E8050F216820F0010041E86F
:102530000502002A704740F2345178227047019119
:102540000199016841F004010160006800F0040095
:1025500001907047306A20F001003062306A20F04C
:1025600004007047206850E8030F2168704740F26C
:10257000345178222B46009700F004B9706800F0BF
:102580000C000828704740F234517822234600F0AE
:10259000F9B8012289902046FFF7DAB8242084F8A0
:1025A00041002068C16821F40051C160204600F05C
:1025B00067B841E80302002A70474161C16841F4ED
:1025C0000051C16000202021606484F8411084F82B
:1025D0004210606310BD002084F840002046FFF7E1
:1025E00013BE70477047000007480178012906D1E3
:1025F00041680131416044F62160814201D2FFF718
:102600007DBA00F0ADF800BF80000020B0B590B0FA
:102610004FF4E010002402250F904FF48030CDE9F4
:102620000B44CDE909440D950E90CDE90704012036
:1026300006900A9006A8FFF73FFC18B1EFF3108050
:1026400072B6FEE74FF4806005940221CDE90340A5
:102650000F20CDE9010501A8FFF7D8FA18B1EFF373
:10266000108072B6FEE7FFF7D3FB10B0B0BD0000DC
:1026700002484FF000610160704700BF08ED00E0C4
:10268000B0B50446006804F108030ECB056925F4D3
:10269000405519432A4341F20C650261C2686369DF
:1026A000AA4319431143C1604169A26921F44071F1
:1026B000114341611149884202D0FFF7AFFB01E0AD
:1026C000FFF7B6FB19214843D4E900120C4C9200E5
:1026D000B0FBF2F06422B0FBF2F303FB04003224FF
:1026E00004EB0010B0FBF2F000F0F00200F00F007D
:1026F00002EB031210448860B0BD00BF00380140F7
:102700009CFFFF0F2DE9F0411D4690460F46044601
:102710005E1C206800683840B8421DD0002EF8D0FA
:102720002DB1FFF7E7F9A0EB0800A842F1D9FFF7B8
:1027300019FF20F4D070FFF73CFFF8D1FFF7F1FE4E
:10274000FCD12020002184F8410084F8401084F856
:1027500042000320BDE8F0810020BDE8F081FEE7E3
:102760000648BFF34F8F064A016801F4E061114348
:102770000160BFF34F8F00BFFDE700BF0CED00E02D
:102780000400FA0583B0B8B5044605A80B4D0EC089
:1027900005AB8021224628460093FDF77FFD2846A1
:1027A000FDF79AFD82B2064829464FF0FF33FFF746
:1027B000C2FDBDE8B84003B0704700BFC8000020AC
:1027C000980400202DE9F04FADF5497D0020FFF77A
:1027D000B2FE012301250090DFF8B004FFF7D2FF1D
:1027E00005A84FF4007100F104084046FDF72CFEE7
:1027F000DFF89C644FF400713046FDF725FEDFF8EA
:102800009404FFF773FEDFF89004314601224FF085
:10281000FF33FFF739FDB8B93446DFF88404FFF71A
:102820008AFE14F801AB53468DF814A0FFF7AAFFF7
:10283000DFF87074DFF86004214652464FF0FF3332
:102840003D70FFF721FD48B1DFF85004FFF773FE3C
:102850000DF5497DBDE8F04FFFF794BFDFF8480460
:10286000DFF848444FF00009FFF765FE87F8009055
:10287000C7F80490A04716F8013FDFF83404FFF7CB
:102880005AFE8DF81530A0477378DFF82804FFF75B
:1028900052FE8DF816300293A04796F802B0DFF88A
:1028A000180440F2345178225B468DF817B0A047E7
:1028B000F11C40465A46FDF773FD0BEB0605DFF8A9
:1028C000FC03FFF738FED5F8033086930393A04747
:1028D000D5F80730DFF8E803FFF72DFE8793049360
:1028E000A047DFF8E003FFF726FEA047AAF10400A7
:1028F000DFF8D44389AFC5B23DB116F8010B3946B4
:10290000FFF747FE8146013DF6E7206878224B46F7
:10291000816841F001018160DFF8B00340F2345179
:10292000FFF730FF049CDFF8A813DFF8A803A145E8
:1029300008BF0846FFF7DAFDA14514D1DFF89C0374
:10294000FFF7D4FDDFF880434FF0FF3789AEBBF1CE
:10295000000F0BD018F8010B3146FFF71AFE07469F
:10296000ABF1010BF3E7DFF870035CE1206878223C
:102970003B46816841F001018160DFF8640340F269
:102980003451FFF7FFFE039CDFF85813DFF85803BC
:10299000A74208BF0846FFF7A9FDA74223D1029925
:1029A0000E2900F2B480DFE811F00F0020003200A1
:1029B0004100520068007100970099009B009D0043
:1029C0009F00A100B2006801DFF83C04FFF78EFD14
:1029D000032000F09DFADFF82804032100F034FA08
:1029E000DFF8280410E0C1481DE1DFF81004FFF70C
:1029F0007DFD0D2000F08CFADFF804040D2103307A
:102A000000F022FADFF8FC03FFF770FD07E1DFF8C2
:102A1000E803FFF76BFDFFF765F88990042000F0ED
:102A200077FA89A8042100F00FFAEBE0DFF8C4037D
:102A3000FFF75CFD89A8FEF705FF9DF834028DF8CD
:102A40002002012000F064FA88A801215CE0DFF890
:102A50009003FFF74BFD069C04F17840B0F1011F95
:102A600059D304F16040B0F5A04F54D9DFF8740396
:102A7000FFF789FDDFF87003C0E0BC48FFF736FDC3
:102A80009DF81840422C4ED3D448B4E09F48FFF73D
:102A90002DFD9DF81C50DDF818B07019C5F580713A
:102AA000FDF7B0FC05A82A4600F109013046FDF704
:102AB00032FC0BF17840B0F1011F4AD30BF16040BA
:102AC000B0F5A04F45D9924840F2345178225B4688
:102AD000FFF758FE8F4891E08B4819E0894817E0CE
:102AE000874815E0854813E0834811E0C848FFF7A0
:102AF000FDFC89ACC74948222046FDF751FC48201F
:102B000000F006FA2046482100F09EF987E0C3480D
:102B1000FFF7ECFC76E0B548FFF735FD601C804719
:102B2000B34800246BE0412C1CD197A0FFF7DEFCDA
:102B3000022089900120FFF7FEFC8A9000208890F7
:102B4000A148FFF71FFEFEF7E1FE00284DD07248B6
:102B500051E0FEF7DBFE10B36F48FFF7C7FC00241F
:102B600071A04CE0C4F140009DF8195040F234517E
:102B70002346C0B2A84238BF05467D48009578225A
:102B8000FFF700FE00207B498C958990A00200F1A0
:102B90000060884223D37B48FFF7A8FCFEE7DFF8FC
:102BA0007C81DFF8C491A5F1010A002084B254456C
:102BB00042D2355B04EB0B074046FFF7BCFC0097A5
:102BC0002B46FFF7DFFD012039462A460023FEF79A
:102BD00055FE70BB4846FFF7CAFCA01CE6E76649F5
:102BE0008B908842A6D8654805E089A888A9FEF799
:102BF000E5FD60B37548FFF779FC61480124FFF7F4
:102C000075FC64B14FF480700221ADF8240289A8EC
:102C100000F01AF98248FFF769FC824803E00020BF
:102C200000F076F97C48FFF761FC0DF5497DBDE8C1
:102C3000F08F3B48FFF79BFCFEF718FE18B13948B0
:102C4000FFF754FC46E75445FFF444AF87E7889B01
:102C50005C1C05D05E48FFF76EFCFFF793FD02E0B9
:102C60005C48FFF743FCFEF701FE10B12D48FFF76B
:102C70003DFC002CC1D1584853E71D48FFF736FCF6
:102C80001C48FFF733FCFFF76BFD00BF0C39000851
:102C900048010020FA3A000850040020453B000893
:102CA0005D3A0008800000208C3C00088527000861
:102CB0007A43000835430008C24300085C4200081C
:102CC000A34200084F4C0008480400200A440008B2
:102CD000C94B00080B4C00083B3D00085544000858
:102CE000EC4200089B440008E2440008E83C00086D
:102CF000114200087A480008BC4100080E41000853
:102D0000893D0008B83F0008B9400008783E000837
:102D100064390008434B0008BA460008F54900082A
:102D2000A1490008764600080D0A56454E444F5208
:102D30005F49443A2025642C204D4F44554C455F53
:102D400049443A202564202D204442475F4D534793
:102D50003A3E205772697474656E20746F206D65F9
:102D60006D6F7279000000001A4D0008263E0008C1
:102D70000A3A00080100010800640008B13900089F
:102D80007D4A0008644100080D0A56454E444F52E2
:102D90005F49443A2025642C204D4F44554C455FF3
:102DA00049443A202564202D204442475F4D534733
:102DB0003A3E2053656C6563746564206D6173737E
:102DC0002065726173650000B04500083E47000849
:102DD000C7480008004700086D4500083148000852
:102DE000673F000818490008FF4A00085F490008CB
:102DF0006F4D000864400008D83D0008183F0008E7
:102E0000000000202F3C000816400008DA3B0008B4
:102E1000C83E0008BC4D000834460008F1450008D3
:102E2000D84C0008BC4A000805480168446881F392
:102E30000888FEF787FF0348FFF758FBA04700BF4D
:102E4000008000088C3B0008B0B5A0B10E4D0C46C8
:102E5000014622462846FDF75EFA0C4829462246DE
:102E60004FF0FF33FFF767FA014619A008A20029C7
:102E700008BF104600E00348FFF75DFBBDE8B04027
:102E8000FFF780BC864B0008480300205004002058
:102E90000D0A56454E444F525F49443A2025642C52
:102EA000204D4F44554C455F49443A202564202D20
:102EB000204442475F4D53473A3E20706970652079
:102EC0006563686F207375636365656465642E0070
:102ED0000D0A56454E444F525F49443A2025642C12
:102EE000204D4F44554C455F49443A202564202DE0
:102EF000204442475F4D53473A3E20706970652039
:102F00006563686F206973206E6F74206F6B2E008D
:102F1000E0B58DF80700012002218DF806000DF1C3
:102F20000600FFF791FF0248FFF7E0FA8CBD00BFF3
:102F3000974C000881B08DF803009DF8030010B194
:102F40009DF8030028B19DF803000849887001B07E
:102F5000704715489DF803304DF808EDFFF7EBFA80
:102F60005DF808EB01B0FFF70DBC00BF800000204A
:102F700081B08DF803009DF8030010B19DF80300A7
:102F800028B19DF803000949087001B07047064850
:102F90009DF803304DF808EDFFF7CDFA5DF808EB2A
:102FA00001B0FFF7EFBB00BF2B450008470400202E
:102FB000FEF7AEFDFFF72AFBFFF720FAFFF70EFA48
:102FC000FFF76AFAFFF77CFAFEF7D2FAFCE75FEA4E
:102FD000400C08BF91F0000F4FEA8C234FEAC1224A
:102FE00043EA51514FEA1C5018BF00F5F0404FEA38
:102FF000300018BF41F000415FEA6C5C00F02980AE
:10300000BCF1FF3F08BF40F080407047130C06BF83
:1030100012044FF0100C4FF0000C130E04BF1202FC
:103020000CF1080C130F04BF12010CF1040C930FE8
:1030300004BF92000CF1020CD30F04BF52000CF13C
:10304000010C11464FF00002A0F11F00A0EB0C0094
:10305000704711F0004F08BF704731F000413FF456
:10306000D5AF0B0C06BF09044FF0100C4FF0000C4D
:103070000B0E04BF09020CF1080C0B0F04BF090171
:103080000CF1040C8B0F04BF89000CF1020CCB0F68
:1030900004BF49000CF1010CCCF1200322FA03F328
:1030A00041EA030102FA0CF2A0EB0C0000F101006E
:1030B0007047000023F07F4720F07F4C80EA030038
:1030C00000F00040ACEB070303F57C5303F1FF0372
:1030D0002DE9804909B44FEA144324EA03484FEA32
:1030E000154B25EA0B4E0FF2042606EB13273E780C
:1030F00003FB0667C7F5000707FB06F64FEAD6464F
:1031000006F102064FEA543707FB066CCCF1005C6F
:103110004FEA1C472CEA074C0CFB06F507FB06F4AC
:1031200004EB15464FEA961649085FEA320234BFAF
:1031300000204FF000404FEAD13706FB07FC4FEA72
:103140001C4C0CFB0BF7D21B03FB0CF761EB0701CC
:103150000CFB0EF7B0EB074072EB17420CFB08F7C5
:1031600034BFA2EB0742B2EB074261EB17414FEAD3
:103170000C444FEA910706FB07FC4FEA1C4C0CFB82
:103180000BF7B0EBC74072EB573203FB0CF734BFC1
:10319000A2EBC742B2EBC74261EB57310CFB0EF713
:1031A000B0EBC70072EB57720CFB08F734BFA2EB11
:1031B000C702B2EBC70261EB57714FEA816141EA86
:1031C00092114FEA826242EA90124FEA806004EB69
:1031D000CC04039F4FEAD13706FB07FC4FEA1C4C97
:1031E0000CFB0BF7D21B03FB0CF761EB07010CFB8D
:1031F0000EF7B0EB074072EB17420CFB08F734BF39
:10320000A2EB0742B2EB074261EB17414FEA8C5544
:1032100004EB9C244FEA910706FB07FC4FEA1C4C89
:103220000CFB0BF7B0EBC74072EB573203FB0CF70C
:1032300034BFA2EBC742B2EBC74261EB57310CFB84
:103240000EF7B0EBC70072EB57720CFB08F734BFF8
:10325000A2EBC702B2EBC70261EB57714FEA816183
:1032600041EA92114FEA826242EA90124FEA80608C
:1032700015EB4C2544F100044FEAD13706FB07FC5F
:103280004FEA1C4C0CFB0BF7D21B03FB0CF761EB5A
:1032900007010CFB0EF7B0EB074072EB17420CFB7B
:1032A00008F734BFA2EB0742B2EB074261EB1741CC
:1032B0004FEA813141EA92414FEA823242EA90423A
:1032C0004FEA80304FEA0C7615EB1C1544F10004F0
:1032D00048EA03434EEA0B484FF0000EB2EB080CED
:1032E00071EB030724BF624639464EEB0E0E4FF0DA
:1032F000000B0018524149414BEB0B0BB2EB080C91
:1033000071EB03077BF1000B24BF624639464EEB9D
:103310000E0E4FF0000B0018524149414BEB0B0BC6
:10332000B2EB080C71EB03077BF1000B24BF624684
:1033300039464EEB0E0E51EA020718BF46F0010661
:1033400016EB0E7655F1000254F1000103D5BDE8ED
:103350008901BDE80088BDE88901BDE80048B619CB
:10336000524141EB0101A3F10103704780807F7E50
:103370007D7C7B7A797877767675747372717170EB
:103380006F6E6E6D6C6C6B6A6A696868676666659D
:103390006464636362616160605F5F5E5E5D5D5C2B
:1033A0005C5B5B5A5A59595858575756565555559C
:1033B0005454535352525251515050504F4F4F4EFC
:1033C0004E4D4D4D4C4C4C4B4B4B4A4A4A4949494A
:1033D000484848474747474646464545454444448C
:1033E0004443434343424242424141419C46002BB5
:1033F00030D477002BD04FEA37071CB503B44FF019
:1034000010004FF01001BAF1000F06D0BCF1000F10
:10341000DCBF40F0080040F008014FF000000FBC96
:10342000BDE810400BF1010BBBF1010F08BF5FEAD3
:10343000170722BF12F1010211F101014FF0004103
:1034400043F1000300F0004043EA00007047F9D365
:103450005708D0E746EA06464FEA164613F1400FF2
:103460001FDD13F1200FDFBF16430A460021203372
:103470005B42BED0C3F1200746EA06464FEA164635
:1034800002FA07F746EA070622FA03F2C3F1200719
:1034900001FA07F742EA070221FA03F14FF00003AD
:1034A000A7E746EA020646EA06464FEA164646EA15
:1034B0000106BCBF46EA0646360C4FF000034FF04B
:1034C00000024FF0000194E72DE9804C70B49A4659
:1034D000934691E8380007C831EA400C48BF34EA07
:1034E000430C03D5FFF7E6FDFFF780FFF0BCBDE816
:1034F000008C2DE9804C70B49A46934691E83800D0
:1035000007C810F0804F08BF13F0804F03D100F0C0
:1035100005F8FFF76BFFF0BCBDE8008C20F07F479B
:1035200023F07F4C80EA030000F0004007EB0C031F
:10353000A3F57C53A3F1FE0392F0000F00F0B380DB
:1035400095F0000F00F077802DE901494FEA114016
:1035500021EA00484FEA144624EA064700FB06FC2D
:1035600008FB06F607FB08F818EB06484CEB164C70
:1035700000FB07F718EB07484CEB17404FEA124BDC
:1035800022EA0B4E4FEA154625EA06470BFB06FCDE
:103590000EFB06F607FB0EFE1EEB064E4CEB164C22
:1035A0000BFB07F71EEB074E4CEB174B18EB0B080A
:1035B00040F1000018EB0E0B58EB000840F1000042
:1035C0008F1A4FF000014FF000063CBFC943661B45
:1035D00014BFB5EB040C00213CBFC943F61B4FEAF6
:1035E000174427EA04454FEA1C472CEA074C04FB22
:1035F000076205FB07F70CFB05F616EB074642EBE7
:10360000174204FB0CFC16EB0C4642EB1C421BEB76
:10361000060658EB020241414EEA8E0E46EA9E062D
:1036200001D5BDE80189B619524141EB0101A3F171
:103630000103BDE801894FEA144524EA05464FEA33
:10364000114721EA074C05FB07F406FB07F70CFBC3
:1036500006F111EB074144EB174405FB0CFC11EBA1
:103660000C4144EB1C444FEA124722EA074C05FB8D
:1036700007F206FB07F70CFB06F616EB074642EBD4
:10368000174205FB0CFC16EB0C4642EB1C456A1876
:1036900054F1000148BF7047B619524141EB010196
:1036A000A3F10103704795F0000F37D04FEA1142A4
:1036B00021EA02464FEA144724EA074C02FB07F1CD
:1036C00006FB07F70CFB06F414EB074441EB17412C
:1036D00002FB0CFC14EB0C4441EB1C414FEA154778
:1036E00025EA074C02FB07F506FB07F70CFB06F67D
:1036F00016EB074645EB174502FB0CFC16EB0C4698
:1037000045EB1C42121951F1000148BF7047B61930
:10371000524141EB0101A3F1010370474FEA144507
:1037200024EA05464FEA114721EA074C05FB07F159
:1037300006FB07F70CFB06F212EB074241EB1741C1
:1037400005FB0CFC12EB0C4251EB1C414FF0000648
:1037500048BF7047921841EB0101A3F10103704784
:10376000490050EAC12018BF04204A0D18BF40F09C
:10377000010040F2FF72B2EB515F08BF40F002005F
:10378000012808BF0520704730380A2801D20120DF
:10379000704700207047000010B500290AD0087853
:1037A000002807D005487844FCF776FE002801D0B1
:1037B000002010BD0248784410BD00007E160000B5
:1037C0007616000010B500290AD00878002807D026
:1037D00005487844FCF760FE002801D0002010BDA9
:1037E0000248784410BD00006E1600006616000006
:1037F000FDF7C0BAFDF7F4BB0000000000000000B8
:103800003031323334353637383941424344454616
:103810004030580030313233343536373839616210
:103820006364656640307800040000080000000012
:103830000000000200010000103031323334353610
:1038400037383961626364656678700030313233CD
:1038500034353637383941424344454658500000E4
:1038600002400000000000A0000000000540000031
:10387000000000C8000000000C4000000000409C58
:1038800000000000194000000020BCBE0000000045
:1038900034400000BFC91B8E00000004B54000008A
:1038A000504BCFD06607E2CF010000006C41000012
:1038B0003E8251AADFEEA73401000000D942000089
:1038C000DCB5A0E23A301F97FFFFFFFFB4450000D0
:1038D000FD25A0C8E9A3C14FFFFFFFFFFF3F000088
:1038E0000000008000000000FF3F0000000000809A
:1038F00000000000000000000000000001020304BE
:103900000607080900000000010203040D0A5645DD
:103910004E444F525F49443A2025642C204D4F4479
:10392000554C455F49443A202564202D20444247A8
:103930005F4D53473A3E20436F6D6D616E64204C7E
:10394000697374656E696E67205374617274207058
:103950006970653A202564207C20747970653A206E
:1039600025640A000D0A56454E444F525F49443AB9
:103970002025642C204D4F44554C455F49443A2046
:103980002564202D204442475F4D53473A3E20494D
:103990006E76616C6964207772697465206D656DFF
:1039A0006F727920616464726573733A20257020A8
:1039B000000D0A56454E444F525F49443A20256453
:1039C0002C204D4F44554C455F49443A20256420F6
:1039D0002D204442475F4D53473A3E2043414E4FCE
:1039E000542053454C46205445524D494E41544570
:1039F0002054484520424F4F544C4F41444552209B
:103A00004649524D5741524521000D0A56454E44F4
:103A10004F525F49443A2025642C204D4F44554C69
:103A2000455F49443A202564202D204442475F4D9C
:103A300053473A3E2053656C65637465642070613A
:103A400067652065726173652028706167653A203B
:103A500025642C206E6F703A20256429000D0A56CB
:103A6000454E444F525F49443A2025642C204D4F27
:103A700044554C455F49443A202564202D2044425A
:103A8000475F4D53473A3E2057616974696E67201E
:103A9000666F7220746865207061636B657420774F
:103AA000697468206C656E67746820282564292E07
:103AB000000D0A56454E444F525F49443A20256452
:103AC0002C204D4F44554C455F49443A20256420F5
:103AD0002D204442475F4D53473A3E2043616C637B
:103AE000756C6174696E67206170706C6963617474
:103AF000696F6E20686173682E000D0A56454E444A
:103B00004F525F49443A2025642C204D4F44554C78
:103B1000455F49443A202564202D204442475F4DAB
:103B200053473A3E205761697473696E6720666F28
:103B30007220746865207061636B6574206C656EBB
:103B40006774682E000D0A56454E444F525F494433
:103B50003A2025642C204D4F44554C455F49443A4A
:103B6000202564202D204442475F4D53473A3E2094
:103B70005468652070697065206C6973746E657235
:103B8000206973206E6F74206F6B2E000D0A5645EE
:103B90004E444F525F49443A2025642C204D4F44F7
:103BA000554C455F49443A202564202D2044424726
:103BB0005F4D53473A3E2053756363657366756C7A
:103BC0006C79206A756D70656420746F2061707007
:103BD0006C69636174696F6E2E000D0A56454E4420
:103BE0004F525F49443A2025642C204D4F44554C98
:103BF000455F49443A202564202D204442475F4DCB
:103C000053473A3E2053656E742074686520626F96
:103C10006F746C6F616465722076657273696F6E24
:103C2000207375636365737366756C6C792E000D14
:103C30000A56454E444F525F49443A2025642C2091
:103C40004D4F44554C455F49443A202564202D2072
:103C50004442475F4D53473A3E2053656E7420748B
:103C6000686520626F6F746C6F6164657220636F4A
:103C70006D6D616E64732068656C7065722073751C
:103C8000636365737366756C6C792E000D0A564517
:103C90004E444F525F49443A2025642C204D4F44F6
:103CA000554C455F49443A202564202D2044424725
:103CB0005F4D53473A3E2054686520706970652017
:103CC0006C6973746E65722072656365697665648C
:103CD0002061207061636B65742073756363657325
:103CE0007366756C6C792E000D0A56454E444F5222
:103CF0005F49443A2025642C204D4F44554C455F84
:103D000049443A202564202D204442475F4D5347C3
:103D10003A3E205061636B6574206572726F722C3D
:103D200020496E76616C6964207061636B657420F4
:103D300064617461204352433332000D0A56454E8C
:103D4000444F525F49443A2025642C204D4F44553E
:103D50004C455F49443A202564202D204442475F6A
:103D60004D53473A3E205061636B65742065727213
:103D70006F722C20496E76616C6964207061636B90
:103D80006574204352433332000D0A56454E444F6A
:103D9000525F49443A2025642C204D4F44554C45F0
:103DA0005F49443A202564202D204442475F4D530B
:103DB000473A3E20457865637574696E6720436FA6
:103DC0006D6D616E643A2043424C5F4F54505F52B8
:103DD0004541445F434D44000D0A56454E444F5201
:103DE0005F49443A2025642C204D4F44554C455F93
:103DF00049443A202564202D204442475F4D5347D3
:103E00003A3E20457865637574696E6720436F6D2F
:103E10006D616E643A2043424C5F4745545F4349AD
:103E2000445F434D44000D0A56454E444F525F498E
:103E3000443A2025642C204D4F44554C455F49445D
:103E40003A202564202D204442475F4D53473A3E97
:103E500020457865637574696E6720436F6D6D6189
:103E60006E643A2043424C5F464C4153485F455292
:103E70004153455F434D44000D0A56454E444F5251
:103E80005F49443A2025642C204D4F44554C455FF2
:103E900049443A202564202D204442475F4D534732
:103EA0003A3E20457865637574696E6720436F6D8F
:103EB0006D616E643A2043424C5F4D454D5F5752F1
:103EC0004954455F434D44000D0A56454E444F52F8
:103ED0005F49443A2025642C204D4F44554C455FA2
:103EE00049443A202564202D204442475F4D5347E2
:103EF0003A3E20457865637574696E6720436F6D3F
:103F00006D616E643A2043424C505F4745545F49AF
:103F10004E464F5F434D44000D0A56454E444F52A6
:103F20005F49443A2025642C204D4F44554C455F51
:103F300049443A202564202D204442475F4D534791
:103F40003A3E20457865637574696E6720436F6DEE
:103F50006D616E643A2043424C5F4745545F48456B
:103F60004C505F434D44000D0A56454E444F525F3E
:103F700049443A2025642C204D4F44554C455F4917
:103F8000443A202564202D204442475F4D53473A50
:103F90003E20457865637574696E6720436F6D6D6B
:103FA000616E643A2043424C5F474F5F544F5F411C
:103FB0004444525F434D44000D0A56454E444F520F
:103FC0005F49443A2025642C204D4F44554C455FB1
:103FD00049443A202564202D204442475F4D5347F1
:103FE0003A3E20457865637574696E6720436F6D4E
:103FF0006D616E643A2043424C5F4745545F4342D3
:104000004C5F4D454D5F524541445F434D445645DD
:10401000525F434D44000D0A56454E444F525F498E
:10402000443A2025642C204D4F44554C455F49446B
:104030003A202564202D204442475F4D53473A3EA5
:1040400020457865637574696E6720436F6D6D6197
:104050006E643A2043424C5F4745545F5645525F79
:10406000434D44000D0A56454E444F525F49443A71
:104070002025642C204D4F44554C455F49443A203F
:104080002564202D204442475F4D53473A3E20454A
:104090007865637574696E6720436F6D6D616E64DA
:1040A0003A2043424C5F4745545F5244505F53545B
:1040B000415455535F434D44000D0A56454E444FFD
:1040C000525F49443A2025642C204D4F44554C45BD
:1040D0005F49443A202564202D204442475F4D53D8
:1040E000473A3E20457865637574696E6720436F73
:1040F0006D6D616E643A2043424C5F454E5F525F86
:10410000575F50524F544543545F434D44000D0A8E
:1041100056454E444F525F49443A2025642C204D69
:104120004F44554C455F49443A202564202D204496
:1041300042475F4D53473A3E204578656375746941
:104140006E6720436F6D6D616E643A2043424C5F31
:104150004449535F525F575F50524F544543545F39
:10416000434D44000D0A56454E444F525F49443A70
:104170002025642C204D4F44554C455F49443A203E
:104180002564202D204442475F4D53473A3E20503E
:1041900061676520696E64657869672077656E740C
:1041A00020746F20666174616C206572726F722E6C
:1041B0002053594E4320535455434B000D0A564546
:1041C0004E444F525F49443A2025642C204D4F44C1
:1041D000554C455F49443A202564202D20444247F0
:1041E0005F4D53473A3E20457865637574696E6745
:1041F00020436F6D6D616E643A2043424C5F5245BF
:1042000041445F534543544F525F535441545553B7
:10421000000D0A56454E444F525F49443A202564EA
:104220002C204D4F44554C455F49443A202564208D
:104230002D204442475F4D53473A3E204578656301
:104240007574696E6720436F6D6D616E643A2043CB
:10425000424C5F53575F5245534554000D0A564533
:104260004E444F525F49443A2025642C204D4F4420
:10427000554C455F49443A202564202D204442474F
:104280005F4D53473A3E20704172675F74506163DF
:104290006B65742D3E4461746143524333323A205E
:1042A0002558000D0A56454E444F525F49443A2066
:1042B00025642C204D4F44554C455F49443A2025F8
:1042C00064202D204442475F4D53473A3E207041C1
:1042D00072675F745061636B65742D3E5061636BF0
:1042E000657443524333323A202558000D0A56452F
:1042F0004E444F525F49443A2025642C204D4F4490
:10430000554C455F49443A202564202D20444247BE
:104310005F4D53473A3E2043616C63756C61746531
:104320006420435243333220666F722064617461AB
:104330003A202558000D0A56454E444F525F4944D5
:104340003A2025642C204D4F44554C455F49443A52
:10435000202564202D204442475F4D53473A3E209C
:10436000704172675F745061636B65742D3E436F7B
:104370006D6D616E643A202558000D0A56454E4415
:104380004F525F49443A2025642C204D4F44554CF0
:10439000455F49443A202564202D204442475F4D23
:1043A00053473A3E20704172675F745061636B659A
:1043B000742D3E5061636B6574547970653A2025A5
:1043C00058000D0A56454E444F525F49443A202545
:1043D000642C204D4F44554C455F49443A20256498
:1043E000202D204442475F4D53473A3E2070417292
:1043F000675F745061636B65742D3E446174614CFA
:10440000656E6774683A202558000D0A56454E447B
:104410004F525F49443A2025642C204D4F44554C5F
:10442000455F49443A202564202D204442475F4D92
:1044300053473A3E2043616C63756C617465642038
:10444000435243333220666F72207061636B657430
:104450003A202558000D0A56454E444F525F4944B4
:104460003A2025642C204D4F44554C455F49443A31
:10447000202564202D204442475F4D53473A3E207B
:1044800043616C63756C6174696E6720435243339A
:104490003220666F722064617461000D0A56454EC9
:1044A000444F525F49443A2025642C204D4F4455D7
:1044B0004C455F49443A202564202D204442475F03
:1044C0004D53473A3E2056616C6964204352433352
:1044D0003220666F72207061636B65742064617452
:1044E00061000D0A56454E444F525F49443A20251B
:1044F000642C204D4F44554C455F49443A20256477
:10450000202D204442475F4D53473A3E20496E7666
:10451000616C696420435243333220666F722070AD
:1045200061636B65742064617461000D0A56454EC9
:10453000444F525F49443A2025642C204D4F445546
:104540004C455F49443A202564202D204442475F72
:104550004D53473A3E20494E56414C494420417202
:10456000675F7456616C75653A202564000D0A56C4
:10457000454E444F525F49443A2025642C204D4F0C
:1045800044554C455F49443A202564202D2044423F
:10459000475F4D53473A3E20466C61736820657211
:1045A0006173696E67207375636365656465640034
:1045B0000D0A56454E444F525F49443A2025642C1B
:1045C000204D4F44554C455F49443A202564202DE9
:1045D000204442475F4D53473A3E20466C61736822
:1045E0002065726173696E672073746172746564AB
:1045F000000D0A56454E444F525F49443A20256407
:104600002C204D4F44554C455F49443A20256420A9
:104610002D204442475F4D53473A3E20556E6B6F05
:10462000776E20726563656976656420636F6D6D72
:10463000616E64000D0A56454E444F525F49443A3C
:104640002025642C204D4F44554C455F49443A2069
:104650002564202D204442475F4D53473A3E204376
:104660006F6D6D616E6420657865637574696F6EDA
:1046700020646F6E65000D0A56454E444F525F49E7
:10468000443A2025642C204D4F44554C455F494405
:104690003A202564202D204442475F4D53473A3E3F
:1046A000204572726F72207769746820666C61733E
:1046B00068206C6F636B696E67000D0A56454E4447
:1046C0004F525F49443A2025642C204D4F44554CAD
:1046D000455F49443A202564202D204442475F4DE0
:1046E00053473A3E204572726F7220776974682092
:1046F000666C61736820756E6C6F636B696E6700C2
:104700000D0A56454E444F525F49443A2025642CC9
:10471000204D4F44554C455F49443A202564202D97
:10472000204442475F4D53473A3E20446F6E652018
:10473000666C6173682065726173696E67000D0A4B
:1047400056454E444F525F49443A2025642C204D33
:104750004F44554C455F49443A202564202D204460
:1047600042475F4D53473A3E204572726F72207741
:1047700069746820666C6173682065726173696E24
:1047800067000D0A56454E444F525F49443A202572
:10479000642C204D4F44554C455F49443A202564D4
:1047A000202D204442475F4D53473A3E20496E76C4
:1047B000616C6964206170706C69636174696F6EAB
:1047C0002C2077616974696E6720666F72206120A2
:1047D00076616C6964206170706C69636174696F83
:1047E0006E000D0A56454E444F525F49443A20250B
:1047F000642C204D4F44554C455F49443A20256474
:10480000202D204442475F4D53473A3E2056616C6D
:1048100069646174696E672074686520657869737E
:1048200074616E74206170706C69636174696F6E1D
:10483000000D0A56454E444F525F49443A202564C4
:104840002C204D4F44554C455F49443A2025642067
:104850002D204442475F4D53473A3E20496E7661D2
:104860006C696420666C6173682065726173652091
:104870006F7065726174696F6E000D0A56454E4423
:104880004F525F49443A2025642C204D4F44554CEB
:10489000455F49443A202564202D204442475F4D1E
:1048A00053473A3E20506572666F726D696E67209D
:1048B00053572072657365742E202D2D204E6F2066
:1048C00052657475726E000D0A56454E444F525F24
:1048D00049443A2025642C204D4F44554C455F49AE
:1048E000443A202564202D204442475F4D53473AE7
:1048F0003E20466C6173682065726173696E672043
:104900006661696C6564206F6E2070616765206107
:104910006464723A202570000D0A56454E444F5289
:104920005F49443A2025642C204D4F44554C455F47
:1049300049443A202564202D204442475F4D534787
:104940003A3E20496E76616C6964206A756D7069C3
:104950006E6720616464726573733A202570000D80
:104960000A56454E444F525F49443A2025642C2054
:104970004D4F44554C455F49443A202564202D2035
:104980004442475F4D53473A3E204A756D70696E09
:104990006720746F20616464726573733A202570B8
:1049A000000D0A56454E444F525F49443A20256453
:1049B0002C204D4F44554C455F49443A20256420F6
:1049C0002D204442475F4D53473A3E204572726F57
:1049D000722077726974696E672030782530345898
:1049E00020746F20666C6173682061646472657303
:1049F00073202570000D0A56454E444F525F4944BE
:104A00003A2025642C204D4F44554C455F49443A8B
:104A1000202564202D204442475F4D53473A3E20D5
:104A200057726974696E6720255820746F2061641D
:104A30006472657373202570000D0A56454E444F0D
:104A4000525F49443A2025642C204D4F44554C4533
:104A50005F49443A202564202D204442475F4D534E
:104A6000473A3E205374617274656420746865200F
:104A7000626F6F74206D616E61676572000D0A561A
:104A8000454E444F525F49443A2025642C204D4FF7
:104A900044554C455F49443A202564202D2044422A
:104AA000475F4D53473A3E20466C617368206572FC
:104AB0006173696E67206572726F72000D0A5645E8
:104AC0004E444F525F49443A2025642C204D4F44B8
:104AD000554C455F49443A202564202D20444247E7
:104AE0005F4D53473A3E20436F6D6D616E642065A4
:104AF0007865637574696F6E206572726F72000DF0
:104B00000A56454E444F525F49443A2025642C20B2
:104B10004D4F44554C455F49443A202564202D2093
:104B20004442475F4D53473A3E204A756D70696E67
:104B30006720746F2061646472657373206572729C
:104B40006F72000D0A56454E444F525F49443A2059
:104B500025642C204D4F44554C455F49443A20254F
:104B600064202D204442475F4D53473A3E20577200
:104B70006974696E6720746F206D656D6F7279203E
:104B80006572726F72000D0A56454E444F525F496E
:104B9000443A2025642C204D4F44554C455F4944F0
:104BA0003A202564202D204442475F4D53473A3E2A
:104BB00020494E56414C494420417267756D656EDF
:104BC000742056616C756573000D0A56454E444F4E
:104BD000525F49443A2025642C204D4F44554C45A2
:104BE0005F49443A202564202D204442475F4D53BD
:104BF000473A3E2056616C69642043524333322069
:104C0000666F72207061636B6574000D0A56454EC5
:104C1000444F525F49443A2025642C204D4F44555F
:104C20004C455F49443A202564202D204442475F8B
:104C30004D53473A3E20496E76616C696420435279
:104C400043333220666F72207061636B6574000DB0
:104C50000A56454E444F525F49443A2025642C2061
:104C60004D4F44554C455F49443A202564202D2042
:104C70004442475F4D53473A3E2043616C63756C35
:104C80006174696E6720435243333220666F72202D
:104C90007061636B6574000D0A56454E444F525F58
:104CA00049443A2025642C204D4F44554C455F49DA
:104CB000443A202564202D204442475F4D53473A13
:104CC0003E2053656E742041636B2073756363658A
:104CD000737366756C6C79000D0A56454E444F52DD
:104CE0005F49443A2025642C204D4F44554C455F84
:104CF00049443A202564202D204442475F4D5347C4
:104D00003A3E2053656E74204E61636B2073756369
:104D10006365737366756C6C79000D0A56454E4475
:104D20004F525F49443A2025642C204D4F44554C46
:104D3000455F49443A202564202D204442475F4D79
:104D400053473A3E205772697474656E2030782557
:104D500030345820746F2061646472657373202549
:104D600070207375636365737366756C6C79000D81
:104D70000A56454E444F525F49443A2025642C2040
:104D80004D4F44554C455F49443A202564202D2021
:104D90004442475F4D53473A3E204A756D70656403
:104DA00020746F206164647265737320737563632C
:104DB00065737366756C6C790000000054686973E4
:104DC00020626F6F746C6F61646572206973206D0F
:104DD000616465206279204D6F68616D6564204172
:104DE000736872616620577820436F7079726967C3
:104DF00068742028432920577820496E632C20327C
:104E000030323300504F0008000000202000000026
:104E100028010008704F000820000020E80A000068
:104E2000440100081C00000043000000F8FFFFFFE1
:104E30000C0000000E0000000F0000002E0000001B
:104E40001001000043000000F8FFFFFF0040404059
:104E5000404040404040414141414140404040404D
:104E600040404040404040404040404040050202F9
:104E700002020202020202020202020202202020B8
:104E80002020202020202002020202020202909014
:104E90009090909010101010101010101010101012
:104EA0001010101010101010020202020202888866
:104EB0008888888808080808080808080808080872
:104EC000080808080808080802020202400000005A
:104ED00000000000000000000000000000000000D2
:104EE00000000000000000000000000000000000C2
:104EF00000000000000000000000000000000000B2
:104F000000000000000000000000000000000000A1
:104F10000000000000000000000000000000000091
:104F20000000000000000000000000000000000081
:104F30000000000000000000000000000000000071
:104F40000000000000000000000000000000000061
:104F5000010000000102030405060708090A0B000E
:104F600001000000100000000024F4000000000018
:04000005080000ED02
:00000001FF
