:020000040800F2
:10000000880A0020890100084713000837120008F9
:1000100045130008CD040008871500080000000003
:100020000000000000000000000000000F140008A5
:10003000CF040008000000000D140008111400088F
:10004000A3010008A3010008A3010008A301000800
:10005000A3010008A3010008A3010008A3010008F0
:10006000A3010008A3010008A3010008A3010008E0
:10007000A3010008A3010008A3010008A3010008D0
:10008000A3010008A3010008A3010008A3010008C0
:10009000A3010008A3010008A3010008A3010008B0
:1000A000A3010008A3010008A3010008A3010008A0
:1000B000A3010008A3010008A3010008A301000890
:1000C000A3010008A3010008A3010008A301000880
:1000D000A3010008A3010008A3010008A301000870
:1000E000A3010008A3010008A301000800F002F822
:1000F00000F03AF80AA090E8000C82448344AAF188
:100100000107DA4501D100F02FF8AFF2090EBAE885
:100110000F0013F0010F18BFFB1A43F0010318473B
:100120004418000064180000103A24BF78C878C151
:10013000FAD8520724BF30C830C144BF04680C60ED
:10014000704700000023002400250026103A28BF35
:1001500078C1FBD8520728BF30C148BF0B60704739
:100160001FB51FBD10B510BD00F045F91146FFF7D2
:10017000F7FF01F0B7FB00F063F903B4FFF7F2FFFC
:1001800003BC00F06BF900000948804709480047AC
:10019000FEE7FEE7FEE7FEE7FEE7FEE7FEE7FEE737
:1001A000FEE7FEE704480549054A064B7047000094
:1001B00099140008ED00000888040020880A002037
:1001C0008806002088060020B2F120030AD5C2F17B
:1001D000200320FA02F001FA03F340EA030021FAB7
:1001E00002F1704721FA03F04FF000017047032A33
:1001F00040F2308010F0030C00F0158011F8013B44
:10020000BCF1020F624498BF11F801CB00F8013B2A
:1002100038BF11F8013BA2F1040298BF00F801CBEE
:1002200038BF00F8013B11F0030300F02580083AC5
:10023000C0F0088051F8043B083A51F804CBA0E81C
:100240000810F5E7121D5CBF51F8043B40F8043B71
:10025000AFF30080D20724BF11F8013B11F801CBA6
:1002600048BF11F8012B24BF00F8013B00F801CB77
:1002700048BF00F8012B704710B5203AC0F00B8042
:10028000B1E81850A0E81850B1E81850A0E818508C
:10029000203ABFF4F5AF5FEA027C24BFB1E8185002
:1002A000A0E8185044BF18C918C0BDE810405FEA64
:1002B000827C24BF51F8043B40F8043B08BF7047E0
:1002C000D20728BF31F8023B48BF11F8012B28BFE5
:1002D00020F8023B48BF00F8012B70474FF00002A6
:1002E0000429C0F0128010F0030C00F01B80CCF148
:1002F000040CBCF1020F18BF00F8012BA8BF20F8B6
:10030000022BA1EB0C0100F00DB85FEAC17C24BF09
:1003100000F8012B00F8012B48BF00F8012B7047B3
:100320004FF0000200B5134694469646203922BF8E
:10033000A0E80C50A0E80C50B1F12001BFF4F7AFD9
:10034000090728BFA0E80C5048BF0CC05DF804EBBB
:10035000890028BF40F8042B08BF704748BF20F829
:10036000022B11F0804F18BF00F8012B70470000DE
:100370004FF0013C50F8042B51F8043B9A4221D134
:10038000A2EB0C03934313EACC1317D150F8042BC0
:1003900051F8043B9A4215D1A2EB0C03934313EAA4
:1003A000CC130BD150F8042B51F8043B9A4209D1DD
:1003B000A2EB0C03934313EACC13DBD04FF0000005
:1003C000704700BFD01A01BAB1FA81F101F01801EB
:1003D00022FA01F0CB40DBB2C0B2C01AC1F1200159
:1003E0002CFA01F3D11A914311EAC311E6D17047F7
:1003F000704770477047754600F02CF8AE46050010
:100400006946534620F00700854618B020B5FFF72F
:10041000C9FEBDE820404FF000064FF000074FF046
:1004200000084FF0000BAC46ACE8C009ACE8C009CE
:10043000ACE8C009ACE8C00921F007018D4670475F
:1004400010B50446AFF300802046BDE81040FFF72A
:1004500094BE000000487047200000200149182089
:10046000ABBEFEE7260002007047000080B51649CB
:100470004878D8B148788878C0B18878012815D1F3
:10048000487810B14878012810D0887890B18878E1
:1004900001280FD101F108002831FFF769FF50B1A1
:1004A000002001F00DFA002001F0F8F9BDE88040CD
:1004B00001F07CB880BD012001F002FA012001F0BA
:1004C000EDF901F0BDF900BF80000020FEE77047A4
:1004D000EFF3108072B6FEE7A1480021C161A14888
:1004E000016841F004010160016841F040010160D0
:1004F000704700BF9A490022CA619A490A6842F0CF
:1005000002020A604860086840F0400008607047D6
:1005100025480168C90601D4002105E09049CA694F
:1005200042F00202CA6110210268520706D58C4AC5
:1005300041F00401D36943F00103D3610269D2079A
:1005400008D0874AD36943F00403D361026922F0DB
:100550000102026101607047F8B5134E044600F0D5
:10056000F7F90546671C3068C00709D0002FFAD09C
:1005700024B100F0EDF9401BA042F4D90320F8BDEE
:100580003068800644BF202030603068C00607D441
:100590003069C00704D1306840075CBF0020F8BD57
:1005A000FFF7B6FF0120F8BD0C20024010B5022372
:1005B000437122B108C90468013A2360F9E7016870
:1005C000012209684271084610BD60B110B50446A9
:1005D000407920B900202071204600F007F8012062
:1005E0006071002010BD01207047000081B00068DC
:1005F0000749884209D10748016841F0400101607C
:10060000006800F040000090009801B0704700BF03
:1006100000300240141002402DE9F041DFF8408123
:10062000054698F81800012801D1022018E00120A1
:100630002E680C4688F8180000F09AFE022E0AD1A7
:1006400050B9FFF749FF00F093FE46490A6822F0CF
:1006500004020A6001E030B10120002188F818107E
:10066000C0B2BDE8F0814FF0FF303E4F2060012066
:10067000A9680E46EA6801EB82218E42EDD230462F
:10068000FFF738FF00F074FE396821F0020139608D
:1006900020B9A96806F580660020EBE72660DCE754
:1006A0000721016007494A6882600A6892074FF093
:1006B000000258BF6FF05A0202740968C1F3820148
:1006C000417470471C2002402648016841F08001B7
:1006D00001600020704700BF2DE9F84FDFF88080EF
:1006E000074698F81800012804BF0220BDE8F88FDB
:1006F00001209A4693460E4688F818004CF2503076
:10070000FFF72AFF38BB3846022F18BF0420012FFD
:1007100008BF3846134FC4B200255FFA85F90020A0
:100720004C4518D9C8F81C004FEA091251463868E0
:1007300040F0010038605846FFF746FD26F81900E2
:100740004CF25030FFF708FF39680135002821F0DE
:1007500001013960E1D0002188F81810BDE8F88F58
:1007600060040020102002400648C16809065CBFF2
:10077000002070470449016004490160C068C0B2AC
:10078000C00970470420024023016745AB89EFCDC3
:100790002DE9FC4F5E4A04234FF0000A4FF0010898
:1007A0004FF00009904208BF0323009300250C6816
:1007B00034FA05F208BFBDE8FC8F08FA05FE14EA1A
:1007C0000E0F00F0A1804F68032F16D9112F26D0ED
:1007D000122F28D0514A974213D0514A974210D035
:1007E000504A97420DD0504A97420AD04F4A9742FA
:1007F00007D04F4A974204D022E0DFE807F0021802
:100800001B1F8C6844B1012C14BFC0F814E0C0F861
:1008100010E04FF0080913E04FF0040910E0CC6835
:1008200004F104090CE0CC6804F10C0908E0D1F8EB
:100830000C9005E0CC6804F1080901E04FF00009D4
:1008400054460746082D4FF00F0228BF203C28BF12
:1008500004373B6802FA04F609FA04F4B34323436D
:100860003B60CB79DB064FD5624A2A4C1368A4F56E
:100870007E7C43F00103136013682E4A03F00103EA
:1008800090420193019B25F003035CF803B008D06C
:10089000294A904207D0294A009E904208BF02266A
:1008A00002E0002600E001260AF00C030F22AF0848
:1008B00002FA03F406FA03F3164E174A2BEA04046D
:1008C00023434CF827304F68FB02B36854BF23EA38
:1008D0000E0443EA0E04B460BB02136854BF23EA5B
:1008E0000E0443EA0E041460BB03736854BF23EA8A
:1008F0000E0443EA0E047460FB03336854BF23EA1A
:100900000E0243EA0E0232600AF1040A01354EE794
:1009100000140140000401400C04014000001110CB
:100920000000121000002110000022100000311001
:100930000000321000080140000C0140001001408E
:10094000024800686FF31F30704700BF002004E0CA
:1009500005480068704700BF1A48034900780A68D4
:1009600010440860704700BF8004002080B58A48AA
:10097000016841F010010160032000F063F80F20CE
:1009800000F004F800F020F8002080BD70B50D4E96
:1009900004464FF47A713078B1FBF0F0C049096831
:1009A000B1FBF0F000F034FB01250F2C08D838B96A
:1009B0004FF0FF3021460022002500F01DF8746042
:1009C000284670BD1000002082B00A48016841F03E
:1009D00001010160016801F0010101910199416883
:1009E00041F080514160406800F0805000900098D4
:1009F00002B0704718100240F0B5184B4FF0FF36A8
:100A00001C68C4F30224E51E84F0070438BF0025E7
:100A100006FA05F7BA43042C28BF042406FA04F4A6
:100A2000A14300F00F04A940043C1143044A2344AD
:100A300009010244002848BF03F10C021170F0BD07
:100A400000E400E005494FF6FF030A681A4060F32E
:100A50000A22034810430860704700BF0CED00E015
:100A60000000FA05704700002DE9F84300286CD01B
:100A7000884649490446086800F0070040450AD204
:100A8000086820F0070040EA08000860086800F0E5
:100A90000700404559D12068904B8946810711D500
:100AA000410703D5196841F4E0611960010703D5D6
:100AB000196841F460511960A1681A6822F0F002C7
:100AC00011431960C00737D1D9F8000000F00700C2
:100AD00040450DD9D9F8000020F0070040EA080091
:100AE000C9F80000D9F8000000F0070040452CD1FB
:100AF0002068410705D5E1681A6822F4E0621143D5
:100B00001960000706D52069196821F4605141EA8F
:100B1000C00018601C4600F0C7F821681F4AC1F3E6
:100B20000311515CC8405E4908604F480068FFF7F8
:100B30002DFF0020BDE8F8836068022808D0012856
:100B400025D153F8041C890306D40120BDE8F8839D
:100B500053F8041C8901F8D519681D4621F00301DA
:100B600008431860FFF7F4FE064641F288376068D4
:100B700029682B4601F00C01B1EB800FA4D0FFF7E0
:100B8000E7FE801BB842F2D90320BDE8F88353F892
:100B9000041C8907D9D5DFE70020024002190008AC
:100BA00070B5FFF7D5FE2F4D0446286840F00100D0
:100BB00028602868800705D4FFF7CAFE001B0228BA
:100BC000F7D914E02868102161F3C7002860FFF707
:100BD000BFFE0446002041F288366860686810F065
:100BE0000C0F06D0FFF7B4FE001BB042F6D903206D
:100BF00070BD2B483A4901601B480068FFF7C6FEEC
:100C000008B1012070BDFFF7A3FE0446286820F05C
:100C1000807028602868800105D5FFF799FE001BC9
:100C20000228F7D9E3E700206860FFF791FE044649
:100C3000286820F4102028602868800306D5FFF774
:100C400087FE011B03206429F6D970BD286820F4B3
:100C500080202860686A40F0807068620020A86088
:100C600070BD00BF001002401400002001480121A7
:100C7000016070474C004242E3481849094A006845
:100C80000968C1F30221515CC8407047DE4813492E
:100C9000044A00680968C1F3C221515CC84070472A
:100CA000180000201219000810B50C490C480A68F9
:100CB00002F00C03082B07D1C2F3834309A4D2032B
:100CC000E35C02D40C48584310BD096809A258439C
:100CD000C1F34041515CB0FBF1F010BD0410024083
:100CE00000127A0002030405060708090A0B0C0D1E
:100CF0000E0F10100102000000093D0010B5044C59
:100D00002068000603D5FFF7ADFE8020A07010BD5F
:100D1000081002402DE9FC41002800F09C800446A8
:100D20000078B74EC0071FD0706800F00C00042890
:100D300014D000F043FB02D17068C0030ED4606889
:100D4000002800F01481B0F5A02F00F02181B0F54B
:100D5000803F00F0218100F003FB20E13068800338
:100D600002D56068002876D02078800716D5706894
:100D700010F00C0F05D000F021FB24D17068C003E7
:100D800021D43068800702D52069012863D16069C9
:100D9000316821F0F80141EAC00030602078000796
:100DA00041D5A06910B397480121C0F88014FFF71E
:100DB000CFFD0546706A800728D4FFF7C9FD401BA8
:100DC0000228F7D9F8E021698E48002900F08E80CA
:100DD00001210160FFF7BCFD054630688007D6D4CD
:100DE000FFF7B6FD401B0228F7D9E5E08548002152
:100DF000C0F88014FFF7ACFD0546706A800712D575
:100E0000FFF7A6FD401B0228F7D9D5E07E484FF436
:100E1000FA510068B0FBF1F0019000BF0198411E4B
:100E200000280191F9D12078400717D4E7697FB1F4
:100E300000F0C4FA3CD1012F0DD0216A706800F493
:100E400080328A4207D1616A00F47010884202D170
:100E50000020BDE8FC810120BDE8FC81F06910F0B4
:100E6000805808D1F06940F08050F061F06900F0DE
:100E7000805000900098654F3868C0050FD43868DE
:100E800040F480703860FFF763FD05463868C005A0
:100E900005D4FFF75DFD401B6428F7D98CE0E068BE
:100EA000A0B3052844D0012846D000F07AFA46E0E5
:100EB0005449002088460866FFF74AFD0546022F80
:100EC0000AD147463068800179D5FFF741FD411BC3
:100ED00003200229F6D9BCE730688001B8D5FFF7B6
:100EE00037FD411B03200229F6D9B2E7002101603A
:100EF000FFF72EFD0546306880077FF54FAFFFF7FF
:100F000027FD411B03200229F5D9A2E700F049FA89
:100F10003062FFF71DFD054641F28837306A8007D1
:100F20001CD5FFF715FD411B0320B942F6D990E708
:100F3000306A40F004003062306A40F001003062F4
:100F4000FFF706FD054641F28837306A800705D471
:100F5000FFF7FEFC401BB842F7D92DE0B8F1000FB7
:100F60007FF464AFF06920F08050F0615EE700F03C
:100F7000F7F93060FFF7ECFC0546306880037FF539
:100F8000F3AEFFF7E5FC411B03206429F5D960E7C8
:100F9000306840F480203060306840F48030306049
:100FA000FFF7D6FC0546306880033FF5DDAEFFF75E
:100FB000CFFC401B6428F6D90320BDE8FC81206AE1
:100FC000B0F5803F05D1A168726822F40032114368
:100FD0007160616A726822F4741211430843706090
:100FE00001203866FFF7B4FC0446306880013FF505
:100FF0002FAFFFF7ADFC011B03200229F5D928E72D
:101000000010024000004242180000200070004022
:10101000411E0020B0EB116F1CBF01207047044A35
:10102000F023516003490B700721906011607047F5
:1010300010E000E023ED00E090B110B5044690F818
:10104000410008B900F0DCF900F0BDF92068016941
:1010500021F490410161416921F02A0100F0C2B9F7
:101060000120704770B586B000210068CDE90411F9
:10107000CDE90211B249884211D0A74988422ED148
:1010800099484FF48066016841F48041016001682D
:1010900001F4804100F07AF94FF400700BE09248BF
:1010A0000826416841F400314160416801F4003193
:1010B00000F06CF904200290019803208B4C0590FD
:1010C0000220039002AD20462946FFF761FB002075
:1010D00029460490CDE902602046FFF759FB06B08F
:1010E00070BD00BF2DE9F843054690F84200202866
:1010F0001CBF0220BDE8F8838946B1B11646A2B1F3
:10110000002022211C46686485F842102863FFF7FE
:101110001FFCEE858046AE85A868B0F5805F01D1E2
:10112000286928B100264F4604E00120BDE8F88375
:1011300000274E46E88D18B3284620214246234614
:1011400000F0F4F910BB5FB1A868B0F5805F0FD074
:1011500008B9286960B12868406800F07F0009E09C
:101160002868002740686FF35F2026F8020B03E031
:101170002868406807F8010BE88D0138E885D9E751
:10118000202085F842000020BDE8F8830320BDE858
:10119000F8832DE9F843044690F8410020281CBF4D
:1011A0000220BDE8F8838846B1B11746A2B10020FD
:1011B0001D466064212084F84100FFF7C9FBE784E5
:1011C0000646A784A068B0F5805F01D1206930B1E0
:1011D0004FF00009474604E00120BDE8F8830027EE
:1011E000C146E08CB8B12046802132462B4600F043
:1011F0009DF9B8B927B117F8010B2168486006E0DE
:1012000039F8021B206800276FF35F214160E08CF2
:101210000138E084E5E72046402132462B4600F0C5
:1012200085F910B10320BDE8F883202084F841003F
:101230000020BDE8F883FEE780B505480549016058
:10124000FFF7C3F918B1BDE88040FFF741B980BD91
:10125000C803002000300240F0B585B0002003260E
:10126000224C234FCDE903001F48016841F01001D3
:101270000160016801F0100100910099016841F0DE
:1012800020010160016801F02001009100990168CE
:1012900041F004010160016801F00401009100992E
:1012A000016841F008010160006800F0080000904A
:1012B000009802964FF46040019001AD04F5006083
:1012C0002946B8474FF6F31029460296019020466A
:1012D000B8474FF6FF7029460296019004F58060EA
:1012E000B84705B0F0BD00BF18100240000801402B
:1012F0009107000810B507488A4C00210C224FF4D2
:10130000E13300F023F818B1BDE81040FFF7E0B872
:1013100010BD00BFD00300200038014010B50648C2
:10132000064B074C00210C2200F010F818B1BDE864
:101330001040FFF7CDB810BD1804002060E3160080
:1013400000440040FEE7FFF7D9FCFEE7C0E9004398
:10135000C0E90211C0E90412C0E90611FFF76CBE32
:10136000306820F480303060306820F4802070478E
:101370004CF25030FFF7F0B8206850E8050F2168B4
:1013800020F0010041E80502002A7047019101990F
:10139000016841F004010160006800F00400019060
:1013A0007047306A20F001003062306A20F004009B
:1013B0007047206850E8030F21687047706800F09C
:1013C0000C0008287047242084F841002068C16878
:1013D00021F40051C160204600F066B841E80302E4
:1013E000002A70474161C16841F40051C16000208A
:1013F0002021606484F8411084F84210606310BDBD
:10140000002084F840002046FFF72CBE704770474C
:1014100007480178012906D141680131416044F64D
:101420002160814201D2FFF797BA00F0ADF800BF0A
:1014300080000020B0B590B04FF4E01000240225E9
:101440000F904FF48030CDE90B44CDE909440D9560
:101450000E90CDE90704012006900A9006A8FFF738
:1014600059FC18B1EFF3108072B6FEE74FF48060BC
:1014700005940221CDE903400F20CDE9010501A823
:10148000FFF7F2FA18B1EFF3108072B6FEE7FFF73C
:10149000EDFB10B0B0BD000002484FF000610160EC
:1014A000704700BF08ED00E0B0B50446006804F1E5
:1014B00008030ECB056925F4405519432A4341F230
:1014C0000C650261C2686369AA4319431143C16094
:1014D0004169A26921F44071114341611149884277
:1014E00002D0FFF7C9FB01E0FFF7D0FB1921484309
:1014F000D4E900120C4C9200B0FBF2F06422B0FB75
:10150000F2F303FB0400322404EB0010B0FBF2F012
:1015100000F0F00200F00F0002EB031210448860AC
:10152000B0BD00BF003801409CFFFF0F2DE9F04126
:101530001D4690460F4604465E1C206800683840F1
:10154000B8421DD0002EF8D02DB1FFF701FAA0EB64
:101550000800A842F1D9FFF72CFF20F4D070FFF764
:101560003DFFF8D1FFF708FFFCD12020002184F8CF
:10157000410084F8401084F842000320BDE8F08167
:101580000020BDE8F081FEE70648BFF34F8F064A12
:10159000016801F4E06111430160BFF34F8F00BFA8
:1015A000FDE700BF0CED00E00400FA052DE9F04F67
:1015B000ADF5477D02AF4FF402713846FEF7B0FE3D
:1015C000994D4FF400712846FEF7AAFEAC48294613
:1015D00001224FF0FF330124FFF784FD002840F083
:1015E00015812946B54EA6484FF0FF3311F8019BEF
:1015F00034704A46FFF776FD002840F0078100244A
:1016000007F1050A291D34707460A878EE780090FF
:1016100050463246FEF7EBFD05F1010806EB0800E7
:10162000D0F80310D0F807B008460191CDE9841B2B
:1016300087AFA9F10400DFF8F491C5B255B118F8ED
:10164000010B3946012287904846FEF7AFFF04465A
:10165000013DF3E7D9F80000816841F001018160A4
:101660005C4502AF40F0D280704C4FF0FF3087AD48
:101670004EB11AF8010B2946012287902046FEF749
:1016800095FF013EF4E721688A6842F001028A6012
:101690000199884240F0BA8000990E2900F2AE808C
:1016A000DFE801F0080E15202D3C44ACACACACAC2E
:1016B0005FACC000032000F0E5F85F4803215BE069
:1016C0000D2000F0DFF85C480D21033054E0FFF7F7
:1016D00037F98790042000F0D5F887A8042100F09E
:1016E000B9F88BE087A8FEF7DBFF9DF82C028DF898
:1016F0001802012000F0C6F886A801213CE0DDF8C0
:101700000D0000F17841B1F1011F04D300F16041F7
:10171000B1F5A04F72D8013080472FE09DF80D0041
:1017200041286BD848D1022087905BE09DF811409A
:10173000DDF80D602819C4F58071FEF7CFFD07F1C3
:101740000A0128462246FEF752FD06F17840B0F124
:10175000011F17D306F16040B0F5A04F12D9012543
:1017600028E087AC354948222046FEF785FD482011
:1017700000F088F82046482100F06CF8002000F0C6
:1017800081F843E0FEF7F0FF98B9013C00218FB2E9
:10179000A74208D2EA5BB91901200023FEF79CFF9B
:1017A000B91C0028F3D0FEF78FFF012510B9A7421E
:1017B00000D3002515BBE1E700229DF80E108792AB
:1017C000C0F14002D2B28A4238BF11468A918002EB
:1017D000174900F10060884200D3FEE7154989905F
:1017E00088420BD90120889000208690FEF7BCFF2C
:1017F00020B987A886A9FEF70FFF58B14FF4807073
:101800000221ADF81C0287A800F024F80DF5477DF1
:10181000BDE8F08F8698B0F1FF3518BF0125FEF7BF
:1018200053FFC7E7FFF7B0FEC8000020C803002041
:101830000100010800640008000000201C190008D5
:1018400003480168446881F30888FFF7A9F9A047B5
:101850000080000880B1B0B5084D0C460146224614
:101860002846FEF7C4FC0648294622464FF0FF33BF
:10187000BDE8B040FFF78DBC704700BFC802002034
:10188000D0030020E0B58DF80700012002218DF87B
:1018900006000DF10600FFF7DDFF8CBD81B08DF86D
:1018A00003009DF8030010B19DF8030018B19DF8E6
:1018B00003000249887001B0704700BF800000201B
:1018C00081B08DF803009DF8030010B19DF803006E
:1018D00018B19DF803000249087001B0704700BFBD
:1018E000C7030020FFF742F8FFF7A4FDFFF7B4FCA1
:1018F000FFF7A2FCFFF7FEFCFFF710FDFEF7B6FDB9
:10190000FCE70000000000000000010203040607DD
:101910000809000000000102030400005468697314
:1019200020626F6F746C6F61646572206973206DE3
:10193000616465206279204D6F68616D6564204146
:10194000736872616620577820436F707972696797
:1019500068742028432920577820496E632C203250
:1019600030323300881900080000002020000000F9
:1019700028010008A819000820000020680A0000BB
:1019800044010008000000000100000001020304FF
:1019900005060708090A0B000100000010000000FE
:0819A0000024F4000000000027
:04000005080000ED02
:00000001FF
