:020000040800F2
:100000007009002089010008B71400088713000850
:10001000B5140008D1040008EF1600080000000025
:10002000000000000000000000000000951500081E
:10003000D30400080000000093150008971500087D
:10004000A3010008A3010008A3010008A301000800
:10005000A3010008A3010008A3010008A3010008F0
:10006000A3010008A3010008A3010008A3010008E0
:10007000A3010008A3010008A3010008A3010008D0
:10008000A3010008A3010008A3010008A3010008C0
:10009000A3010008A3010008A3010008A3010008B0
:1000A000A3010008A3010008A3010008A3010008A0
:1000B000A3010008A3010008A3010008A301000890
:1000C000A3010008A3010008A3010008A301000880
:1000D000A3010008A3010008A3010008A301000870
:1000E000A3010008A3010008A301000800F002F822
:1000F00000F03AF80AA090E8000C82448344AAF188
:100100000107DA4501D100F02FF8AFF2090EBAE885
:100110000F0013F0010F18BFFB1A43F0010318473B
:100120005C1900007C190000103A24BF78C878C11F
:10013000FAD8520724BF30C830C144BF04680C60ED
:10014000704700000023002400250026103A28BF35
:1001500078C1FBD8520728BF30C148BF0B60704739
:100160001FB51FBD10B510BD00F045F91146FFF7D2
:10017000F7FF01F041FC00F063F903B4FFF7F2FF71
:1001800003BC00F06BF900000948804709480047AC
:10019000FEE7FEE7FEE7FEE7FEE7FEE7FEE7FEE737
:1001A000FEE7FEE704480549054A064B7047000094
:1001B00001160008ED0000087003002070090020FF
:1001C0007005002070050020B2F120030AD5C2F1AD
:1001D000200320FA02F001FA03F340EA030021FAB7
:1001E00002F1704721FA03F04FF000017047032A33
:1001F00040F2308010F0030C00F0158011F8013B44
:10020000BCF1020F624498BF11F801CB00F8013B2A
:1002100038BF11F8013BA2F1040298BF00F801CBEE
:1002200038BF00F8013B11F0030300F02580083AC5
:10023000C0F0088051F8043B083A51F804CBA0E81C
:100240000810F5E7121D5CBF51F8043B40F8043B71
:10025000AFF30080D20724BF11F8013B11F801CBA6
:1002600048BF11F8012B24BF00F8013B00F801CB77
:1002700048BF00F8012B704710B5203AC0F00B8042
:10028000B1E81850A0E81850B1E81850A0E818508C
:10029000203ABFF4F5AF5FEA027C24BFB1E8185002
:1002A000A0E8185044BF18C918C0BDE810405FEA64
:1002B000827C24BF51F8043B40F8043B08BF7047E0
:1002C000D20728BF31F8023B48BF11F8012B28BFE5
:1002D00020F8023B48BF00F8012B70474FF00002A6
:1002E0000429C0F0128010F0030C00F01B80CCF148
:1002F000040CBCF1020F18BF00F8012BA8BF20F8B6
:10030000022BA1EB0C0100F00DB85FEAC17C24BF09
:1003100000F8012B00F8012B48BF00F8012B7047B3
:100320004FF0000200B5134694469646203922BF8E
:10033000A0E80C50A0E80C50B1F12001BFF4F7AFD9
:10034000090728BFA0E80C5048BF0CC05DF804EBBB
:10035000890028BF40F8042B08BF704748BF20F829
:10036000022B11F0804F18BF00F8012B70470000DE
:100370004FF0013C50F8042B51F8043B9A4221D134
:10038000A2EB0C03934313EACC1317D150F8042BC0
:1003900051F8043B9A4215D1A2EB0C03934313EAA4
:1003A000CC130BD150F8042B51F8043B9A4209D1DD
:1003B000A2EB0C03934313EACC13DBD04FF0000005
:1003C000704700BFD01A01BAB1FA81F101F01801EB
:1003D00022FA01F0CB40DBB2C0B2C01AC1F1200159
:1003E0002CFA01F3D11A914311EAC311E6D17047F7
:1003F000704770477047754600F02CF8AE46050010
:100400006946534620F00700854618B020B5FFF72F
:10041000C9FEBDE820404FF000064FF000074FF046
:1004200000084FF0000BAC46ACE8C009ACE8C009CE
:10043000ACE8C009ACE8C00921F007018D4670475F
:1004400010B50446AFF300802046BDE81040FFF72A
:1004500094BE000000487047200000200149182089
:10046000ABBEFEE7260002007047000080B51548CD
:100470000178D1B101784178B9B14178012914D11D
:10048000017811B1017801290FD0417889B1407804
:1004900001280ED10C480D49FFF76AFF50B100202A
:1004A00001F098FA002001F083FABDE8804001F0E5
:1004B0001FB980BD012001F08DFA012001F078FA0A
:1004C00001F054FA80000020820000208201002008
:1004D000FEE77047EFF3108072B6FEE7F3480021A5
:1004E000C161F348016841F004010160016841F015
:1004F00040010160704700BFEC490022CA61EC492D
:100500000A6842F002020A604860086840F0400051
:100510000860704725480168C90601D4002105E03C
:10052000E249CA6942F00202CA6110210268520718
:1005300006D5DE4A41F00401D36943F00103D361DB
:100540000269D20708D0D94AD36943F00403D361C2
:10055000026922F00102026101607047F8B5134E92
:10056000044600F09DFA0546671C3068C00709D0B4
:10057000002FFAD024B100F093FA401BA042F4D926
:100580000320F8BD3068800644BF2020306030680A
:10059000C00607D43069C00704D1306840075CBF8B
:1005A0000020F8BDFFF7B6FF0120F8BD0C20024087
:1005B00070B598B1044690F8200010B9204600F0BC
:1005C00065F800F0B7FF054620684168C90707D104
:1005D00000F066FA401B0B28F6D311E0012070BD35
:1005E000016821F00201016000F05AFA0546206816
:1005F000416889070BD500F053FA401B0B28F6D34E
:10060000606A052140F40030606201203AE0217EFA
:10061000026822F08002012908BF80320260617EF8
:10062000026822F04002012908BF40320260A17E28
:10063000026822F02002012908BF20320260E17E18
:10064000026822F01002012918BF10320260217FD7
:10065000026822F00802012908BF08320260617FA7
:10066000026822F00402012908BF04320260261D3C
:100670006ECE1A432A43013932431143C16100202F
:100680000121606284F8201070BD0000B0B586B012
:10069000184C006800210591A4F52442904227D10E
:1006A000F148426842F000724260426802F0007213
:1006B0000192019A026842F004020260006800F0B0
:1006C000040001904FF40060CDE9031102900198FD
:1006D00002AD2046294600F001F903202946059085
:1006E000022003904FF480500290204600F0F6F86C
:1006F00006B0B0BD0008014010B50223437122B11D
:1007000008C90468013A2360F9E701680122096811
:100710004271084610BD60B110B50446407920B959
:1007200000202071204600F007F8012060710020B1
:1007300010BD01207047000081B000680749884261
:1007400009D10748016841F040010160006800F0EC
:1007500040000090009801B0704700BF0030024098
:10076000141002402DE9F041DFF84081054698F869
:100770001800012801D1022018E001202E680C4643
:1007800088F8180000F0B0FE022E0AD150B9FFF729
:10079000A5FE00F0A9FE46490A6822F004020A609C
:1007A00001E030B10120002188F81810C0B2BDE886
:1007B000F0814FF0FF303E4F20600120A9680E46C7
:1007C000EA6801EB82218E42EDD23046FFF794FEBB
:1007D00000F08AFE396821F00201396020B9A96869
:1007E00006F580660020EBE72660DCE70721016064
:1007F00007494A6882600A6892074FF0000258BFB2
:100800006FF05A0202740968C1F3820141747047A3
:100810001C2002402648016841F080010160002050
:10082000704700BF2DE9F84FDFF88080074698F841
:100830001800012804BF0220BDE8F88F01209A4665
:1008400093460E4688F818004CF25030FFF786FEAB
:1008500038BB3846022F18BF0420012F08BF384686
:10086000134FC4B200255FFA85F900204C4518D912
:10087000C8F81C004FEA09125146386840F00100E0
:1008800038605846FFF7A0FC26F819004CF25030AB
:10089000FFF764FE39680135002821F00101396055
:1008A000E1D0002188F81810BDE8F88F4803002037
:1008B000102002400648C16809065CBF002070474E
:1008C0000449016004490160C068C0B2C0097047B2
:1008D0000420024023016745AB89EFCD2DE9FC4F91
:1008E0005E4A04234FF0000A4FF001084FF0000960
:1008F000904208BF0323009300250C6834FA05F2E8
:1009000008BFBDE8FC8F08FA05FE14EA0E0F00F0E0
:10091000A1804F68032F16D9112F26D0122F28D06F
:10092000524A974213D0524A974210D0514A9742A6
:100930000DD0514A97420AD0504A974207D0504AA8
:10094000974204D022E0DFE807F002181B1F8C68F2
:1009500044B1012C14BFC0F814E0C0F810E04FF00F
:10096000080913E04FF0040910E0CC6804F1040911
:100970000CE0CC6804F10C0908E0D1F80C9005E01B
:10098000CC6804F1080901E04FF00009544607461D
:10099000082D4FF00F0228BF203C28BF04373B68CA
:1009A00002FA04F609FA04F4B34323433B60CB791B
:1009B000DB064FD5634A2A4C1368A4F57E7C43F0CE
:1009C0000103136013682F4A03F00103904201935F
:1009D000019B25F003035CF803B008D02A4A90423B
:1009E00007D02A4A009E904208BF022602E0002655
:1009F00000E001260AF00C030F22AF0802FA03F40C
:100A000006FA03F3164E174A2BEA040423434CF864
:100A100027304F68FB02B36854BF23EA0E0443EA51
:100A20000E04B460BB02136854BF23EA0E0443EA09
:100A30000E041460BB03736854BF23EA0E0443EA38
:100A40000E047460FB03336854BF23EA0E0243EACA
:100A50000E0232600AF1040A01354EE7001401402B
:100A6000000401400C040140181002400000111065
:100A700000001210000021100000221000003110B0
:100A80000000321000080140000C0140001001403D
:100A9000024800686FF31F30704700BF002004E079
:100AA00005480068704700BF1A48034900780A6883
:100AB00010440860704700BF6803002080B58A4872
:100AC000016841F010010160032000F063F80F207D
:100AD00000F004F800F020F8002080BD70B50D4E45
:100AE00004464FF47A713078B1FBF0F0C0490968E0
:100AF000B1FBF0F000F034FB01250F2C08D838B919
:100B00004FF0FF3021460022002500F01DF87460F0
:100B1000284670BD1000002082B00A48016841F0EC
:100B200001010160016801F0010101910199416831
:100B300041F080514160406800F080500090009882
:100B400002B0704718100240F0B5184B4FF0FF3656
:100B50001C68C4F30224E51E84F0070438BF002596
:100B600006FA05F7BA43042C28BF042406FA04F455
:100B7000A14300F00F04A940043C1143044A23445C
:100B800009010244002848BF03F10C021170F0BDB6
:100B900000E400E005494FF6FF030A681A4060F3DD
:100BA0000A22034810430860704700BF0CED00E0C4
:100BB0000000FA05704700002DE9F84300286CD0CA
:100BC000884649490446086800F0070040450AD2B3
:100BD000086820F0070040EA08000860086800F094
:100BE0000700404559D12068904B8946810711D5AF
:100BF000410703D5196841F4E0611960010703D585
:100C0000196841F460511960A1681A6822F0F00275
:100C100011431960C00737D1D9F8000000F0070070
:100C200040450DD9D9F8000020F0070040EA08003F
:100C3000C9F80000D9F8000000F0070040452CD1A9
:100C40002068410705D5E1681A6822F4E062114383
:100C50001960000706D52069196821F4605141EA3E
:100C6000C00018601C4600F0C7F821681F4AC1F395
:100C70000311515CC8405E4908604F480068FFF7A7
:100C80002DFF0020BDE8F8836068022808D0012805
:100C900025D153F8041C890306D40120BDE8F8834C
:100CA00053F8041C8901F8D519681D4621F0030189
:100CB00008431860FFF7F4FE064641F28837606883
:100CC00029682B4601F00C01B1EB800FA4D0FFF78F
:100CD000E7FE801BB842F2D90320BDE8F88353F841
:100CE000041C8907D9D5DFE7002002401A1A000842
:100CF00070B5FFF7D5FE2F4D0446286840F001007F
:100D000028602868800705D4FFF7CAFE001B022868
:100D1000F7D914E02868102161F3C7002860FFF7B5
:100D2000BFFE0446002041F288366860686810F013
:100D30000C0F06D0FFF7B4FE001BB042F6D903201B
:100D400070BD2B483A4901601B480068FFF7C6FE9A
:100D500008B1012070BDFFF7A3FE0446286820F00B
:100D6000807028602868800105D5FFF799FE001B78
:100D70000228F7D9E3E700206860FFF791FE0446F8
:100D8000286820F4102028602868800306D5FFF723
:100D900087FE011B03206429F6D970BD286820F462
:100DA00080202860686A40F0807068620020A86037
:100DB00070BD00BF00100240140000200148012156
:100DC000016070474C004242E3481849094A0068F4
:100DD0000968C1F30221515CC8407047DE481349DD
:100DE000044A00680968C1F3C221515CC8407047D9
:100DF000180000202A1A000810B50C490C480A688F
:100E000002F00C03082B07D1C2F3834309A4D203D9
:100E1000E35C02D40C48584310BD096809A258434A
:100E2000C1F34041515CB0FBF1F010BD0410024031
:100E300000127A0002030405060708090A0B0C0DCC
:100E40000E0F10100102000000093D0010B5044C07
:100E50002068000603D5FFF7ADFE8020A07010BD0E
:100E6000081002402DE9FC41002800F09C80044657
:100E70000078B74EC0071FD0706800F00C0004283F
:100E800014D000F05EFB02D17068C0030ED460681D
:100E9000002800F01481B0F5A02F00F02181B0F5FA
:100EA000803F00F0218100F017FB20E130688003D3
:100EB00002D56068002876D02078800716D5706843
:100EC00010F00C0F05D000F03CFB24D17068C0037B
:100ED00021D43068800702D52069012863D1606978
:100EE000316821F0F80141EAC00030602078000745
:100EF00041D5A06910B397480121C0F88014FFF7CD
:100F0000CFFD0546706A800728D4FFF7C9FD401B56
:100F10000228F7D9F8E021698E48002900F08E8078
:100F200001210160FFF7BCFD054630688007D6D47B
:100F3000FFF7B6FD401B0228F7D9E5E08548002100
:100F4000C0F88014FFF7ACFD0546706A800712D523
:100F5000FFF7A6FD401B0228F7D9D5E07E484FF4E5
:100F6000FA510068B0FBF1F0019000BF0198411EFA
:100F700000280191F9D12078400717D4E7697FB1A3
:100F800000F0DFFA3CD1012F0DD0216A706800F427
:100F900080328A4207D1616A00F47010884202D11F
:100FA0000020BDE8FC810120BDE8FC81F06910F063
:100FB000805808D1F06940F08050F061F06900F08D
:100FC000805000900098654F3868C0050FD438688D
:100FD00040F480703860FFF763FD05463868C0054F
:100FE00005D4FFF75DFD401B6428F7D98CE0E0686D
:100FF000A0B3052844D0012846D000F08EFA46E080
:101000005449002088460866FFF74AFD0546022F2E
:101010000AD147463068800179D5FFF741FD411B71
:1010200003200229F6D9BCE730688001B8D5FFF764
:1010300037FD411B03200229F6D9B2E700210160E8
:10104000FFF72EFD0546306880077FF54FAFFFF7AD
:1010500027FD411B03200229F5D9A2E700F05DFA24
:101060003062FFF71DFD054641F28837306A800780
:101070001CD5FFF715FD411B0320B942F6D990E7B7
:10108000306A40F004003062306A40F001003062A3
:10109000FFF706FD054641F28837306A800705D420
:1010A000FFF7FEFC401BB842F7D92DE0B8F1000F66
:1010B0007FF464AFF06920F08050F0615EE700F0EB
:1010C0000BFA3060FFF7ECFC0546306880037FF5D3
:1010D000F3AEFFF7E5FC411B03206429F5D960E777
:1010E000306840F480203060306840F480303060F8
:1010F000FFF7D6FC0546306880033FF5DDAEFFF70D
:10110000CFFC401B6428F6D90320BDE8FC81206A8F
:10111000B0F5803F05D1A168726822F40032114316
:101120007160616A726822F474121143084370603E
:1011300001203866FFF7B4FC0446306880013FF5B3
:101140002FAFFFF7ADFC011B03200229F5D928E7DB
:1011500000100240000042421800002000700040D1
:10116000411E0020B0EB116F1CBF01207047044AE4
:10117000F023516003490B700721906011607047A4
:1011800010E000E023ED00E090B110B5044690F8C7
:10119000410008B900F0F7F900F0D8F920680169BA
:1011A00021F490410161416921F02A0100F0DDB98B
:1011B0000120704770B586B000210068CDE90411A8
:1011C000CDE90211BA49884211D0B14988422ED1E5
:1011D000A5484FF48066016841F4804101600168D0
:1011E00001F4804100F08EF94FF400700BE09E484E
:1011F0000826416841F400314160416801F4003142
:1012000000F080F90420029001980320974C05908B
:101210000220039002AD20462946FFF75FFB002025
:1012200029460490CDE902602046FFF757FB06B03F
:1012300070BD00BF2DE9F843054690F84200202814
:101240001CBF0220BDE8F8838946B1B11646A2B1A1
:10125000002022211C46686485F842102863FFF7AD
:101260001FFCEE858046AE85A868B0F5805F01D191
:10127000286928B100264F4604E00120BDE8F88324
:1012800000274E46E88D18B32846202142462346C3
:1012900000F000FA10BB5FB1A868B0F5805F0FD016
:1012A00008B9286960B12868406800F07F0009E04B
:1012B0002868002740686FF35F2026F8020B03E0E0
:1012C0002868406807F8010BE88D0138E885D9E700
:1012D000202085F842000020BDE8F8830320BDE807
:1012E000F8832DE9F843044690F8410020281CBFFC
:1012F0000220BDE8F8838846B1B11746A2B10020AC
:101300001D466064212084F84100FFF7C9FBE78493
:101310000646A784A068B0F5805F01D1206930B18E
:101320004FF00009474604E00120BDE8F88300279C
:10133000C146E08CB8B12046802132462B4600F0F1
:10134000A9F9B8B927B117F8010B2168486006E080
:1013500039F8021B206800276FF35F214160E08CA1
:101360000138E084E5E72046402132462B4600F074
:1013700091F910B10320BDE8F883202084F84100E2
:101380000020BDE8F883FEE710B5094C094910209C
:10139000C4E9001004F108001621FEF7C1FF204641
:1013A000FFF706F918B1BDE81040FFF793B810BD7C
:1013B000840200200064004080B5054805490160B2
:1013C000FFF7A9F918B1BDE88040FFF783B880BDE9
:1013D000AC02002000300240F0B585B000200326AA
:1013E000224C234FCDE903001F48016841F0100152
:1013F0000160016801F0100100910099016841F05D
:1014000020010160016801F020010091009901684C
:1014100041F004010160016801F0040100910099AC
:10142000016841F008010160006800F008000090C8
:10143000009802964FF46040019001AD04F5006001
:101440002946B8474EF2F3102946029601902046ED
:10145000B8474FF6FF7029460296019004F5806068
:10146000B84705B0F0BD00BF1810024000080140A9
:10147000DD08000810B50548844C00F01FF818B1CD
:10148000BDE81040FFF726B810BD00BFB402002031
:101490000038014010B50548054C00F00FF818B1B0
:1014A000BDE81040FFF716B810BD00BFFC020020D9
:1014B00000440040FEE7FFF7C9FCFEE700210C22D4
:1014C0004FF4E133C0E90043C0E90211C0E904125E
:1014D000C0E90611FFF758BE306820F48030306054
:1014E000306820F4802070474CF25030FFF736B857
:1014F000206850E8050F216820F0010041E805024E
:10150000002A704701910199016841F004010160CE
:10151000006800F0040001907047306A20F001007C
:101520003062306A20F004007047206850E8030FF2
:10153000216870472068016841F001010160FFF7F0
:10154000AFBA706800F00C0008287047242084F8B7
:1015500041002068C16821F40051C160204600F0BC
:1015600057B841E80302002A70474161C16841F45D
:101570000051C16000202021606484F8411084F88B
:101580004210606310BD002084F840002046FFF741
:1015900011BE70477047FFF787BAB0B590B04FF4EF
:1015A000E0100024022501210F904FF480300B94AD
:1015B000CDE909440D950C910A910E90CDE90704EF
:1015C0000920069006A8FFF74DFC18B1EFF3108034
:1015D00072B6FEE74FF4806005940221CDE9034026
:1015E0000F20CDE9010501A8FFF7E6FA18B1EFF3E6
:1015F000108072B6FEE7FFF7E1FB10B0B0BD00004F
:1016000002484FF000610160704700BF08ED00E044
:10161000B0B50446006804F108030ECB056925F453
:10162000405519432A4341F20C650261C26863695F
:10163000AA4319431143C1604169A26921F4407171
:10164000114341611149884202D0FFF7BDFB01E01F
:10165000FFF7C4FB19214843D4E900120C4C920057
:10166000B0FBF2F06422B0FBF2F303FB040032247F
:1016700004EB0010B0FBF2F000F0F00200F00F00FD
:1016800002EB031210448860B0BD00BF0038014077
:101690009CFFFF0F2DE9F0411D4690460F46044682
:1016A0005E1C206800683840B8421DD0002EF8D07B
:1016B0002DB1FFF7F5F9A0EB0800A842F1D9FFF72B
:1016C00034FF20F4D070FFF74CFFF8D1FFF710FF84
:1016D000FCD12020002184F8410084F8401084F8D7
:1016E00042000320BDE8F0810020BDE8F081FEE764
:1016F0002DE9F04FADF5277D0DF586788421404624
:10170000FEF70EFE03ACFF212046FEF709FEA148BE
:10171000214601224FF0FF33FFF78CFD002840F0F7
:10172000FF809DF80C90651C9A484FF0FF332946C6
:101730004A46FFF77FFD002840F0F2809DF80E003A
:101740009DF80F6008F1040A211D019050463246B1
:10175000FEF792FD7019D0F80310D0F807B00846D4
:101760000291CDE9641B67AFA9F10400DFF8E891AD
:10177000C4B200204CB115F8010B39460122679024
:101780004846FEF7B9FF013CF4E7D9F800108A6833
:1017900042F001028A60584540F0C2806E4C4FF022
:1017A000FF3067AD4EB11AF8010B29460122679050
:1017B0002046FEF7A1FF013EF4E721688A6842F067
:1017C00001028A600299884240F0AA8001990D299D
:1017D00000F29E80DFE801F0070D141F2C3A579CA1
:1017E0009C9C9C9C9C71032000F0D6F85D480321D2
:1017F0006EE00D2000F0D0F85A480D21033067E06C
:10180000FFF746F96790042000F0C6F867A80421A6
:1018100000F0B6F87CE067A8FEF7E8FF9DF8AC01A1
:101820008DF89801012000F0B7F866A801214FE07B
:10183000449800F17841B1F1011F04D300F16041F7
:10184000B1F5A04F64D80130804743E09DF8100106
:1018500041285DD868D1022067900120689000205F
:101860006690FFF727F8002852D167A866A9FEF70F
:1018700079FF00284CD16698B0F1FF3518BF0125DB
:10188000FEF7C8FF42E09DF81441449E2819C4F5B4
:101890008071FEF723FD08F1090128462246FEF774
:1018A000A6FC06F17840B0F1011F17D306F16040A5
:1018B000B0F5A04F12D9012528E067AC2A4948228B
:1018C0002046FEF7D9FC482000F066F82046482163
:1018D00000F056F8002000F05FF821E0FEF7EAFF84
:1018E00098B9013C00218FB2A74208D2EA5BB9192E
:1018F00001200023FEF796FFB91C0028F3D0FEF765
:1019000089FF012510B9A74200D30025002DE1D0A1
:101910004FF480700221ADF89C0167A800F030F808
:101920000DF5277DBDE8F08F00229DF8111167921B
:10193000C0F14002D2B28A4238BF11466A91800299
:10194000064900F10060884200D3FEE7044969902F
:1019500088423FF682AFDBE7AC02002001000108BD
:101960000064000800000020341A000803480168E1
:10197000446881F30888FFF7BBF9A047008000089E
:1019800030B10A46014603484FF0FF33FFF7A9BCC8
:10199000704700BFB4020020E0B58DF807000120B9
:1019A00002218DF806000DF10600FFF7E9FF8CBD5E
:1019B00081B08DF803009DF8030010B19DF803007D
:1019C00018B19DF803000249487001B0704700BF8C
:1019D0008000002081B08DF803009DF8030010B155
:1019E0009DF8030018B19DF803000249087001B08A
:1019F000704700BF82020020FFF760F8FFF7CDFDBF
:101A0000FFF7EAFCFFF7C0FCFFF7D6FCFFF732FD5B
:101A1000FFF740FDFEF72AFDFCE700000000000094
:101A2000000001020304060708090000000001028B
:101A3000030400005468697320626F6F746C6F61F7
:101A4000646572206973206D616465206279204D40
:101A50006F68616D656420417368726166205778B4
:101A600020436F7079726967687420284329205772
:101A70007820496E632C203230323300A01A0008DF
:101A8000000000202000000028010008C01A000803
:101A90002000002050090000440100080000000060
:101AA000010000000102030405060708090A0B00F3
:101AB00001000000100000000024F40000000000FD
:04000005080000ED02
:00000001FF
